:100000000C94BD040C94E5040C94E5040C94E504F4
:100010000C94E5040C94E5040C94E5040C94E504BC
:100020000C94E5040C94E5040C94D80A0C944A0B47
:100030000C94E5040C94E5040C94E5040C94E5049C
:100040000C94E5040C94E5040C94E5040C94E5048C
:100050000C94E5040C94E5040C94E5040C949108CC
:100060000C94E5040C94E5040C94E5040C94E5046C
:100070000C94E5040C94E5040C94E5040C94E5045C
:100080000C94E5040C94E5040C94E5040C94E5044C
:100090000C94E5040C94E5040C94E5040C94E5043C
:1000A0000C94E5040C94E5040C94E5040E2F1895CB
:1000B00093DBD4729BDC2A87413CA557184B2AE777
:1000C0009497764E299D958A5749259574CE49E592
:1000D0009C734E916D951D12040E2F30B5DC06B148
:1000E000493BA7B3A32FE79C54CE29995D49E94A20
:1000F00049259D93EBE7DA3955AAB376A9764A6E7E
:10010000D3D13AA7ACB2EB745CA10F102F30A69CF0
:10011000DCA696DBE456398CE229BDC2605239A7D1
:10012000F8A473545A3A69C793924A2AE99C734EC9
:100130002AE7389574763811102F30B9DC06014A59
:10014000E7A8A40EB79D93CA394E25A5A2CA664F4B
:100150002D2BE7B6CBEDB619D536343BA7ACB2EBB9
:10016000749C122F30A69CDCA696DBE45639E42260
:100170002BBD3A346677724C2925FDA9F196DE6EC7
:1001800095545249251DE7D6D9E152122F30B9DCDA
:1001900006652A25A994757634A653A5947454F956
:1001A000AD5458DA29E994FC4BC9ED367AA99894F4
:1001B000C25B3A1DFA9C5356D9753A07152F30A5E4
:1001C0009CDCA696DBE45639BC632ABD6A1D7A73B3
:1001D0007674257B977A371EB75B2595545249E78D
:1001E0009C73CE39C735EC0C152F30B8DC066F8EFA
:1001F000AEFCFED3CA2AABD0B8544A2A27674D7347
:100200006DED684BAAA99492DBD0B675CE3A6BD748
:10021000D12A9BDE2A9D0EA96925D3DB6D1A0E2FEC
:10022000189593DBD4729BDC2A87413CA557184B69
:100230002AE714A288D6F32BA9A492CE39E79C739F
:10024000CE29B2ADD241820E2F30B5DC06F3B9DC37
:1002500029A515BA72CE39E79C92D99594AE9454DB
:10026000D239B97EAE9D53A53A6B976AA7E4361D85
:10027000AD73CA2ABB4EC715FA00102F30A69CDCFE
:10028000A696DBE456398CE229BDC2605239A72814
:10029000DFCA9D964EDAF1A4A4924A3AE7A472CE40
:1002A000394E259D1D4E04102F30B9DC0607BE9532
:1002B0003BA9C36DAF9C738E5349A9A8B2D953CB48
:1002C000CAB9ED72BB6D46B50DCDCE29ABEC3A1D6A
:1002D00027122F30A69CDCA696DBE456390CE329C6
:1002E000BD3A3466774EC9DDDB159F52B2AC7378E8
:1002F0004B6FB74A2AA9A4928E73EBEC7029122F88
:1003000030B9DC0627BE5DF12925CB4FA4D0994E2C
:100310009552D251E5B7CE6169A7A453F22F25B704
:10032000DBE89D23520E6FE974E85372ABEC3A9D03
:1003300004152F30A59CDCA696DBE45639BC632A55
:10034000BD6A1D5AB3BBD456CDAF942CD969371EA4
:10035000D3EBAC924A3AE79CE3DE3A3B9C0C152F78
:1003600030B8DC0665AAAD9A5F29A9634A2BABAC0D
:10037000426072A994744ACEA4A4547EEB1CFA92F3
:100380006A2AA5E43674A59574525A67E75732BDB8
:10039000553A1D5295DC2ABB4E2701010204081074
:1003A00020408000000000003E5B4F5B3E3E6B4FF4
:1003B0006B3E1C3E7C3E1C183C7E3C181C577D57F7
:1003C0001C1C5E7F5E1C00183C1800FFE7C3E7FFA3
:1003D0000018241800FFE7DBE7FF30483A060E2636
:1003E00029792926407F050507407F05253F5A3C8E
:1003F000E73C5A7F3E1C1C08081C1C3E7F14227FD1
:1004000022145F5F005F5F06097F017F00668995A8
:100410006A606060606094A2FFA29408047E040891
:1004200010207E201008082A1C08081C2A08081E14
:10043000101010100C1E0C1E0C30383E3830060EFA
:100440003E0E06000000000000005F0000000700F4
:100450000700147F147F14242A7F2A1223130864B0
:100460006236495620500008070300001C22410054
:100470000041221C002A1C7F1C2A08083E08080094
:100480008070300008080808080000606000201034
:100490000804023E5149453E00427F4000724949EE
:1004A00049462141494D331814127F1027454545CF
:1004B000393C4A49493141211109073649494936F0
:1004C000464949291E000014000000403400000085
:1004D00008142241141414141400412214080201B7
:1004E0005909063E415D594E7C1211127C7F4949E3
:1004F00049363E414141227F4141413E7F49494980
:10050000417F090909013E414151737F0808087F75
:1005100000417F41002040413F017F081422417F7C
:10052000404040407F021C027F7F0408107F3E4114
:1005300041413E7F090909063E4151215E7F09196B
:100540002946264949493203017F01033F40404083
:100550003F1F2040201F3F4038403F631408146372
:1005600003047804036159494D43007F414141022E
:1005700004081020004141417F0402010204404070
:10058000404040000307080020545478407F28442E
:1005900044383844444428384444287F3854545418
:1005A0001800087E090218A4A49C787F0804047827
:1005B00000447D40002040403D007F102844000062
:1005C000417F40007C047804787C08040478384437
:1005D000444438FC1824241818242418FC7C0804EB
:1005E0000408485454542404043F44243C4040200C
:1005F0007C1C2040201C3C4030403C4428102844B7
:100600004C9090907C4464544C4400083641000067
:1006100000770000004136080002010204023C2677
:1006200023263C1EA1A161123A4040207A3854543E
:1006300055592155557941215454784121555478C3
:100640004020545579400C1E527212395555555957
:10065000395454545939555454580000457C41007C
:1006600002457D420001457C40F0292429F0F02814
:100670002528F07C545545002054547C547C0A09AC
:100680007F4932494949323248484832324A48481B
:10069000303A4141217A3A42402078009DA0A07D25
:1006A00039444444393D4040403D3C24FF242448E3
:1006B0007E4943662B2FFC2F2BFF0929F620C0888B
:1006C0007E090320545479410000447D413048485C
:1006D0004A32384040227A007A0A0A727D0D193176
:1006E0007D2629292F28262929292630484D4020D2
:1006F000380808080808080808382F10C8ACBA2FAE
:10070000102834FA00007B000008142A1422221456
:100710002A14089500220095AA005500AAAA55AAF5
:1007200055AA000000FF00101010FF00141414FF61
:10073000001010FF00FF1010F010F0141414FC0053
:100740001414F700FF0000FF00FF1414F404FC145D
:100750001417101F10101F101F1414141F00101056
:1007600010F0000000001F101010101F10101010CB
:10077000F010000000FF101010101010101010FFEB
:1007800010000000FF140000FF00FF00001F101702
:100790000000FC04F414141710171414F404F400EB
:1007A00000FF00F714141414141414F700F71414B1
:1007B00014171410101F101F141414F4141010F038
:1007C00010F000001F101F0000001F14000000FCAC
:1007D000140000F010F01010FF10FF141414FF1498
:1007E0001010101F00000000F010FFFFFFFFFFF0CF
:1007F000F0F0F0F0FFFFFF0000000000FFFF0F0F20
:100800000F0F0F38444438447C2A2A3E147E0202DB
:100810000606027E027E0263554941633844443C29
:1008200004407E201E2006027E020299A5E7A599BB
:100830001C2A492A1C4C7201724C304A4D4D3030F2
:1008400048784830BC625A463D3E494949007E01DD
:1008500001017E2A2A2A2A2A44445F444440514AFC
:10086000444040444A51400000FF0103E080FF0043
:100870000008086B6B083612362436060F090F067F
:10088000000018180000001010003040FF010100A7
:100890001F01011E00191D1712003C3C3C3C0000CA
:1008A000000000D5F08D14A1C881CFD9F1AF200090
:1008B0005E033103FE02D102A7027A0247021E0242
:1008C000E801BC018B01620138010B01D900AC00C9
:1008D0000001030004FF0900000103FF04000900F8
:1008E0000440FFFFFFFFFFFFFFFF7FFFFFFF57BF3A
:1008F0005FFF552B55AF15025500010000000000A9
:100900000000080B000202020100090400000102BD
:100910000200000524001001052401010104240245
:1009200006052406000107058103100040090401A3
:1009300000020A00000007050202400000070583CC
:10094000024000000403090412010002EF0201400A
:100950004123368000010102030141726475696E12
:100960006F204C4C430041726475696E6F204C657A
:100970006F6E6172646F0000A20F11241FBECFEF73
:10098000DAE0DEBFCDBF11E0A0E0B1E0E8EDFFE1CD
:1009900002C005900D92AE33B107D9F725E0AEE362
:1009A000B1E001C01D92A43DB207E1F714E0CDEB28
:1009B000D4E004C02197FE010E94DF0FCC3BD10799
:1009C000C9F70E947A0D0C94EA0F0C940000CF92A4
:1009D000DF92EF92FF920F931F93CF93DF936C01FF
:1009E0007A018B01C0E0D0E0CE15DF0589F0D80197
:1009F0006D918D01D601ED91FC910190F081E02D7A
:100A0000C6010995892B11F47E0102C02196ECCF15
:100A1000C701DF91CF911F910F91FF90EF90DF9071
:100A2000CF9008953FB7F894809147019091480185
:100A3000A0914901B0914A0126B5A89B05C02F3F5E
:100A400019F00196A11DB11D3FBFBA2FA92F982FF4
:100A50008827820F911DA11DB11DBC01CD0142E06F
:100A6000660F771F881F991F4A95D1F708952F9217
:100A70003F924F925F926F927F928F929F92AF922E
:100A8000BF92CF92DF92EF92FF920F931F93CF937B
:100A9000DF93CDB7DEB727970FB6F894DEBF0FBE52
:100AA000CDBF9B838A836A30A1F4DC015C962C91D4
:100AB0005C9758968D919C915997B8E02B9F800D2B
:100AC000911D1124EA81FB81918F808F178A168AEC
:100AD000C1C06D3009F4BEC0AA81BB815C964C9147
:100AE0005C975B966C905B976E825A967C905A9757
:100AF0007F825896CD90DC90599756968D919C9117
:100B0000579780389105C4F0AA81BB815C962C91DF
:100B10005C97422F50E056968D919C915797B6E086
:100B20002B9F800D911D1124EA81FB81978B868B71
:100B3000258D21117AC08EC0F0E4CF16D10424F7A0
:100B40009C0155E0459F200D311D112412161306FE
:100B5000DCF6242E312C9601A8E04A9F200D311D91
:100B600011241216130684F6B5E06B9FB001112410
:100B7000FB01ED55FC4F2F0150E0F201B4905530D0
:100B800009F4B12C7601B8E09B2EB0FC02C08E8037
:100B900001C08F8081100BC06E807F80671007C0FE
:100BA000B6949A94E20CF31C9110EFCF33C09C01E1
:100BB0002983622F681B641798F7B701E62FEE1997
:100BC000E41728F520383105F8F460347105E0F4B5
:100BD0008B01EBE9F3E0A0E16A2E7980609ED00101
:100BE000A0781124A70D0770E00FF11DA490BD831C
:100BF000AC83A75ABE4F882019F0EC91AE2A03C0EF
:100C0000A094EC91AE22AC926F5F7F4FD7CF2F5F55
:100C10003F4FCECF5F5F820D931D92012F5F3F4FFD
:100C20002901563009F0A9CF6FCF6AEF6403900114
:100C3000659F300D112420583F4F2817390754F471
:100C40008A819B81DC01ED91FC910190F081E02D86
:100C50006AE0099581E090E027960FB6F894DEBF30
:100C60000FBECDBFDF91CF911F910F91FF90EF90FD
:100C7000DF90CF90BF90AF909F908F907F906F90BC
:100C80005F904F903F902F900895CF92DF92EF9218
:100C9000FF920F931F93CF93DF93DC0120914001CC
:100CA00030914101C0904201D090430140914401F4
:100CB00050914501E0913E01F0913F0160E070E00C
:100CC00080E090E001E010E06A177B0704F5211551
:100CD000C1E03C0749F4F601E40FF51FE491F0E0B0
:100CE0004F5F5F4F21E030E07F01E222F322EF28E7
:100CF00049F07801062E02C0EE0CFF1C0A94E2F7C0
:100D00008E0D9F1D220F331F6F5F7F4FDDCF3093FE
:100D10004101209340015093450140934401F093D9
:100D20003F01E0933E01DF91CF911F910F91FF9022
:100D3000EF90DF90CF9008952F923F924F925F9265
:100D40006F927F928F929F92AF92BF92CF92DF92DB
:100D5000EF92FF920F931F93CF93DF93CDB7DEB740
:100D600029970FB6F894DEBF0FBECDBF6C015B01B3
:100D70002D83509343014093420180E091E0909392
:100D800041018093400110923F0110923E01109268
:100D900045011092440188E090E00E9445060196CA
:100DA0009C838B8388E090E00E9445068C0181E063
:100DB00090E00E9445063C018B819C818C0D9D1D1D
:100DC00097FD15C120E8C216D1040CF010C1C8016E
:100DD00001969501280F391F37FD09C130E4A3168C
:100DE000B1040CF004C17501B7FE04C0EE24FF2469
:100DF000EA18FB0847E0E422FF249501B7FE02C091
:100E0000295F3F4F1901F3E035942794FA95E1F7F4
:100E1000B7FE09C051E0251A310828E030E0F90199
:100E2000EE19FF097F019C0197FF02C0295F3F4F28
:100E3000A901E3E055954795EA95E1F75A8349837F
:100E400087709927892B21F04F5F5F4F5A83498321
:100E5000AA24A394B12C1986188600E010E0812CF6
:100E6000912C88E090E09C012E193F093F832E834E
:100E700029813A81821693060CF0B9C04424439428
:100E8000512C81E090E00E944506892B21F432E04C
:100E9000430E511CF6CFC2010E9445062C01A0E072
:100EA000B0E04A165B060CF497C06114710431F08F
:100EB000488559854A295B2959874887AA0CBB1C54
:100EC000A11451E0B50609F085C09101280D391D26
:100ED000B9016F5F7F4F6930710508F064C0C801C8
:100EE0008C0D9D1D8038910508F05DC02F3F8FEF60
:100EF000380709F477C0C9019695982F88279795E8
:100F00008795488559850E2C01C0440F0A94EAF74D
:100F1000ED81EE2351F0FC01EC0DFD1DE00FF11F02
:100F2000E75AFE4F8081482B0AC0FC01EC0DFD1DE5
:100F3000E00FF11FE75AFE4F409580814823408320
:100F4000E114F10481F12730310569F12D81FB01B4
:100F5000F695FE2FEE27F795E795EC0DFD1DE00FBA
:100F6000F11F222379F09F01275A3E4F488559856A
:100F70000E8002C0559547950A94E2F7F9018081E9
:100F8000842B10C09F01275A3E4F888599850E807B
:100F900002C0959587950A94E2F7982F9095F901EC
:100FA0008081892380830F5F1F4F2B813C81021733
:100FB00013075CF03FEF831A930AAA24A394B12C81
:100FC0001986188600E010E005C0AA24A394B12C6D
:100FD00019861886119665CF41E050E046195709E9
:100FE0003A0146CFE114F10409F0B0CFDCCF2996E5
:100FF0000FB6F894DEBF0FBECDBFDF91CF911F912A
:101000000F91FF90EF90DF90CF90BF90AF909F90A7
:101010008F907F906F905F904F903F902F900895AA
:101020000895089580E090E008950E94E50F4091B2
:1010300052015091530120915001309151014217BA
:101040005307B4F49091E8009570E1F39091E800B3
:1010500092FD19C08093F10080915201909153014B
:1010600001968F739927892B19F48EEF8093E800EE
:101070008091520190915301019690935301809376
:10108000520181E0089580E00895615030F0209190
:10109000F100FC0120830196F8CF289884E6809324
:1010A000570108958F929F92AF92BF92CF92DF9295
:1010B000EF92FF926B017C010E9412054B015C01D3
:1010C000C114D104E104F104F1F00E941205DC0125
:1010D000CB0188199909AA09BB09883E9340A1054B
:1010E000B10570F321E0C21AD108E108F10888EED9
:1010F000880E83E0981EA11CB11CC114D104E10428
:10110000F10419F7DDCFFF90EF90DF90CF90BF9003
:10111000AF909F908F900895BC0180E090E00C9478
:1011200052081F920F920FB60F9211242F933F93E4
:101130008F939F93AF93BF9380914B0190914C01FC
:10114000A0914D01B0914E013091460123E0230F53
:101150002D3720F40196A11DB11D05C026E8230FEF
:101160000296A11DB11D2093460180934B019093DF
:101170004C01A0934D01B0934E0180914701909195
:101180004801A0914901B0914A010196A11DB11DEC
:101190008093470190934801A0934901B0934A017D
:1011A000BF91AF919F918F913F912F910F900FBE63
:1011B0000F901F901895FC0180915801811103C078
:1011C0008FEF9FEF08959FB7F89482E08093E90036
:1011D0002091F20030E01216130614F421E030E002
:1011E0002115310559F0289884E6809357018091A4
:1011F000F10080838091F200882319F09FBFC9011C
:1012000008958BE68093E800F9CF2FB7F89483E038
:101210008093E9009091E800892F807295FF04C0C7
:101220009091F20080E4891B2FBF089580917C0586
:1012300081110DC082E08093780584E08093790568
:1012400010927B0510927A0581E080937C0588E7F7
:1012500095E00895CF93DF931F92CDB7DEB76983F2
:10126000DC01ED91FC910280F381E02D41E050E042
:10127000BE016F5F7F4F09950F90DF91CF91089569
:1012800083E08093E9008091F200882319F08AE3DB
:101290008093E80008950E94050990E00895CF9397
:1012A000DF931F92CDB7DEB7FC018485958597FD4E
:1012B00005C02FEF3FEF358724870BC0CE01019685
:1012C0000E94DB08019719F4898190E002C08FEF3A
:1012D0009FEF0F90DF91CF9108950F931F93CF93BE
:1012E000DF931F92CDB7DEB78C01FC018485958515
:1012F00097FF0EC0CE0101960E94DB08019719F4FA
:10130000298130E002C02FEF3FEFF80135872487B5
:10131000F801848595850F90DF91CF911F910F91F2
:101320000895FC018485958597FD0BC09FB7F894BF
:1013300082E08093E9008091F2009FBF90E00196E7
:1013400008959FB7F89482E08093E9008091F200BD
:101350009FBF90E008958F929F92AF92BF92CF92DD
:10136000DF92EF92FF920F931F93CF93DF935C0175
:101370006B017A0180910F01882309F45BC0809191
:101380005801882309F456C08091560180FF05C09A
:101390008091E00082608093E000E70110E00AEFB6
:1013A00083E0882E9AE3992E2097D9F10E940509AF
:1013B00081110AC0015009F43DC061E070E080E095
:1013C00090E00E945208F0CF282F30E0C217D307D8
:1013D0000CF48C2F4FB7F8948092E9009091E800BC
:1013E00095FF1DC0282F30E0C21BD30BF601982FAC
:1013F000915020F081918093F100FACFC20ED31E5C
:10140000112319F09092E80009C08091E80085FD51
:1014100006C09092E80011E0209709F010E04FBF5D
:10142000C3CF1111C3CF5D9884E6809377051E1456
:101430001F0444F081E090E0F5019383828380E013
:1014400090E001C0C701DF91CF911F910F91FF90F4
:10145000EF90DF90CF90BF90AF909F908F900895C6
:10146000CF92DF92EF92FF920F931F93CF93DF9370
:101470001F92CDB7DEB7182F062FE42E862F880FC8
:101480008E5F99830E94170883E00E941708F12E4F
:10149000C12E9981D92E8C2D8F19801798F4F601C1
:1014A000E7FE02C0849101C080810E941708182FB6
:1014B00080E00E9417088123FFEFCF1ADF0A811115
:1014C000EACF01C081E00F90DF91CF911F910F9182
:1014D000FF90EF90DF90CF900895DF92EF92FF9210
:1014E0000F931F93CF93DF93D82E8A017B01E40ED5
:1014F000F51EEB01CE15DF0571F0D7FE03C0FE012E
:10150000849101C088810E94170821968111F2CF31
:101510008FEF9FEF01C0C801DF91CF911F910F9115
:10152000FF90EF90DF9008950F931F93CF93DF9379
:101530001F92CDB7DEB782E0898342E450E062E0DB
:1015400079E080E80E946D0A0E941609DC0112967B
:101550000D911C9113970115110569F0D801ED91BA
:10156000FC910280F381E02DBE016F5F7F4FC801C7
:10157000099597FF07C089810F90DF91CF911F9147
:101580000F910895F80100851185E5CF80915901EB
:101590008EBDEAE5F1E081910DB407FEFDCF8EBD71
:1015A00085E0E935F807B9F70DB407FEFDCF0895DA
:1015B0001F920F920FB60F9211248F939F938091D9
:1015C000E1009091E100937F9093E10083FF0FC0D1
:1015D0001092E90091E09093EB001092EC0092E3FE
:1015E0009093ED001092580198E09093F00082FFE4
:1015F00020C093E09093E9009091F200992319F0B4
:101600009AE39093E80090917705992339F09091AF
:101610007705915090937705992389F1909157011F
:10162000992339F090915701915090935701992344
:1016300041F184FF10C08091E2008E7E8160809332
:10164000E2008091E1008F7E8093E100809156015D
:101650008E7E806111C080FF16C08091E2008E7E78
:1016600080618093E2008091E1008E7E8093E100B2
:10167000809156018E7E81608093560104C05D9AF0
:10168000CDCF289AD6CF9F918F910F900FBE0F90FC
:101690001F9018951F920F920FB60F921124CF92A0
:1016A000DF92EF92FF920F931F932F933F934F93ED
:1016B0005F936F937F938F939F93AF93BF93EF93BA
:1016C000FF93CF93DF93CDB7DEB76C97DEBFCDBF6F
:1016D0001092E9008091E80083FFEDC168E0CE013F
:1016E00045960E94450882EF8093E8008D8987FF28
:1016F00005C09091E80090FFFCCF03C09EEF90934F
:10170000E800982F907609F0C6C09E892F89188D21
:1017100091110CC0803829F4809155018093F1001B
:1017200002C01092F1001092F10048C1422F50E027
:10173000512B913051F4811141C14130510509F0D3
:101740003DC1809155018D7F0BC0933061F48111B3
:1017500035C14130510509F031C180915501826098
:10176000809355012BC1953041F48091E80080FFB2
:10177000FCCF20682093E30021C1963009F05FC0C0
:10178000EB8CFC8C1092E9001092530110925201E4
:10179000123091F510925101109250010E94940A5A
:1017A00099E0BE016F5F7F4FDB01E92F1D92EA9543
:1017B000E9F799831A8391E09E8390EA98879AEFDC
:1017C00099872091520130915301275F3F4F3C830D
:1017D0002B838D831092E9001092530110925201D5
:1017E000F0925101E092500149E050E080E00E9407
:1017F0006D0A0E94940AE2C0F0925101E0925001F9
:101800000E941609DC011296ED90FC901397E114EA
:10181000F10409F4C0C0D701ED91FC910480F58179
:10182000E02DBE016B5E7F4FC7010995009719F04F
:101830000CF0C4C0C7C0F701E084F184E8CF973052
:1018400009F4C0C0983021F481E08093F100B6C063
:10185000993009F0B3C0837009F0B4C0E1E1F1E060
:1018600081E021E036E39081992361F08093E900E3
:101870002093EB0091919093EC003093ED008F5FFB
:10188000873089F78EE78093EA001092EA008F890B
:101890008093580193C08B8D9C8D1092E90010921B
:1018A0005301109252019093510180935001898D00
:1018B000811156C08E899D89913A59F4813209F07F
:1018C00081C047E050E068E071E080E00E946D0A6E
:1018D00075C0913209F076C0833289F4888D90E02A
:1018E000982F88272F89822BA0E0B0E080930401F5
:1018F00090930501A0930601B09307015FC0803269
:1019000069F48091E80082FFFCCF67E088E091E015
:101910000E9445088BEF8093E80006C0823209F0F0
:101920004DC08F8980930F0180915401882319F055
:10193000EEEFFAE002C0E0E0F8E08091080190915B
:101940000901A0910A01B0910B01803B9440A105CF
:10195000B10509F07BC080910F0180FF93C076C074
:101960000E941609DC0112960D911C911397011526
:10197000110541F1D801ED91FC910190F081E02D2C
:10198000BE016B5E7F4FC8010995811117C0F80138
:1019900000851185ECCF113009F44EC0133091F45D
:1019A0008F89882309F445C0823081F440E860E1E2
:1019B00086E699E00E94300A882321F08EEF80931A
:1019C000E80079C081E28093EB0075C0813029F492
:1019D00040E86BE08AE599E0EDCF833099F70E940B
:1019E0001609DC011296ED90FC9013978E010F5FA3
:1019F0001F4F6801E114F10479F0D701ED91FC91DA
:101A00000680F781E02DB801C7010995080F111D67
:101A1000F701E084F184EECFD8011C92F601019029
:101A20000020E9F73197BF016C197D0940E0C6013C
:101A3000C1CF64E479E002C068E479E06115710522
:101A400009F2FB01449150E080E840CF0FB6F894D2
:101A5000A89580916000886180936000109260007A
:101A60000FBEA895EE3F2AE0F20739F08091FE0AFA
:101A70009091FF0A91838083A1CF1092FF0A109268
:101A8000FE0A9CCFEE3F8AE0F80731F08081918119
:101A90009093FF0A8093FE0A87E797E791838083FC
:101AA0009BE088E10FB6F894A895809360000FBE84
:101AB0009093600083CF6C960FB6F894DEBF0FBE94
:101AC000CDBFDF91CF91FF91EF91BF91AF919F91EA
:101AD0008F917F916F915F914F913F912F911F91C6
:101AE0000F91FF90EF90DF90CF900F900FBE0F906F
:101AF0001F901895789484B5826084BD84B5816008
:101B000084BD85B5826085BD85B5816085BD8091C8
:101B10006E00816080936E00109281008091810040
:101B20008260809381008091810081608093810038
:101B3000809180008160809380008091910082601C
:101B400080939100809191008160809391008091B9
:101B500090008160809390008091C10084608093A8
:101B6000C1008091C10082608093C1008091C1005A
:101B700081608093C1008091C30081608093C30025
:101B80008091C00082608093C0008091C20081601B
:101B90008093C20080917A00846080937A00809163
:101BA0007A00826080937A0080917A0081608093CD
:101BB0007A0080917A00806880937A0010925801B0
:101BC00010925501109256018091D7008160809348
:101BD000D70080EA8093D80089B5806189BD89B536
:101BE000826089BD09B400FEFDCF61E070E080E055
:101BF00090E00E9452088091D8008F7C8061809391
:101C0000D8008091E000807F8093E0008091E10027
:101C10008E7E8093E1008DE08093E200559A209AB9
:101C2000EEEFFFE7859194918B3F9C4D19F481E095
:101C30008093540181EC80937C0085B1806F85B9DD
:101C4000249884B1866E84B95E9A5F988AB1806D5B
:101C50008AB9769A6E9881B3806F81BB899880B378
:101C60008D7080BB80E58CBD81E08DBD85E090E00E
:101C70000E948C085F9A85E090E00E948C085E9834
:101C80005C98E3EAF8E08DE08E0F94919EBD000031
:101C90000DB407FEFDCF31968E13F7CF5C9A81E825
:101CA0008093640081E0809365008DE780936405F4
:101CB00030EE632E38E0732E41EEA42E48E0B42EB1
:101CC00052EE852E58E0952E2FB7F89480914B0157
:101CD00090914C01A0914D01B0914E012FBF4091C8
:101CE000690550916A0560916B0570916C052091B2
:101CF0006D05222341F020916505821B80936E05BE
:101D000010926D05D3C084179507A607B70778F41E
:101D1000481B423008F4CAC083B7817F83BF83B7B2
:101D2000816083BF889583B78E7F83BFBFC021E06A
:101D300020936D058093650590936605A0936705D4
:101D4000B093680520916405820F911DA11DB11DFE
:101D50008093690590936A05A0936B05B0936C0519
:101D60008091600590916105019690936105809343
:101D7000600520E030E050E8F3014491F5019491D2
:101D8000C42FD0E0B9016C0F7D1F6115710531F4CE
:101D90002C5F3F4F2038310579F735C09923C1F3C7
:101DA00081149104A9F36038710514F0452F421B8A
:101DB00081E0692F677009F480E096959695969575
:101DC000890F893008F088E0D90102EE18E090E030
:101DD0009817F1F260E070E0641778F4F801E60F0C
:101DE000F71FF49097FD06C0FB01EA0FFB1FE75AAF
:101DF000FE4FF0826F5F7F4FEFCF9F5F0C0F1D1F75
:101E0000A058BF4FE5CFC0914F01D0E0CE01880F61
:101E1000991FFC01E053F74FE491209102013091AA
:101E200003012E0F311DE7FD3A95309303012093F6
:101E30000201FC01EF52F74FE491E0900001F090B5
:101E40000101EE0EF11CE7FDFA94F0920101E0921F
:101E500000012138310534F08CEE9FEF909303019F
:101E6000809302018E01000F111F000F111FF80156
:101E7000E055F74F45915491C0900201D090030175
:101E800021E0B701C6010E949C06F801EE54F74F0D
:101E90004591549120E0B701C6010E949C0621960D
:101EA000C770DD27C0934F010E94C60A80E090E012
:101EB000892B09F409CF0E94000006CF0F931F93CE
:101EC000CF93DF938C0181E090E00E94D70F80FFD9
:101ED00031C08AE090E00E94D70F9FEF980F9E3F9D
:101EE00048F522E330E0D80157963C932E9356975D
:101EF00028E330E059963C932E935897CBE0D0E0FE
:101F0000D801ED91FC910190F081E02D682FC8017E
:101F10000995CE010E94D70F2196C131D10581F7D5
:101F20000E94C60A88EE93E0DF91CF911F910F9136
:101F30000C948C08DF91CF911F910F910895049715
:101F40000C945E0FE4E8F5E01382128288EE93E0D1
:101F5000A0E0B0E084839583A683B7838BE191E012
:101F6000918380838FEF9FEF95878487E9E5F5E084
:101F7000138212821186128620E12387908787833D
:101F8000108A118A128A138A148A8DE291E0918351
:101F900080838BE391E095838483178A168A118E60
:101FA000108E81E0828F138E848F158E0895F9999B
:101FB000FECF92BD81BDF89A992780B50895EE0FA6
:101FC000FF1F0590F491E02D099481E090E0F894D2
:081FD0000C94EA0FF894FFCF16
:101FD8001000ECFFFFFFFFFF00E100000000000021
:101FE80000C18081000000000000002A09AB094BF5
:101FF80009400991094F096D09000000003705E7FC
:0E20080004120811085E0FFCFF00009F0F007D
:00000001FF
