:100000000C943A060C9462060C9462060C946206F8
:100010000C9462060C9462060C9462060C946206C0
:100020000C9462060C9462060C9468230C94DA23F8
:100030000C9462060C9462060C9462060C946206A0
:100040000C9462060C9462060C9462060C94620690
:100050000C9462060C9462060C9462060C948A1549
:100060000C9462060C9462060C9462060C94620670
:100070000C9462060C9462060C9462060C94620660
:100080000C9462060C9462060C9462060C94620650
:100090000C9462060C9462060C9462060C94620640
:1000A0000C9462060C942B0E0C9462063C20526554
:1000B0007061697220426F74203E003C2053686971
:1000C000656C64203E003C2047656E657261746F0C
:1000D00072203E003C20436170616369746F72203E
:1000E0003E003C204A756D706A6574203E003C20DD
:1000F000456E67696E65203E003C20526163652055
:100100003E0000060C12191F252B31383E444A5080
:10011000565C61676D73787E83888E93989DA2A7E5
:10012000ABB0B5B9BDC1C5C9CDD1D4D8DBDEE1E432
:10013000E7EAECEEF1F3F4F6F8F9FBFCFDFEFEFF66
:10014000FFFF0480AF5FAB7F8A00AA01AA44AA0028
:10015000AA44AA55AADDAA75AAFDAAFFEEFFBAFF16
:10016000FEFFFFFFAF7FAF7F8A018A01AA00AA00CE
:10017000AA50AA50AAD5AAD5AAFFAAFFFAFFFAFF49
:10018000FFFFFFFF7F3F199DCB67D38E4CB94AE637
:10019000159793F9A4235B76AEB3932957C9BC8214
:1001A000CC94AB645E715FEE721559DAB9F894AB1A
:1001B000645E713997AE6CC595762EB82B9D0E6333
:1001C000CE5DB2B2913BD7A95C5BA65CCAE1D2A678
:1001D000D3E9743A9DCE6EB7DBED967EBB5452499F
:1001E000259554524925955452D9EDEC4B259554FB
:1001F000524965B74B25955452492515DB5249257F
:100200009554524965B74B259554524965B74B25CE
:10021000955452492595DD4EAAA4924A2AA9A49242
:100220008A54492595545249251521DAD8B74B25CA
:1002300095545249259554524925955D8757FC257B
:10024000955452492599F1C687373E9C39259554D6
:10025000524925958C0E6F7C88D378E3C31B1FDE33
:10026000F8F0C6B694DB746CE9981CDEF0AAA473AF
:10027000CE39E79C73CE29B5DD6EB7DBED76ABA446
:100280007352492595DD6EB7DBED5249E5E4369DA5
:100290004E4BE79C73CE39E75098764E6EB7DBED48
:1002A000F6EDD66EB7DBED76E9D25249259D73CED9
:1002B00039A748D34A2A65B7DBED524965B7DBED6C
:1002C00076BB54DBADDD6EB75B259573F9F456490B
:1002D000259D73CE392595DC3AE79C73CE39E7E04E
:1002E00024F82DBD55925C6DB74163E9AD9252F192
:1002F000C363E9AD92CED9E13728483A87664238E0
:10030000C829E91CDE79512E95C4B792F01A1CE475
:100310009C73CE39E79C73CE3925955472BB8D5EA4
:10032000493BBEB74A8EF31D37BE9554B84E427155
:100330005249259554524925955452492595545270
:10034000492595849AD2E9AD924A3AE79C7352497D
:10035000259554524925955452492595545249E5BD
:100360009C73CE39A7E436B4492595545249259556
:10037000545249259554524925955452492595542E
:100380005239E79C734A2AB90D5A02000000000056
:100390009CFFFF00000000AA9600000000009CFFE8
:1003A000FF00000000FF96020101010101010202AD
:1003B0000101010101020101010201010103010228
:1003C0000301010202010103010201040101020112
:1003D00001040201010301080401050101040402F2
:1003E00006050100040000000A000000E5FFFF010F
:1003F0000A00FCFFFF000A000000E5FFFF010A0001
:10040000000000000A000000E2FFFF010C001000E5
:10041000000000000000230000011800F0FFFF00B2
:100420000000000023000001180010000000000080
:100430000000140000011800F0FFFF0000000000A1
:100440001400000118001000000000000000090066
:1004500000FF0F00F0FFFF0000000000090000FF98
:100460000F0000000000020000001C0000FF0A4D09
:100470004F4E45593A200053656C6C3A2000557038
:100480003A20004C6F7365733A200057696E733AD7
:100490002000F900EE00E200D400C600BB00AC0072
:1004A000000400000008000000D1FFFFFF0A000068
:1004B00000000008000000D3FFFFFF0B00FCFFFF5F
:1004C0000008000000D1FFFFFF0A00000000000B41
:1004D000000000CBFFFFFF0A00050000000800003D
:1004E00000E4FFFF010400FBFFFF0008000000E440
:1004F000FFFF0104000800000004000000EEFFFF01
:10050000010400F8FFFF0004000000EEFFFF0104FB
:10051000000B00000002000000F8FFFF010400F5DE
:10052000FFFF0002000000F8FFFF010400100000C0
:100530000008000000280000AA080018000000FCC5
:10054000FFFF00280000AA080008000000FCFFFFD1
:1005500000280000AA0800F0FFFF000800000028A3
:100560000000AA0800E8FFFF00FCFFFF00280000D1
:10057000AA0800F8FFFF00FCFFFF00280000AA08FF
:10058000001000000000000000210000FF1200F039
:10059000FFFF0000000000210000FF12001000001B
:1005A00000000000001B0000FF1200F0FFFF000031
:1005B0000000001B0000FF120010000000000000FF
:1005C00000140000FF1200F0FFFF00000000001404
:1005D0000000FF12001000000000000000090000F1
:1005E000010A00F0FFFF0000000000090000010AFE
:1005F0000005000000020000001C000001040000D3
:10060000000000020000001C0000010600FBFFFFCC
:1006100000020000001C0000010400050000000AA8
:10062000000000DBFFFF000E00FBFFFF00080000E2
:1006300000DBFFFF000E00000000000A000000D1F8
:10064000FFFF000E0010000000000000002300006B
:10065000001800F0FFFF0000000000230000001859
:10066000001000000000000000140000001800F05E
:10067000FFFF000000000014000000180010000040
:100680000000000000090000010F00F0FFFF000063
:10069000000000090000010F00000000000200003F
:1006A000001C0000010C594F55204C4F53542100A1
:1006B000594F5520574F4E21000102040810204089
:1006C0008000000000003E5B4F5B3E3E6B4F6B3E88
:1006D0001C3E7C3E1C183C7E3C181C577D571C1C45
:1006E0005E7F5E1C00183C1800FFE7C3E7FF0018A0
:1006F000241800FFE7DBE7FF30483A060E26297989
:100700002926407F050507407F05253F5A3CE73CE9
:100710005A7F3E1C1C08081C1C3E7F14227F22149A
:100720005F5F005F5F06097F017F006689956A60F1
:100730006060606094A2FFA29408047E0408102008
:100740007E201008082A1C08081C2A08081E101001
:1007500010100C1E0C1E0C30383E3830060E3E0EAB
:1007600006000000000000005F0000000700070016
:10077000147F147F14242A7F2A12231308646236FC
:10078000495620500008070300001C224100004188
:10079000221C002A1C7F1C2A08083E0808008070C2
:1007A00030000808080808000060600020100804F5
:1007B000023E5149453E00427F4000724949494648
:1007C0002141494D331814127F1027454545393CC6
:1007D0004A494931412111090736494949364649B3
:1007E00049291E00001400000040340000000814D5
:1007F000224114141414140041221408020159094E
:10080000063E415D594E7C1211127C7F49494936A2
:100810003E414141227F4141413E7F494949417F1B
:10082000090909013E414151737F0808087F0041D1
:100830007F41002040413F017F081422417F40401A
:1008400040407F021C027F7F0408107F3E414141EF
:100850003E7F090909063E4151215E7F091929465B
:10086000264949493203017F01033F4040403F1F71
:100870002040201F3F4038403F63140814630304A6
:100880007804036159494D43007F41414102040806
:100890001020004141417F040201020440404040D9
:1008A00040000307080020545478407F284444380F
:1008B0003844444428384444287F38545454180059
:1008C000087E090218A4A49C787F080404780044D8
:1008D0007D40002040403D007F1028440000417FC3
:1008E00040007C047804787C08040478384444444C
:1008F00038FC1824241818242418FC7C0804040844
:10090000485454542404043F44243C4040207C1C5C
:100910002040201C3C4030403C44281028444C904F
:1009200090907C4464544C440008364100000077A9
:100930000000004136080002010204023C26232682
:100940003C1EA1A161123A4040207A3854545559B6
:1009500021555579412154547841215554784020EE
:10096000545579400C1E5272123955555559395407
:1009700054545939555454580000457C410002459F
:100980007D420001457C40F0292429F0F0282528EB
:10099000F07C545545002054547C547C0A097F490E
:1009A00032494949323248484832324A4848303A56
:1009B0004141217A3A42402078009DA0A07D3944EF
:1009C0004444393D4040403D3C24FF2424487E4976
:1009D00043662B2FFC2F2BFF0929F620C0887E09A8
:1009E0000320545479410000447D413048484A3244
:1009F000384040227A007A0A0A727D0D19317D262C
:100A000029292F28262929292630484D4020380811
:100A100008080808080808382F10C8ACBA2F102892
:100A200034FA00007B000008142A142222142A142D
:100A3000089500220095AA005500AAAA55AA55AA11
:100A4000000000FF00101010FF00141414FF00102D
:100A500010FF00FF1010F010F0141414FC00141418
:100A6000F700FF0000FF00FF1414F404FC14141737
:100A7000101F10101F101F1414141F00101010F05E
:100A8000000000001F101010101F10101010F010A8
:100A9000000000FF101010101010101010FF1000B8
:100AA0000000FF140000FF00FF00001F10170000EF
:100AB000FC04F414141710171414F404F40000FFC9
:100AC00000F714141414141414F700F71414141762
:100AD0001410101F101F141414F4141010F010F040
:100AE00000001F101F0000001F14000000FC140075
:100AF00000F010F01010FF10FF141414FF14101069
:100B0000101F00000000F010FFFFFFFFFFF0F0F0EB
:100B1000F0F0FFFFFF0000000000FFFF0F0F0F0FBE
:100B20000F38444438447C2A2A3E147E02020606CA
:100B3000027E027E0263554941633844443C0440CE
:100B40007E201E2006027E020299A5E7A5991C2A96
:100B5000492A1C4C7201724C304A4D4D3030487855
:100B60004830BC625A463D3E494949007E01010178
:100B70007E2A2A2A2A2A44445F444440514A444057
:100B800040444A51400000FF0103E080FF0000089C
:100B9000086B6B083612362436060F090F06000064
:100BA00018180000001010003040FF0101001F0164
:100BB000011E00191D1712003C3C3C3C00000000C7
:100BC00000D5F08D14A1C881CFD9F1AF2000AB0CB6
:100BD000A2064409CC0FA40E5E210000110C4D07A3
:100BE0004A0AC4097709B5070000080B000202028F
:100BF00001000904000001020200000524001001A8
:100C0000052401010104240206052406000107054C
:100C1000810310004009040100020A0000000705DA
:100C2000020240000007058302400000040309049B
:100C300012010002EF02014041233680000101024F
:100C4000030141726475696E6F204C4C4300417220
:100C50006475696E6F204C656F6E6172646F00FF22
:100C6000FEFCF8F0E0C08000000103070F1F3F7F8B
:100C7000FF001D2C11241FBECFEFDAE0DEBFCDBF79
:100C800011E0A0E0B1E0E8EBFCE502C005900D92B8
:100C9000A834B107D9F72AE0A8E4B1E001C01D9259
:100CA000A534B207E1F716E0CAE3D6E004C0219705
:100CB000FE010E94462EC933D107C9F70E94332A8C
:100CC0000C945A2E0C940000AC0126E056954795E2
:100CD0002A95E1F79C0165E0369527956A95E1F73D
:100CE000242B352B96958795822B932B0895AC0159
:100CF00026E0569547952A95E1F79C0165E03695E3
:100D000027956A95E1F7242B352BAC01569547952D
:100D1000242B352B20953095892F992782239323D7
:100D20000895492F55279C0165E0369527956A95CA
:100D3000E1F7242B352B9695879596958795822BF1
:100D4000932B08952091E3013091E4018091E50116
:100D50009091E6012817390768F08091E1019091A0
:100D6000E2019093D4018093D3018091E7018093B5
:100D7000D201089587E0E091E301F091E4019F0141
:100D80002F5F3F4F3093E4012093E3019091E00106
:100D90009083E091E501F091E6013197F093E6014F
:100DA000E093E5019091E0019083815021F708954F
:100DB0008295817090E00895AC0126E056954795A4
:100DC0002A95E1F79C0165E0369527956A95E1F74C
:100DD000242B352B96958795822B932B0895CF92B4
:100DE000DF92EF92FF922091D00920FF03C084E6AA
:100DF00091E002C084E491E0DC01909621FF1AC0EA
:100E000029EC35E0FC01C590D590E590F490B70150
:100E1000A601AB01B601F90120583F4F4193519310
:100E200061937193E217F307C9F704968A179B073A
:100E300049F715C029EC35E0FC01459155916591C4
:100E40007491F90120583F4F4193519361937193ED
:100E5000E217F307C9F704968A179B0769F7FF9013
:100E6000EF90DF90CF90089590934D0180934C01C7
:100E700010924A01109249013E9A1092C00084E0FB
:100E80008093C1009FEF9093D10090E89093CF00A2
:100E90008093720010924B010895E3EEF1E080918F
:100EA000D20184831092D20189EC95E091838083F2
:100EB00089EC99E093838283EFE4F1E01182108260
:100EC000138212821582148217821682118610866E
:100ED00088ED96E00C9434071F93CF93DF93DC01E9
:100EE00020E030E040E050E011E0C1E0D0E0261723
:100EF000370791F114968C911497811115C01496AF
:100F00001C93149712968D919C911397ED91FC91DF
:100F10001197E80FF91FE4911596EC931597019638
:100F200013969C938E93129714969C9114971596F2
:100F30008C911597892349F0FE01022E02C0EE0F15
:100F4000FF1F0A94E2F74E2B5F2B990F14969C9388
:100F500014972F5F3F4FCBCFCA01DF91CF911F91E5
:100F60000895089580E090E008952F923F924F9267
:100F70005F926F927F928F929F92AF92BF92CF9229
:100F8000DF92EF92FF920F931F93CF93DF93CDB732
:100F9000DEB76C970FB6F894DEBF0FBECDBF84E608
:100FA00096E00E94340780E88093D20183EE91E0BE
:100FB0000E94BA2180E092E8A0E0B0E08D8B9E8B89
:100FC000AF8BB88F80E090EBAFEFBFEF898B9A8B40
:100FD000AB8BBC8B80E09CE3A0E0B0E08D879E876C
:100FE000AF87B88B19861A861B861C8680E09AE02C
:100FF000A0E0B0E08D839E83AF83B88780E098E166
:10100000A0E0B0E089839A83AB83BC839E01275F15
:101010003F4FAE014B5F5F4FBE016F5F7F4F82E876
:1010200095E00E94DE199E012B5E3F4FAE014F5EA0
:101030005F4FBE01635F7F4F0E9445199091CE01C3
:10104000917083E0891B8093B50522E631E03A8FE9
:10105000298FF0EBCF2EDD24DA94ED2CFD2C00E06F
:1010600010E0812C99249A94A92CB92C8091B50573
:10107000482F50E05C8F4B8F041715070CF0EBC026
:10108000E98DFA8D80819181A281B381448155815E
:1010900066817781841B950BA60BB70B23A12111C9
:1010A00008C0B095A095909581959F4FAF4FBF4FC9
:1010B00008C024013501481A590A6A0A7B0AD3017B
:1010C000C201E2E6F1E020E030E0212C312C2017D3
:1010D000310739F1408151816281738144805580AB
:1010E00066807780441955096609770973A07110E5
:1010F00008C070956095509541955F4F6F4F7F4F39
:1011000008C024013501441A550A660A770AB3015A
:10111000A20184179507A607B7071CF44FEF241AFE
:10112000340A2F5F3F4FB4964B8C5C8C24153505E9
:1011300074F20115110509F057C08091600190917A
:101140006101019690936101809360018091CE01CD
:101150009091CF01409106015091070160910801E3
:101160007091090121143104E1F430EB632E36E073
:10117000732E7092B7056092B60501969093CF01D9
:101180008093CE01889F9001899F300D300D1124EE
:10119000E7E07E2E729EC001739E900D112445964D
:1011A00013C026EA36E03093B7052093B6052091A8
:1011B0005E0130915F012F5F3F4F30935F012093BD
:1011C0005E01880F991F0396480F591F611D711DFD
:1011D0004093060150930701609308017093090141
:1011E0004BE160EA74E003C04AE06AE176E083EE36
:1011F00091E00E94D218FC01148215821682178297
:10120000BE2DAD2D9C2D882780879187A287B3871F
:101210006CE991016203A001639F500D1124052E1A
:10122000000C660B770B762F652F542F44274083D5
:1012300051836283738380E4818B0F5F1F4F90E53E
:10124000C90ED11CE11CF11C298D3A8D2C5D3F4F3C
:101250003A8F298F0BCF6C960FB6F894DEBF0FBE76
:10126000CDBFDF91CF911F910F91FF90EF90DF9055
:10127000CF90BF90AF909F908F907F906F905F9036
:101280004F903F902F9008958091B705823088F459
:1012900085E090E09093E2018093E10181E090E0AD
:1012A0009093D4018093D3011092D2018FEF809359
:1012B000E0018091B505811103C08BE08093B505F5
:1012C0008091B50581508093B5058091B605811157
:1012D00003C08CE38093B6058091B605815080935E
:1012E000B6050E94EF0683EE91E00C94491BCF9364
:1012F000DF93CDB7DEB760970FB6F894DEBF0FBEB1
:10130000CDBF1092B50583EE91E00E94BA2180E036
:1013100092E3A0E0B0E08D879E87AF87B88B80E036
:1013200091EFAFEFBFEF89879A87AB87BC871D82AC
:101330001E821F82188619821A821B821C82BE019D
:101340006F5F7F4F82E895E00E9473189E01235FD4
:101350003F4FAE01475F5F4FBE016B5F7F4F0E9403
:1013600045194BE160EA74E083EE91E00E94D218E7
:1013700080E88093D20160960FB6F894DEBF0FBE6E
:10138000CDBFDF91CF9108950F931F93CF93DF933C
:10139000CDB7DEB7CC54D1090FB6F894DEBF0FBE7F
:1013A000CDBF83EE91E00E94BA2180E098EDAFEFCF
:1013B000BFEF2D968CAF9DAFAEAFBFAF2D9740E086
:1013C00052EE6FEF7FEF29964CAF5DAF6EAF7FAF00
:1013D000299725968CAF9DAFAEAFBFAF25972196CD
:1013E0001CAE1DAE1EAE1FAE219780E094E6A0E0BD
:1013F000B0E089AF9AAFABAFBCAF1DAA1EAA1FAABF
:1014000018AE80E091EFAFEFBFEF89AB9AABABAB1B
:10141000BCABBE016F5C7F4F82E895E00E94731801
:101420008C019E01235C3F4FAE01475C5F4FBE01C4
:101430006B5C7F4FCE0101960E94DE19AE014F5FBB
:101440005F4FB801C8010E94D4159E01275B3F4F32
:10145000AE014B5B5F4FBE016F5B7F4FC8010E94C7
:1014600045194BE160EA74E083EE91E00E94D218E6
:101470001092D20187E796E00E943407C45BDF4FE9
:101480000FB6F894DEBF0FBECDBFDF91CF911F9195
:101490000F9108952F923F924F925F926F927F9299
:1014A0008F929F92AF92BF92CF92DF92EF92FF9274
:1014B0000F931F93CF93DF93CDB7DEB762970FB62D
:1014C000F894DEBF0FBECDBF83EE91E00E94BA213B
:1014D00080E092E3A0E0B0E08F87988BA98BBA8B75
:1014E00080E09AEBAFEFBFEF8B879C87AD87BE871D
:1014F0001F82188619861A8680E09CEEAFEFBFEF38
:1015000089839A83AB83BC83BE016F5F7F4F82E880
:1015100095E00E9473189E01215F3F4FAE01455F29
:101520005F4FBE01695F7F4F0E9445191092B90558
:101530001092BA051092BB051092BC051092B50529
:101540001092B6051092B8058091CE01817093E09B
:10155000F92EF81AF092B70575E8C72E71E0D72E6C
:1015600002E611E0412C512C320163EE73E0E0EE13
:101570008E2EEBE09E2EFDEE2F2EFFE03F2EE42C74
:101580004AE083EE91E00E94D2185C01FC01E85B26
:10159000FF4F40823297411451046104710429F4D1
:1015A00031822082E0E0F1E026C0918280822091A9
:1015B000600130916101240D351D2930310510F095
:1015C00028E030E0A6E0A29FC001A39F900D112467
:1015D00089559C4FFC0145915591659174914983C2
:1015E0005A836B837C83FC013496859194919E830E
:1015F0008D83FE013196D6011C92208130E0ACE251
:10160000B1E00E949E2CD80158966D937D938D93E6
:101610009C935B9718961D921D921D921C921B978E
:101620001C961D921D921D921C921F9751961C9202
:101630001E9250978281B4E18B9FC0011124D80182
:1016400055969C938E935497838190E05D969C93DE
:101650008E935C978481B5E08B9FC0011124D801E3
:1016600057969C938E93569753969C938E9352972E
:10167000858190E05F969C938E935E97D601139739
:101680001C928181F6013297808331961082B62DAB
:10169000A52D942D8827F80180839183A283B3839D
:1016A00084839583A683B783A0EAB0E0A301920167
:1016B0000E94712CB82FA72F962F8827F5018087BD
:1016C0009187A287B3870E943029082E000C990BBE
:1016D000AA0BBB0BBA2FA92F982F8827F50180835F
:1016E0009183A283B38381E08E0D8F1568F424E289
:1016F000C20ED11C0C5D1F4F4FEF441A540A640AEE
:10170000740A6AE176E03BCF1F2D38E0C32E32E148
:10171000D32EEF2CF12C04E641E010FF03C069E961
:1017200073E002C06BE873E083EE91E00E94D21890
:10173000FC01E75BFF4F2081246020833397D18237
:10174000C082212F30E02E193F09029FA001039F84
:10175000500D1124052E000C660B770B762F652F8C
:10176000542F4427DC0118964D935D936D937C9321
:101770001B97FC0110821182128213821F5F1B30A3
:1017800058F21092D20181E996E00E9434076296E5
:101790000FB6F894DEBF0FBECDBFDF91CF911F9182
:1017A0000F91FF90EF90DF90CF90BF90AF909F9000
:1017B0008F907F906F905F904F903F902F90089503
:1017C000CF93DF93EC01488559856A857B85DB01E2
:1017D000CA019A50A109B109811520EB92072FEF98
:1017E000A207B2072CF088879987AA87BB8716C003
:1017F0005E546D4F7F4F488759876A877B870E9469
:101800003029082E000C990BAA0BBB0BBA2FA92F5D
:10181000982F882788839983AA83BB83DF91CF91F0
:101820000895CF92DF92EF92FF920F931F93CF9381
:10183000DF93CDB7DEB768970FB6F894DEBF0FBE63
:10184000CDBF8CED96E00E94340781EA9DE0909335
:10185000C8058093C70580E88093D20183EE91E0AC
:101860000E94BA2180E09EECAFEFBFEF8D8B9E8B84
:10187000AF8BB88F898B9A8BAB8BBC8B1D861E86EA
:101880001F86188A80E096EFAFEFBFEF89879A87AF
:10189000AB87BC871D821E821F82188680E09CE079
:1018A000A0E0B0E089839A83AB83BC839E01275F6D
:1018B0003F4FAE014B5F5F4FBE016F5F7F4F82E8CE
:1018C00095E00E94DE199E012B5E3F4FAE014F5EF8
:1018D0005F4FBE01635F7F4F0E944519C12CD12C21
:1018E00076014AE063EE73E083EE91E00E94D21845
:1018F0008C01BE2DAD2D9C2D8827F8018087918706
:10190000A287B3870E943029482F880F550B660B9A
:10191000770B762F652F542F4427F801408351838E
:1019200062837383FFEFDF1AEF0AFF0AC11483E0BB
:10193000D806E104F104A9F668960FB6F894DEBF64
:101940000FBECDBFDF91CF911F910F91FF90EF9010
:10195000DF90CF9008954F925F926F927F928F9217
:101960009F92AF92BF92CF92DF92EF92FF920F932E
:101970001F93CF93DF93CDB7DEB727970FB6F894B9
:10198000DEBF0FBECDBF82E090E09093D401809384
:10199000D3018091D00183FF11C023E030E0309368
:1019A000E2012093E10121E030E03093D401209363
:1019B000D3011092D2019AEA9093E00182FF1CC0F9
:1019C00080914E01882329F010924E013E983F9855
:1019D00005C03E9A3F9A81E080934E0160914E018E
:1019E00082E090E06F830E945B2C6F81681721F08A
:1019F00082E090E00E94632C03E312E0F80180850E
:101A00009185A285B385985EAF4FBF4F8087918740
:101A1000A287B3870197A440B105ACF0F801108606
:101A20001186128613860E943029082E000C990B0D
:101A3000AA0BBB0BBA2FA92F982F8827F8018083F8
:101A40009183A283B383035B1F4FF3E00A311F0727
:101A5000A9F683EE91E00E94491B84E891E09A8305
:101A600089831C821B821D821E8268E070E0CE0189
:101A700001960E946C0701966C0168E070E0CE014F
:101A800001960E946C078C0161E070E0CE01019626
:101A90000E946C07D7FC68C098012F5F3F4F37FD4D
:101AA00063C05901E3E0B594A794EA95E1F7277084
:101AB0003327232B19F02FEFA21AB20A982E66248F
:101AC0006394812C00E010E0E12CF12C77247394D6
:101AD000EA14FB040CF048C044244394512C61E008
:101AE00070E0CE0101960E946C07892B21F482E000
:101AF000480E511CF4CFB201CE0101960E946C0732
:101B0000019620E030E02817390760F5911086280B
:101B1000660C29F5A7014F5F5F4F4930510580F4EE
:101B2000003811056CF4F701F695FE2FEE27F795B6
:101B3000E795E00FF11FE753FA4F6081862A808214
:101B40000F5F1F4F0C151D053CF07A01662463944E
:101B5000812C00E010E003C066246394812C2F5F89
:101B60003F4FD1CF9724B4CF27960FB6F894DEBF5E
:101B70000FBECDBFDF91CF911F910F91FF90EF90DE
:101B8000DF90CF90BF90AF909F908F907F906F909D
:101B90005F904F9008950F931F93FC010081118176
:101BA00022813381BB2737FDBA95A32F922F812F36
:101BB000AF77BB2737FD04C040E050E0BA0104C056
:101BC00040E050E060E87FEF8A019B01082B192B71
:101BD0002A2B3B2BC901B8011F910F910895CF9378
:101BE000DF93CDB7DEB728970FB6F894DEBF0FBEF0
:101BF000CDBFFC012081318142815381FB01608195
:101C0000718182819381211531054105510529F0AA
:101C1000611571058105910521F460E070E0CB014B
:101C200011C00E94AD2C69837A838B839C83DC0175
:101C3000CB01BB0F880B982FDC018D836A817B81E0
:101C40008C819D8128960FB6F894DEBF0FBECDBF64
:101C5000DF91CF9108951F920F920FB60F9211242A
:101C60002F933F934F935F936F937F938F939F93A4
:101C7000AF93BF93EF93FF93E0914C01F0914D012F
:101C8000309761F180914E01882341F180914B01A1
:101C9000811111C08091490190914A019C012F5FEF
:101CA0003F4F30934A0120934901099580934801A1
:101CB00088E080934B018091480180FF02C0469AE2
:101CC00001C046988091480190E095958795809352
:101CD000480180914B01815080934B01FF91EF911E
:101CE000BF91AF919F918F917F916F915F914F9134
:101CF0003F912F910F900FBE0F901F901895E82FD6
:101D0000F0E0803428F4EE5FFE4FE4918E2F09C09E
:101D100087FD09C081E891E09C012E1B3F0BF90172
:101D2000849190E00895803C18F4EE57FF4F06C070
:101D300081E092E09C012E1B3F0BF901849190E021
:101D400091958195910908958F929F92AF92BF923C
:101D5000EF92FF920F931F93CF93DF939091D00157
:101D600092FF06C023E030E03093D4012093D301EA
:101D70008091B50595FF06C0811102C086E007C0BD
:101D8000815005C096FF08C08F5F873019F080939F
:101D9000B50502C01092B505E091B505F0E0EE0F73
:101DA000FF1FEE56FB4FC591D491CE010E94522CDD
:101DB0009C01220F331F820F931F20E430E0281B69
:101DC000390B3093E0092093DF091092E209109259
:101DD000E109CE010E94B12985E491E00E945E29CB
:101DE000C091B505C1111FC08BE894E00E94B129D4
:101DF0008091CE019091CF010E94D22983E894E096
:101E00000E94B12980915E0190915F010E94D229C8
:101E10008091D00183FF77C082E090E09093D4015D
:101E20008093D30170C0D0E0C150DF4F9881999F5B
:101E3000900111248AE0829F7001839FF00C11248D
:101E400048E2E40EF11C292F30E021503109229F95
:101E5000A001239F500D500D112487E0849F800125
:101E6000859F100D1124025E1F4F8091D00187FFC6
:101E70001EC04091060150910701609108017091C8
:101E800009014701A12CB12C481559056A057B05AC
:101E900070F0481959096A097B094093060150936B
:101EA000070160930801709309019F5F17C084FFC9
:101EB00017C040910601509107016091080170918F
:101EC0000901400F511F611D711D40930601509380
:101ED000070160930801709309019150988313C022
:101EE0009F3F39F08EE794E00E94B129C7010E941C
:101EF000D2298881823038F087E794E00E94B129A6
:101F0000C8010E94D2291092E0091092DF0989E3EA
:101F100090E09093E2098093E1098FE694E00E94BB
:101F2000B12960910601709107018091080190919B
:101F300009014AE00E9470298091D0090E947F0E19
:101F400023E030E0DC010E94D12C609337027093D3
:101F500038028093390290933A02309144022091E2
:101F6000B5054BED4203C0011124830F911D9595DA
:101F7000879595958795381B3093440283EE91E0C1
:101F8000DF91CF911F910F91FF90EF90BF90AF9095
:101F90009F908F900C94491B0E94EF068091D00176
:101FA00083FF06C084E090E09093D4018093D30136
:101FB0008091D0090E947F0E23E030E0DC010E9476
:101FC000D12C60933702709338028093390290933A
:101FD0003A0283EE91E00C94491B2F923F924F926C
:101FE0005F926F927F928F929F92AF92BF92CF92A9
:101FF000DF92EF92FF920F931F93CF93DF93CDB7B2
:10200000DEB760970FB6F894DEBF0FBECDBF4C01B0
:10201000FC01E85BFF4F2080312C8091D10185FDD0
:1020200008C086FF0DC050E8452E512C612C712C44
:102030000AC040E8442E55245A94652C752C03C0E0
:10204000412C512C3201F40180819181A281B38114
:102050008115F6E09F07FFEFAF07BF0764F08130FF
:102060009A4FA105B10564F030E8432E55245A94E7
:10207000652C752C05C020E8422E512C612C712C4A
:1020800084E2829DD001839DB00D1124FD01E259AF
:10209000FE4FAE59BE4F1C962D913D914D915C91D6
:1020A0001F9729873A874B875C87550F220B322F62
:1020B000A9012D873E874F87588B29853A854B8507
:1020C0005C856D85762F862F962F06E00E94E92D80
:1020D000A984BA84CB84DC84ED84FE2C0E2D1E2DC5
:1020E0000E94292E01E00E94E92D0E2D0E94292E2A
:1020F00001E00E94E92D08E00E94022E59016A01C8
:10210000B301A2014A0D5B1D6C1D7D1D1C964D93F4
:102110005D936D937C931F974115564F6F4F7F4F83
:1021200074F080819181A281B38181309A40A105B0
:10213000B1056CF080E09AE0A0E0B0E004C080E07F
:1021400096EFAFEFBFEF80839183A283B38314E256
:10215000129DC001139D900D1124FC01EE59FE4FFC
:102160007F01F4014081518162817381F70184858F
:102170009585A685B785840F951FA61FB71FF40107
:1021800080839183A283B3838091D009982F990F84
:10219000890F0E947F0E27E030E0DC010E94D12CE5
:1021A000F4016483758386839783F70124853585DD
:1021B00046855785A3E0B0E00E94712C69837A833D
:1021C0008B839C83CE0101960E94CB0DF401628B20
:1021D000C090B905D090BA05E090BB05F090BC0561
:1021E00089E190E0A0E0B0E08D839E83AF83B88763
:1021F00080819181A281B381A7019601281B390BAF
:102200004A0B5B0B29833A834B835C83BE016B5F74
:102210007F4FCE0101960E94EF0DC61AD70AE80A39
:10222000F90A8091B9059091BA05A091BB05B091CA
:10223000BC058C199D09AE09BF0989839A83AB83BC
:10224000BC83BE016F5F7F4F82E895E00E94EF0D77
:102250004090A6055090A7056090A8057090A9052C
:10226000DC01CB01840D951DA61DB71D8093A6052D
:102270009093A705A093A805B093A905BE016F5F31
:102280007F4F86E895E00E94EF0D4090AA055090A0
:10229000AB056090AC057090AD05DC01CB01840D01
:1022A000951DA61DB71D8093AA059093AB05A0931D
:1022B000AC05B093AD05BE016F5F7F4F8AE895E036
:1022C0000E94EF0D4090AE055090AF056090B005B4
:1022D0007090B105DC01CB01840D951DA61DB71DC5
:1022E0008093AE059093AF05A093B005B093B10570
:1022F000C092B905D092BA05E092BB05F092BC0538
:10230000F401E85BFF4FA081B0E08091B505811139
:102310004CC01A9FF0011B9FF00D1124EE59FE4F87
:10232000448D558D8089918924893589840F951F25
:102330002817390708F4C901918B808B84E28A9FA2
:10234000F0018B9FF00D1124EE59FE4F4084518413
:1023500062847384A3019201550F220B322FA901CD
:1023600029873A874B875C879201A3016985762F7D
:10237000862F962F06E00E94E92D52016301E98421
:10238000FE2C0E2D1E2D0E94292E01E00E94E92D0B
:102390000E2D0E94292E01E00E94E92D08E00E94E6
:1023A000022E20873187428753878091B60581119D
:1023B00016C084E28A9FF0018B9FF00D1124EE5924
:1023C000FE4F468D578D8289938926893789840FE0
:1023D000951F2817390708F4C901938B828B6096E3
:1023E0000FB6F894DEBF0FBECDBFDF91CF911F9126
:1023F0000F91FF90EF90DF90CF90BF90AF909F90A4
:102400008F907F906F905F904F903F902F900895A6
:102410004F925F926F927F928F929F92AF92BF92F4
:10242000CF92DF92EF92FF920F931F93CF93DF93A0
:10243000CDB7DEB72C970FB6F894DEBF0FBECDBF79
:102440004C01DC0118968D919D910D90BC91A02DB1
:102450008D839E83AF83B8879E51A109B109898777
:102460009A87AB87BC87F40180879187A287B3875F
:102470004080518062807380D301C201BB0F880B02
:10248000982FDC0189839A83AB83BC839201A301DB
:102490006981762F862F962F02E00E94E92D520146
:1024A0006301E980FE2C0E2D1E2D0E94292EF22F95
:1024B000E32F2A013B01B82FA92F04E00E94E92D48
:1024C00059016A017B018C012F2F3E2FA201B3011C
:1024D0008B2F9A2F0E94202E02E00E94E92D08E007
:1024E0000E94022ED4012C9311963C9311971296C0
:1024F0004C93129713965C93139714964D905D909E
:102500006D907C901797D301C201BB0F880B982F59
:10251000DC0189839A83AB83BC839201A301698127
:10252000762F862F962F02E00E94E92D520163013B
:10253000E980FE2C0E2D1E2D0E94292E722EE32ED8
:10254000F42E152FF62FE72FB82FA92F04E00E94A5
:10255000E92D59016A01062F672E582E492E272D85
:102560003E2D4F2D512F6F2F7E2F8B2F9A2FE02E28
:10257000F62C052D142D0E94202E02E00E94E92D3C
:1025800008E00E94022ED40114962C9314971596FD
:102590003C93159716964C93169717965C938985DE
:1025A0009A85AB85BC8581159C49AF4FBF4F0CF018
:1025B0005EC08D819E81AF81B8859E5FAC4FBF4F5D
:1025C000F40180879187A287B3878091B80591E055
:1025D000980F9093B8058F5B0E947F0E24EF31E037
:1025E000DC010E94D12CD4016D937D938D939C933B
:1025F00013978091B8050E947F0E24EF31E0DC0133
:102600000E94D12CF4016483758386839783809123
:10261000B2058150982FE65BFF4F8F3FF1F0282FD6
:1026200030E0220F331FD901AD51BE4F4C9150E025
:102630002081022E000C330B4217530761F0292F23
:1026400030E0220F331F2D513E4F4D915C91D90147
:102650004D935C9391508150E0CFA92FB0E0AA0F29
:10266000BB1FAD51BE4F80818C9311961C922C964E
:102670000FB6F894DEBF0FBECDBFDF91CF911F9193
:102680000F91FF90EF90DF90CF90BF90AF909F9011
:102690008F907F906F905F904F900895CF93DF93CE
:1026A00000D000D0CDB7DEB769837A838B839C835B
:1026B000CE0101960E94CB0D862F0E947F0EBC0199
:1026C000990F880B990B0F900F900F900F90DF913F
:1026D000CF910895CF93DF9300D000D0CDB7DEB770
:1026E00069837A838B839C83CE0101960E94CB0DF4
:1026F00080E4860F0E947F0EBC01990F880B990B16
:102700000F900F900F900F90DF91CF910895CF927F
:10271000DF92EF92FF920F931F93CF93DF936C01A1
:102720007A018B01C0E0D0E0CE15DF0589F0D80139
:102730006D918D01D601ED91FC910190F081E02D1C
:10274000C6010995892B11F47E0102C02196ECCFB8
:10275000C701DF91CF911F910F91FF90EF90DF9014
:10276000CF9008953FB7F8948091D6019091D7010A
:10277000A091D801B091D90126B5A89B05C02F3FE3
:1027800019F00196A11DB11D3FBFBA2FA92F982F97
:102790008827820F911DA11DB11DBC01CD0142E012
:1027A000660F771F881F991F4A95D1F708958FB13B
:1027B0002CB193B130E02095309520743327A901D6
:1027C00023E0559547952A95E1F7292F30E020958C
:1027D0003095207133273595279535952795242BEE
:1027E0008095807F822B089583B7817F83BF83B7D5
:1027F000816083BF889583B78E7F83BF08952F92B2
:102800003F924F925F926F927F928F929F92AF9280
:10281000BF92CF92DF92EF92FF920F931F93CF93CD
:10282000DF93CDB7DEB727970FB6F894DEBF0FBEA4
:10283000CDBF9B838A836A30A1F4DC015C962C9126
:102840005C9758968D919C915997B8E02B9F800D7D
:10285000911D1124EA81FB81918F808F178A168A3E
:10286000C1C06D3009F4BEC0AA81BB815C964C9199
:102870005C975B966C905B976E825A967C905A97A9
:102880007F825896CD90DC90599756968D919C9169
:10289000579780389105C4F0AA81BB815C962C9132
:1028A0005C97422F50E056968D919C915797B6E0D9
:1028B0002B9F800D911D1124EA81FB81978B868BC4
:1028C000258D21117AC08EC0F0E4CF16D10424F7F3
:1028D0009C0155E0459F200D311D11241216130651
:1028E000DCF6242E312C9601A8E04A9F200D311DE4
:1028F00011241216130684F6B5E06B9FB001112463
:10290000FB01EF53F94F2F0150E0F201B490553025
:1029100009F4B12C7601B8E09B2EB0FC02C08E8089
:1029200001C08F8081100BC06E807F80671007C050
:10293000B6949A94E20CF31C9110EFCF33C09C0133
:102940002983622F681B641798F7B701E62FEE19E9
:10295000E41728F520383105F8F460347105E0F407
:102960008B01E9EBF6E0A0E16A2E7980609ED00150
:10297000A0781124A70D0770E00FF11DA490BD836E
:10298000AC83A753BA4F882019F0EC91AE2A03C04C
:10299000A094EC91AE22AC926F5F7F4FD7CF2F5FA8
:1029A0003F4FCECF5F5F820D931D92012F5F3F4F50
:1029B0002901563009F0A9CF6FCF6AEF6403900167
:1029C000659F300D112420583F4F2817390754F4C4
:1029D0008A819B81DC01ED91FC910190F081E02DD9
:1029E0006AE0099581E090E027960FB6F894DEBF83
:1029F0000FBECDBFDF91CF911F910F91FF90EF9050
:102A0000DF90CF90BF90AF909F908F907F906F900E
:102A10005F904F903F902F90089508950E94552EFB
:102A20004091BF055091C0052091BD053091BE0574
:102A300042175307B4F49091E8009570E1F3909138
:102A4000E80092FD19C08093F1008091BF0590913C
:102A5000C00501968F739927892B19F48EEF809307
:102A6000E8008091BF059091C00501969093C00544
:102A70008093BF0581E0089580E00895615030F0B3
:102A80002091F100FC0120830196F8CF289884E67C
:102A90008093C50508958F929F92AF92BF92CF9277
:102AA000DF92EF92FF926B017C010E94B2134B0107
:102AB0005C01C114D104E104F104F1F00E94B213ED
:102AC000DC01CB0188199909AA09BB09883E93400A
:102AD000A105B10570F321E0C21AD108E108F1089F
:102AE00088EE880E83E0981EA11CB11CC114D1048D
:102AF000E104F10419F7DDCFFF90EF90DF90CF9064
:102B0000BF90AF909F908F900895BC0180E090E0BF
:102B10000C944B151F920F920FB60F9211242F9306
:102B20003F938F939F93AF93BF938091DA019091DE
:102B3000DB01A091DC01B091DD013091D50123E0F2
:102B4000230F2D3720F40196A11DB11D05C026E8E5
:102B5000230F0296A11DB11D2093D5018093DA01A8
:102B60009093DB01A093DC01B093DD018091D6014D
:102B70009091D701A091D801B091D9010196A11DE2
:102B8000B11D8093D6019093D701A093D801B09343
:102B9000D901BF91AF919F918F913F912F910F904C
:102BA0000FBE0F901F9018952F923F924F925F92F9
:102BB0006F927F928F929F92AF92BF92CF92DF924D
:102BC000EF92FF920F931F93CF93DF93CDB7DEB7B2
:102BD000C254D1090FB6F894DEBF0FBECDBF7C0141
:102BE000FB018A0180819181A281B38189A39AA38B
:102BF000ABA3BCA384859585A685B7858D8F9E8F55
:102C0000AF8FB8A3808D918DA28DB38D898F9A8F50
:102C1000AB8FBC8F84A095A0A6A0B7A0848195811E
:102C2000A681B7818D8B9E8BAF8BB88F8089918960
:102C3000A289B389898B9A8BAB8BBC8B848D958D44
:102C4000A68DB78D8D879E87AF87B88B20A531A5C0
:102C500042A553A523962CAF3DAF4EAF5FAF239750
:102C600080859185A285B38589879A87AB87BC8744
:102C700084899589A689B7898D839E83AF83B88718
:102C800080A191A1A2A1B3A189839A83AB83BC83C4
:102C900024A535A546A557A52BAF3CAF4DAF5EAFDC
:102CA000A801445F5F4F5AA749A79801285E3F4F8C
:102CB0003CA72BA7485E5F4F5EA74DA7180154E0C5
:102CC000250E311C2850310938AB2FA7A801445ECE
:102CD0005F4F5AAB49AB285E3F4F3CAB2BAB680113
:102CE00038E0C30ED11C485051095EAB4DAB980182
:102CF000205E3F4F38AF2FAB485E5F4F5AAF49AFB2
:102D0000B601CE0149960E94EF0D2B013C01B101A5
:102D1000CE014D960E94EF0D6DA37EA38FA398A7C1
:102D2000B801CE0181960E94EF0D2DA13EA14FA1C9
:102D300058A5260F371F481F591F420E531E641EE9
:102D4000751ED7014D925D926D927C9213976DA97D
:102D50007EA9CE0149960E94EF0D2B013C016FA583
:102D600078A9CE014D960E94EF0D6DA37EA38FA38F
:102D700098A769A57AA5CE0181960E94EF0D2DA195
:102D80003EA14FA158A5260F371F481F591F420EBD
:102D9000531E641E751ED7011C964D925D926D9256
:102DA0007C921F976FA978ADCE0149960E94EF0DD6
:102DB0002B013C0169A97AA9CE014D960E94EF0D25
:102DC0006DA37EA38FA398A76BA57CA5CE0181964A
:102DD0000E94EF0D2DA13EA14FA158A5260F371F30
:102DE000481F591F420E531E641E751ED701589668
:102DF0004D925D926D927C925B9769AD7AADCE01FA
:102E000049960E94EF0D2B013C016BA97CA9CE01D4
:102E10004D960E94EF0D6DA37EA38FA398A76DA57D
:102E20007EA5CE0181960E94EF0D2DA13EA14FA15E
:102E300058A5260F371F481F591F420E531E641EE8
:102E4000751E840C951CA61CB71CD70194968D92F8
:102E50009D92AD92BC929797B601CE010D960E94BD
:102E6000EF0D4B015C01B101CE0141960E94EF0DC7
:102E70002B013C01B801CE0145960E94EF0D460E94
:102E8000571E681E791E840C951CA61CB71CF701E2
:102E900084829582A682B7826DA97EA9CE010D9605
:102EA0000E94EF0D4B015C016FA578A9CE01419600
:102EB0000E94EF0D2B013C0169A57AA5CE01459634
:102EC0000E94EF0D460E571E681E791E840C951C3D
:102ED000A61CB71CD70150968D929D92AD92BC92C4
:102EE00053976FA978ADCE010D960E94EF0D4B015F
:102EF0005C0169A97AA9CE0141960E94EF0D2B01D0
:102F00003C016BA57CA5CE0145960E94EF0D460EB7
:102F1000571E681E791E840C951CA61CB71CF70151
:102F2000848E958EA68EB78E69AD7AADCE010D9644
:102F30000E94EF0D4B015C016BA97CA9CE0141966B
:102F40000E94EF0D2B013C016DA57EA5CE0145969B
:102F50000E94EF0D460E571E681E791E840C951CAC
:102F6000A61CB71C23962CAD3DAD4EAD5FAD23978F
:102F7000820E931EA41EB51ED70198968D929D9227
:102F8000AD92BC929B97B601CE0101960E94EF0DC7
:102F90004B015C01B101CE0105960E94EF0D2B01A2
:102FA0003C01B801CE0109960E94EF0D460E571E56
:102FB000681E791E840C951CA61CB71CF701808620
:102FC0009186A286B3866DA97EA9CE0101960E9444
:102FD000EF0D4B015C016FA578A9CE0105960E940B
:102FE000EF0D2B013C0169A57AA5CE0109960E943F
:102FF000EF0D460E571E681E791E840C951CA61CEC
:10300000B71CD70154968D929D92AD92BC92579762
:103010006FA978ADCE0101960E94EF0D4B015C01C6
:1030200069A97AA9CE0105960E94EF0D2B013C01FA
:103030006BA57CA5CE0109960E94EF0D460E571E8A
:10304000681E791E840C951CA61CB71CF70180A273
:1030500091A2A2A2B3A269AD7AADCE0101960E945F
:10306000EF0D4B015C016BA97CA9CE0105960E9476
:10307000EF0D2B013C016DA57EA5CE0109960E94A6
:10308000EF0DDC01CB01840D951DA61DB71D880D2C
:10309000991DAA1DBB1D2BAD3CAD4DAD5EAD820F84
:1030A000931FA41FB51FF70184A795A7A6A7B7A7CD
:1030B000C701CE5BDF4F0FB6F894DEBF0FBECDBFAA
:1030C000DF91CF911F910F91FF90EF90DF90CF9004
:1030D000BF90AF909F908F907F906F905F904F9038
:1030E0003F902F900895CF92DF92EF92FF920F932F
:1030F0001F93CF93DF93EC018B01FB016081718102
:10310000828193810E946A136B017C01F8016081C6
:103110007181828193810E944E1300E011E020E0D2
:1031200030E0088319832A833B831C861D861E8614
:103130001F86188E198E1A8E1B8E1C821D821E826F
:103140001F82C88AD98AEA8AFB8A00271127980138
:10315000061B170B280B390B0C8F1D8F2E8F3F8FE3
:10316000188619861A861B866C8B7D8B8E8B9F8B9F
:10317000C8A2D9A2EAA2FBA21CA61DA61EA61FA633
:1031800018A619A61AA61BA61CA21DA21EA21FA243
:10319000CE01DF91CF911F910F91FF90EF90DF90C3
:1031A000CF900895CF92DF92EF92FF920F931F93EB
:1031B000CF93DF93EC018C0100531C4FF801208169
:1031C000FDE42F9F90011124D901A05BBF4FA80FF0
:1031D000B91F1D921D921D921C92139714961D9259
:1031E0001D921D921C92179718961D921D921D926A
:1031F0001C921B97C12CD12C7601D3941C96CD9296
:10320000DD92ED92FC921F972C0F3D1F790189E909
:10321000E80EF11CF7011082F997108231961082A6
:1032200031961082F49611821082F3974083319682
:1032300071836083F8019081F901E656FF4F908316
:1032400032971082F701108220E0BE0161537C4F5B
:10325000241771F0FB01808131E0380F3083FE01CB
:10326000E80FF11DE80FF11D908321832F5FF0CF50
:103270009F5FF8019083CD01DF91CF911F910F9156
:10328000FF90EF90DF90CF9008954F925F926F92F2
:103290007F928F929F92AF92BF92CF92DF92EF92E6
:1032A000FF920F931F93CF93DF93EC018B015A0191
:1032B0004901B90148960E94EF0D6B017C01B501EF
:1032C000CE010C960E94EF0D2B013C01B801CE01FE
:1032D0000E94EF0D460E571E681E791EC40CD51CA9
:1032E000E61CF71C8CA19DA1AEA1BFA1C80ED91EE2
:1032F000EA1EFB1ECCA2DDA2EEA2FFA2B401CE010B
:103300004C960E94EF0D6B017C01B501CE014096F9
:103310000E94EF0D2B013C01B801CE0104960E94E2
:10332000EF0D460E571E681E791EC40CD51CE61CF8
:10333000F71C88A599A5AAA5BBA5C80ED91EEA1E8B
:10334000FB1EC8A6D9A6EAA6FBA6B401CE018096AC
:103350000E94EF0D6B017C01B501CE0144960E94E5
:10336000EF0D4B015C01B801CE0108960E94EF0DF4
:10337000860E971EA81EB91EC80CD91CEA1CFB1C81
:103380008CA59DA5AEA5BFA5C80ED91EEA1EFB1E25
:10339000CCA6DDA6EEA6FFA6CE01DF91CF911F91B0
:1033A0000F91FF90EF90DF90CF90BF90AF909F90E4
:1033B0008F907F906F905F904F900895AF92BF92E3
:1033C000CF92DF92EF92FF920F931F93CF93DF93F1
:1033D000CDB7DEB7A4970FB6F894DEBF0FBECDBF52
:1033E0008C015B016A017901FB016081718182813D
:1033F00093810E946A136D8F7E8F8F8F98A3F50142
:1034000060817181828193810E944E13698F7A8FCE
:103410008B8F9C8FF60160817181828193810E94E4
:103420006A136D8B7E8B8F8B988FF6016081718113
:10343000828193810E944E13698B7A8B8B8B9C8B3C
:10344000F70160817181828193810E946A136D8787
:103450007E878F87988BF70160817181828193814C
:103460000E944E1369877A878B879C87BE016F5EA7
:103470007F4FCE014D960E94EF0D6D837E838F832B
:103480009887BE016F5E7F4FCE0149960E94EF0D77
:1034900069837A838B839C83BE01635F7F4FCE01F8
:1034A00045960E94EF0DF8016083718382839383B8
:1034B0008D899E89AF89B88DB095A095909581959D
:1034C0009F4FAF4FBF4F89A39AA3ABA3BCA3BE012D
:1034D000675F7F4FCE0181960E94EF0DF8016483F4
:1034E00075838683978389899A89AB89BC89B095CE
:1034F000A095909581959F4FAF4FBF4F8087918743
:10350000A287B387BE01675F7F4FCE014D960E94B1
:10351000EF0D6B017C0189819A81AB81BC81B095F3
:10352000A095909581959F4FAF4FBF4F89A39AA3C8
:10353000ABA3BCA3BE01635F7F4FCE0181960E9407
:10354000EF0DC60ED71EE81EF91EF801C486D586FB
:10355000E686F786BE01635F7F4FCE014D960E94DF
:10356000EF0D6B017C01BE01675F7F4FCE010196BD
:103570000E94EF0DC60ED71EE81EF91EF801C08A84
:10358000D18AE28AF38A898D9A8DAB8DBC8DB095F4
:10359000A095909581959F4FAF4FBF4F89A39AA358
:1035A000ABA3BCA3BE016B5E7F4FCE0181960E9490
:1035B000EF0DF801648B758B868B978BBE01675F6F
:1035C0007F4FCE0149960E94EF0D6B017C01BE0139
:1035D000635F7F4FCE0105960E94EF0DC60ED71E8A
:1035E000E81EF91EF801C08ED18EE28EF38EBE0168
:1035F000635F7F4FCE0149960E94EF0D6B017C0106
:103600008D819E81AF81B885B095A095909581956B
:103610009F4FAF4FBF4F89A39AA3ABA3BCA3BE01DB
:10362000675F7F4FCE0181960E94EF0DC60ED71EB9
:10363000E81EF91EF801C48ED58EE68EF78EBE0107
:103640006B5E7F4FCE014D960E94EF0DF80160A397
:1036500071A382A393A314A615A616A617A610A657
:1036600011A612A613A614A215A216A217A2C8018B
:10367000A4960FB6F894DEBF0FBECDBFDF91CF91F9
:103680001F910F91FF90EF90DF90CF90BF90AF9080
:1036900008952F923F924F925F926F927F928F92F6
:1036A0009F92AF92BF92CF92DF92EF92FF920F93D1
:1036B0001F93CF93DF93CDB7DEB7CC56D1090FB6AA
:1036C000F894DEBF0FBECDBF1C0110E09C0120535B
:1036D0003C4FAD963FAF2EAFAD970DE46C0131E698
:1036E000C31A3CEFD30AAD96EEADFFADAD97808126
:1036F000181708F025C2E12EF12C0E9DC0010F9D78
:10370000900D11244C0140E5840E911C820C931CF9
:10371000820D931DFC01EA56FF4F0190F081E02DD0
:10372000309711F0C40109950E9DA0010F9D500D19
:1037300011245101A40EB51EF501E756FF4F8081FB
:1037400081FDFCC17A0186E6E80EF11CE20CF31C57
:10375000F601D501AA59BF4F80E301900D928A95D9
:10376000E1F79A01285A3F4F220D331D4C5A5F4F03
:10377000420D531DB401C7010E944519F501EF59CF
:10378000FF4F8080882009F4A3C1912CA12CB12C7B
:10379000BA2CA92C982C8824C501B4010E946A1364
:1037A00061966CAF7DAF8EAF9FAF6197C501B401DD
:1037B0000E944E132D966CAF7DAF8EAF9FAF2D97AD
:1037C000D7018D909D90AD90BC90139729968CAEAB
:1037D0009DAEAEAEBFAE29971C964D905D906D909C
:1037E0007C901F9758968D909D90AD90BC905B9764
:1037F00025968CAE9DAEAEAEBFAE259794968D90BD
:103800009D90AD90BC90979714962D913D914D91C0
:103810005C91179721962CAF3DAF4EAF5FAF2197CC
:1038200050962D913D914D915C91539765962CAF9B
:103830003DAF4EAF5FAF65975C962D913D914D9139
:103840005C915F9729AF3AAF4BAF5CAF98962D91E3
:103850003D914D915C919B9769962CAF3DAF4EAFDA
:103860005FAF699718962D913D914D915C911B9793
:103870002DAB3EAB4FAB58AF54962D913D914D9132
:103880005C915797A3962CAF3DAF4EAF5FAFA39718
:1038900090962D913D914D915C91939729AB3AABC8
:1038A0004BAB5CAB9C962D913D914D915C919F975C
:1038B000AB962CAF3DAF4EAF5FAFAB979B01AC016A
:1038C00088279927DC01821B930BA40BB50B8983F6
:1038D0009A83AB83BC83BE016F5F7F4FCE018F5B4A
:1038E0009F4F0E94EF0D6D966CAF7DAF8EAF9FAF77
:1038F0006D97BE01635B7F4FCE018B5B9F4F0E9434
:10390000EF0D6D962CAD3DAD4EAD5FAD6D97260FB5
:10391000371F481F591FF701208331834283538388
:103920004486558666867786BE01635B7F4FCE01EF
:103930008F5B9F4F0E94EF0D2B013C01BE01675B27
:103940007F4FCE018B5B9F4F0E94EF0D460E571E9F
:10395000681E791EF701408E518E628E738E84A28E
:1039600095A2A6A2B7A22D968CAD9DADAEADBFAD72
:103970002D97B095A095909581959F4FAF4FBF4FD4
:1039800089839A83AB83BC83BE016F5F7F4FCE0177
:10399000C9960E94EF0D4B015C01BE01635B7F4F36
:1039A000CE01CD960E94EF0D860E971EA81EB91E61
:1039B000F70184829582A682B78265962CAD3DADD3
:1039C0004EAD5FAD6597208B318B428B538BBE0123
:1039D000635B7F4FCE01C9960E94EF0D4B015C01E6
:1039E000BE01675B7F4FCE01CD960E94EF0DDC01DB
:1039F000CB01880D991DAA1DBB1DF701848F958FE2
:103A0000A68FB78F69962CAD3DAD4EAD5FAD699772
:103A100020A731A742A753A72D968CAD9DADAEAD83
:103A2000BFAD2D97B095A095909581959F4FAF4FC5
:103A3000BF4F89839A83AB83BC83BE016F5F7F4F87
:103A4000CE01C1960E94EF0D4B015C01BE01635B8C
:103A50007F4FCE01C5960E94EF0DDC01CB01880D92
:103A6000991DAA1DBB1DF70180879187A287B38787
:103A7000A3962CAD3DAD4EAD5FADA397248B358B9A
:103A8000468B578BBE01635B7F4FCE01C1960E9470
:103A9000EF0D4B015C01BE01675B7F4FCE01C59608
:103AA0000E94EF0DDC01CB01880D991DAA1DBB1DE5
:103AB000F70180A391A3A2A3B3A3AB962CAD3DAD18
:103AC0004EAD5FADAB9724A735A746A757A736C025
:103AD000F501EE59FF4F8081882381F190E0A0E04D
:103AE000B0E0BA2FA92F982F882789AF9AAFABAF34
:103AF000BCAF1DAA1EAA1FAA18AE3297808190E003
:103B0000A0E0B0E0BA2FA92F982F882789AB9AABF5
:103B1000ABABBCAB9E01275C3F4FAE014B5C5F4F34
:103B2000BE016F5C7F4FCE0101960E94DE19AE018F
:103B30004F5F5F4FB701C7010E94D4151F5FD3CD00
:103B40006A961FAE6A97810101531C4FAD961FAF55
:103B50000EAFAD97AD96EEADFFADAD9780816A9695
:103B6000FFAD6A97F81708F08FC351016A961FAD31
:103B70006A97A10EB11CA10EB11CD501BC91629631
:103B8000BFAF6297BF3F09F45EC2F501F181A09615
:103B9000FFAFA097EB2EF12C6796FFAEEEAE6797C6
:103BA00041010DE40B9F800C911C1124F401EC5990
:103BB000FF4F808191819C01A096EFACA0974EE0D1
:103BC000E49E200D311D1124F901659175918591B7
:103BD000949169837A838B839C83F9013496E59071
:103BE000F59005911491AB96ECAEFDAE0EAF1FAF04
:103BF000AB97ED82FE820F831887F90138964590C6
:103C000055906590749049865A866B867C86F9013A
:103C10003C96E491ED87F9013D9614911E87F401DD
:103C2000E45AFF4FC080D180E280F380C11401E0EC
:103C3000D006E104F104E1F1A70196010E94D82C1D
:103C400008E00E94022E29833A834B835C83AB9663
:103C50006CAD7DAD8EAD9FADAB97A70196010E9477
:103C6000D82C0E94022E2D833E834F835887C30198
:103C7000B201A70196010E94D82C0E94022E29872A
:103C80003A874B875C87F401E756FF4F808183FDBD
:103C90000FC0A12FB0E0A70196010E94712C69AB63
:103CA0007AAB8BAB9CABCE01C1960E94CB0D6E87DD
:103CB0000DE46796EEACFFAC67970E9D40010F9D3B
:103CC000900C112484010A591F4F020D131D898184
:103CD0009A81AB81BC8189AF9AAFABAFBCAF8D810C
:103CE0009E81AF81B8858DAB9EABAFABB8AF8985F8
:103CF0009A85AB85BC8589AB9AABABABBCABBE013F
:103D00006F5C7F4FC80148960E94EF0D6B017C01EC
:103D1000BE016B5C7F4FC8010C960E94EF0D2B011A
:103D20003C01BE01675C7F4FC8010E94EF0D460E4B
:103D3000571E681E791E4C0C5D1C6E1C7F1CF80102
:103D400084A195A1A6A1B7A1480E591E6A1E7B1E8B
:103D500049825A826B827C82BE016F5C7F4FC801B0
:103D60004C960E94EF0D6B017C01BE016B5C7F4F96
:103D7000C80140960E94EF0D2B013C01BE01675C1B
:103D80007F4FC80104960E94EF0D460E571E681E15
:103D9000791E4C0C5D1C6E1C7F1CF80180A591A542
:103DA000A2A5B3A5480E591E6A1E7B1E4D825E82D7
:103DB0006F827886BE016F5C7F4FC80180960E943B
:103DC000EF0D6B017C01BE016B5C7F4FC801449617
:103DD0000E94EF0D2B013C01BE01675C7F4FC801C3
:103DE00008960E94EF0DDC01CB01840D951DA61DE8
:103DF000B71D8C0D9D1DAE1DBF1DF80144A455A41B
:103E000066A477A4480E591E6A1E7B1E49865A86F0
:103E10006B867C86CE0101960E94CB0D7101E80C69
:103E2000F91CF701E556FF4F6083CE0105960E940D
:103E3000CB0DF701E456FF4F6083141415041604EC
:103E400017040CF000C16A96FFAD6A97FF2361F07A
:103E5000A796ECACFDAC0EAD1FADA797E414F5042E
:103E6000060517050CF4F7C00DE46796EEACFFAC41
:103E700067970E9DF0010F9DF00D1124E20DF31DCB
:103E8000E756FF4F1081A4961FAFA497D301C2013C
:103E9000905CAF4FBF4FAC01BD01770F440B542F67
:103EA000BA015C016D01E42EF42E042F142F20E0E2
:103EB00030E040E450E060E070E080E090E00E949C
:103EC000142D2DAB3EAB4FAB58AFBE016B5C7F4F9B
:103ED000CE0101960E94EF0DDC01CB01905CAF4F4B
:103EE000BF4F89AB9AABABABBCABCE01C1960E94C6
:103EF000CB0D65966CAF7DAF8EAF9FAF6597639628
:103F0000EEACFFAC63976F96FFAEEEAE6F97BE015F
:103F10006B5C7F4FCE0105960E94EF0D00E010E232
:103F200020E030E0061B170B280B390B09AB1AAB4E
:103F30002BAB3CABCE01C1960E94CB0D69966CAF0A
:103F40007DAF8EAF9FAF6997AE852DA93EA94FA9D2
:103F500058ADB0E00E94712C69AB7AAB8BAB9CABD7
:103F6000CE01C1960E94CB0DAB01BC014A015B01A1
:103F7000B594A7949794879463962EAD3FAD6397BD
:103F8000C901330FAA0BBB0B88199909AA09BB09F0
:103F90006C017D01C40ED51EE61EF71EB7FF03C0DF
:103FA00080E090E0DC0131E8C316D104E104F104C3
:103FB0002CF020E8C22ED12CE12CF12C8C159D0583
:103FC000AE05BF05A4F56796EEACFFAC6797A1966A
:103FD000FFAEEEAEA197C701FF0CAA0BBB0B881971
:103FE0009909AA09BB096C017D01B7FF03C0C12C67
:103FF000D12C7601840F951FA61FB71F8134910520
:10400000A105B10524F080E490E0A0E0B0E0C8167E
:10401000D906EA06FB065CF44530510561057105D9
:1040200084F1A4961FADA49710FD2BC068C0A7967D
:104030004CAE5DAE6EAE7FAEA7976A96AFAD6A9797
:104040006E96AFAF6E976A96BFAD6A97BF5F6A967E
:10405000BFAF6A977FCDF1016E96EFAC6E97EE0D14
:10406000F11DEE0DF11D80819181D5018D939C9301
:104070006296EFAC6297E082A096FFACA097F182C7
:10408000F3CE8C019D010C191D092E093F0969967B
:104090000CAF1DAF2EAF3FAF699765961CAE1DAE3E
:1040A0001EAE1FAE659765968CAD9DADAEADBFAD36
:1040B000659788169906AA06BB060CF463C062963B
:1040C0006FAD629761950D8566962FAD6697A601D7
:1040D0006F968EAD9FAD6F970E94952665962CAD1D
:1040E0003DAD4EAD5FAD65972F5F3F4F4F4F5F4F7B
:1040F00065962CAF3DAF4EAF5FAF6597D4CF1D85B2
:10410000882D90E0A4962FADA49722FF74C0DD24E3
:10411000D394D80C6796EEACFFAC6797E81AF90A0F
:10412000212F4D2DB70163968EAD9FAD63970E94F1
:104130000A26012F2D2DA70161E063968EAD9FAD5C
:1041400063970E9495262D2DA70162E063968EADA0
:104150009FAD63970E9495262D2DA70163E063967E
:104160008EAD9FAD63970E949526FF24F394F818B7
:10417000E82CE194EE0CD82CCC24C3948FEF8C0D5A
:104180008D156CF0A7964CAE5DAE6EAE7FAEA79768
:104190006A969FAD6A976E969FAF6E9754CFF7FC65
:1041A00004C0DA94E394E394FE0CBB24B394BC0CF7
:1041B000FB0C012F21E02D0DA1964EAD5FADA19717
:1041C0004D195109D7FC53956C2D6F968EAD9FAD4F
:1041D0006F970E946227A1964EAD5FADA1974C19D3
:1041E00051092B2D6D2D6F968EAD9FAD6F970E944F
:1041F0006227CB2CC3CF482D440F4F5F67966EAD1F
:104200007FAD6797681B790B212F63968EAD9FADAD
:1042100063970E940A26FF24F394F818E82CE1948F
:10422000EE0CD82C83E0B82EC12CCD140CF0AACF04
:10423000F7FC04C0DA94E394E394FE0CC394FB0C03
:104240002D2D220F2F5F012FA1964EAD5FADA197AF
:104250004D195109D7FC53956C2D6F968EAD9FADBE
:104260006F970E949526A1964EAD5FADA1974C1910
:1042700051092B2D6D2D6F968EAD9FAD6F970E94BE
:104280009526B394B394D1CFC459DF4F0FB6F894A9
:10429000DEBF0FBECDBFDF91CF911F910F91FF9079
:1042A000EF90DF90CF90BF90AF909F908F907F90D6
:1042B0006F905F904F903F902F900895EF92FF92F4
:1042C0000F931F93CF93DF931F92CDB7DEB788E292
:1042D00090E09093E0098093DF091092E209109238
:1042E000E1098091B6059091B7050E94B1298091AE
:1042F000D00183FF11C083E090E09093E2018093AE
:10430000E10181E090E09093D4018093D301109279
:10431000D2018AEA8093E00107E312E040E0E12C59
:10432000F12C8091B50590E0E816F906C4F480916F
:10433000D009840F49830E947F0E2AE030E0DC011F
:104340000E94D12CF8016083718382839383FFEFF5
:10435000EF1AFF0A035B1F4F4981455EE2CF83EEF0
:1043600091E00F90DF91CF911F910F91FF90EF900F
:104370000C94491BFC01E153FC4F108231961082D2
:1043800031961082FC01805B9F4F2FEF2083329685
:10439000E817F907D9F70895CF93DF931F92CDB7A8
:1043A000DEB76983DC01ED91FC910280F381E02DA1
:1043B00041E050E0BE016F5F7F4F09950F90DF91A4
:1043C000CF91089583E08093E9008091F2008823E3
:1043D00019F08AE38093E8000895FC0184859585AF
:1043E00097FD0BC09FB7F89482E08093E90080911D
:1043F000F2009FBF90E0019608959FB7F89482E085
:104400008093E9008091F2009FBF90E008958F9221
:104410009F92AF92BF92CF92DF92EF92FF920F9353
:104420001F93CF93DF935C016B017A018091170199
:10443000882309F45BC08091C605882309F456C01F
:104440008091C30580FF05C08091E0008260809369
:10445000E000E70110E00AEF83E0882E9AE3992E4E
:104460002097D9F10E940E2A81110AC0015009F447
:104470003DC061E070E080E090E00E944B15F0CF1D
:10448000282F30E0C217D3070CF48C2F4FB7F894C5
:104490008092E9009091E80095FF1DC0282F30E040
:1044A000C21BD30BF601982F915020F0819180937D
:1044B000F100FACFC20ED31E112319F09092E8003A
:1044C00009C08091E80085FD06C09092E80011E0E7
:1044D000209709F010E04FBFC3CF1111C3CF5D98F3
:1044E00084E68093C4051E141F0444F081E090E02C
:1044F000F5019383828380E090E001C0C701DF91E2
:10450000CF911F910F91FF90EF90DF90CF90BF90D0
:10451000AF909F908F9008950E940E2A90E008958A
:10452000CF93DF931F92CDB7DEB7FC0184859585CD
:1045300097FD05C02FEF3FEF358724870BC0CE01D5
:1045400001960E94E429019719F4898190E002C044
:104550008FEF9FEF0F90DF91CF9108950F931F93EF
:10456000CF93DF931F92CDB7DEB78C01FC0184851A
:10457000958597FF0EC0CE0101960E94E429019710
:1045800019F4298130E002C02FEF3FEFF8013587A1
:104590002487F801848595850F90DF91CF911F9135
:1045A0000F910895CF92DF92EF92FF920F931F9396
:1045B000CF93DF931F92CDB7DEB7182F062FE42ECF
:1045C000862F880F8E5F99830E94101583E00E94CA
:1045D0001015F12EC12E9981D92E8C2D8F1980178F
:1045E00098F4F601E7FE02C0849101C080810E9428
:1045F0001015182F80E00E9410158123FFEFCF1AAD
:10460000DF0A8111EACF01C081E00F90DF91CF91E5
:104610001F910F91FF90EF90DF90CF900895DF9260
:10462000EF92FF920F931F93CF93DF93D82E8A01BF
:104630007B01E40EF51EEB01CE15DF0571F0D7FE10
:1046400003C0FE01849101C088810E94101521964B
:104650008111F2CF8FEF9FEF01C0C801DF91CF91A1
:104660001F910F91FF90EF90DF9008950F931F938C
:10467000CF93DF931F92CDB7DEB782E0898342E408
:1046800050E06AEE7BE080E80E940F230E941F2A20
:10469000DC0112960D911C9113970115110569F01B
:1046A000D801ED91FC910280F381E02DBE016F5F96
:1046B0007F4FC801099597FF07C089810F90DF914F
:1046C000CF911F910F910895F80100851185E5CFD5
:1046D0001F920F920FB60F9211248F939F93809188
:1046E000E1009091E100937F9093E10083FF0FC080
:1046F0001092E90091E09093EB001092EC0092E3AD
:104700009093ED001092C60598E09093F00082FF20
:1047100020C093E09093E9009091F200992319F062
:104720009AE39093E8009091C405992339F0909111
:10473000C40591509093C405992389F19091C505C2
:10474000992339F09091C50591509093C50599230F
:1047500041F184FF10C08091E2008E7E81608093E1
:10476000E2008091E1008F7E8093E1008091C3059B
:104770008E7E806111C080FF16C08091E2008E7E27
:1047800080618093E2008091E1008E7E8093E10061
:104790008091C3058E7E81608093C30504C05D9ABD
:1047A000CDCF289AD6CF9F918F910F900FBE0F90AB
:1047B0001F9018951F920F920FB60F921124CF924F
:1047C000DF92EF92FF920F931F932F933F934F939C
:1047D0005F936F937F938F939F93AF93BF93EF9369
:1047E000FF93CF93DF93CDB7DEB76C97DEBFCDBF1E
:1047F0001092E9008091E80083FFEDC168E0CE01EE
:1048000045960E943E1582EF8093E8008D8987FFD0
:1048100005C09091E80090FFFCCF03C09EEF9093FD
:10482000E800982F907609F0C6C09E892F89188DD0
:1048300091110CC0803829F48091C2058093F10059
:1048400002C01092F1001092F10048C1422F50E0D6
:10485000512B913051F4811141C14130510509F082
:104860003DC18091C2058D7F0BC0933061F48111F1
:1048700035C14130510509F031C18091C2058260D6
:104880008093C2052BC1953041F48091E80080FFF0
:10489000FCCF20682093E30021C1963009F05FC06F
:1048A000EB8CFC8C1092E9001092C0051092BF05B1
:1048B000123091F51092BE051092BD050E9436236C
:1048C00099E0BE016F5F7F4FDB01E92F1D92EA95F2
:1048D000E9F799831A8391E09E8390EA98879AEF8B
:1048E00099872091BF053091C005275F3F4F3C83DA
:1048F0002B838D831092E9001092C0051092BF05A2
:10490000F092BE05E092BD0549E050E080E00E94D3
:104910000F230E943623E2C0F092BE05E092BD054F
:104920000E941F2ADC011296ED90FC901397E1146F
:10493000F10409F4C0C0D701ED91FC910480F58128
:10494000E02DBE016B5E7F4FC7010995009719F0FE
:104950000CF0C4C0C7C0F701E084F184E8CF973001
:1049600009F4C0C0983021F481E08093F100B6C012
:10497000993009F0B3C0837009F0B4C0E9E1F1E007
:1049800081E021E036E39081992361F08093E90092
:104990002093EB0091919093EC003093ED008F5FAA
:1049A000873089F78EE78093EA001092EA008F89BA
:1049B0008093C60593C08B8D9C8D1092E900109258
:1049C000C0051092BF059093BE058093BD05898DEB
:1049D000811156C08E899D89913A59F4813209F02E
:1049E00081C047E050E060E171E080E00E940F2369
:1049F00075C0913209F076C0833289F4888D90E0D9
:104A0000982F88272F89822BA0E0B0E080930C019B
:104A100090930D01A0930E01B0930F015FC08032FF
:104A200069F48091E80082FFFCCF67E080E191E0CB
:104A30000E943E158BEF8093E80006C0823209F099
:104A40004DC08F89809317018091C105882319F08B
:104A5000EEEFFAE002C0E0E0F8E080911001909102
:104A60001101A0911201B0911301803B9440A10566
:104A7000B10509F07BC08091170180FF93C076C01B
:104A80000E941F2ADC0112960D911C9113970115AB
:104A9000110541F1D801ED91FC910190F081E02DDB
:104AA000BE016B5E7F4FC8010995811117C0F801E7
:104AB00000851185ECCF113009F44EC0133091F40C
:104AC0008F89882309F445C0823081F440E860E191
:104AD0008EE49CE00E94D222882321F08EEF809306
:104AE000E80079C081E28093EB0075C0813029F441
:104AF00040E86BE082E49CE0EDCF833099F70E94C0
:104B00001F2ADC011296ED90FC9013978E010F5F27
:104B10001F4F6801E114F10479F0D701ED91FC9188
:104B20000680F781E02DB801C7010995080F111D16
:104B3000F701E084F184EECFD8011C92F6010190D8
:104B40000020E9F73197BF016C197D0940E0C601EB
:104B5000C1CF6CE27CE002C060E37CE061157105CE
:104B600009F2FB01449150E080E840CF0FB6F89481
:104B7000A895809160008861809360001092600029
:104B80000FBEA895EE3F2AE0F20739F08091FE0AA9
:104B90009091FF0A91838083A1CF1092FF0A109217
:104BA000FE0A9CCFEE3F8AE0F80731F080819181C8
:104BB0009093FF0A8093FE0A87E797E791838083AB
:104BC0009BE088E10FB6F894A895809360000FBE33
:104BD0009093600083CF6C960FB6F894DEBF0FBE43
:104BE000CDBFDF91CF91FF91EF91BF91AF919F9199
:104BF0008F917F916F915F914F913F912F911F9175
:104C00000F91FF90EF90DF90CF900F900FBE0F901D
:104C10001F901895CF93DF938038910508F082C0DC
:104C2000603471050CF07EC077FF08C0FB01E40F13
:104C3000F11DF7FD77C0460F60E070E0FB01E40F67
:104C4000F11DE134F10514F040E4461BA1E0B0E0B1
:104C50002F3F11F4A0E0B0E0E22FF0E0EA23FB23C5
:104C6000EF2B41F02091D009280F20FD02C025E54F
:104C700001C02AEA362F36953695369550E8359F8D
:104C8000800D911D1124EC01C753DA4F677021F19B
:104C9000A42FB0E0862F90E0E8E0F0E0E81BF90BED
:104CA000AE17BF0744F4A80FB91FFD01E859F34F31
:104CB000A49140E003C06850460FAFEFFC01E15AF9
:104CC000F34FE491EA23AE2FA0958881A823E22335
:104CD000EA2BE883C058DF4FFE01842F883028F08C
:104CE0002083E058FF4F8850F9CF842F8695869512
:104CF000869560E8869FC00DD11D1124477091F004
:104D000088E090E0BC01641B71098FEF90E002C065
:104D1000959587956A95E2F7282380959881892350
:104D2000282B2883DF91CF910895EF92FF920F9364
:104D30001F93CF93DF93DC01C62FBA01422F202FA0
:104D4000EC2F0C2E000CFF0B8E0F9F1F8D010E1BE6
:104D50001F0BF8018038910510F4C11102C0CF017A
:104D600003C00038110540F0DF91CF911F910F91E2
:104D7000FF90EF900C940A26603471050CF09BC0F4
:104D8000C7FDC1950C2E000CDD0BFD01EC1BFD0BCE
:104D90007E01EE0CFF1C3E2D77FF08C0CB01840F77
:104DA000911D97FD88C0460F60E070E0CB01840F35
:104DB000911D8134910514F040E4461B213041F4EB
:104DC0009091D0099E0F90FD02C025E501C02AEA0E
:104DD000DB01A87FBB2784E0AA0FBB1F8A95E1F700
:104DE000AE0FBF1FA753BA4F677079F1842F90E0C1
:104DF000062F10E0E8E0F0E0E01BF10B8E179F07B4
:104E000044F4800F911FFC01E859F34F849140E076
:104E100003C06850460F8FEFF801E15AF34FE49159
:104E2000E8235E2F5095CE2FC2239C9195239C2B77
:104E30009C93BD016E0D711DE7FC7A95FB0180818D
:104E400085238C2B8083A058BF4FFD01842F632FB7
:104E5000330F770B883050F08F01060F171FE801D2
:104E600028832083E058FF4F8850F4CF842F869505
:104E700086958695D0E88D9FA00DB11D11244770B1
:104E8000D1F088E090E0841B91094FEF50E002C020
:104E9000559547958A95E2F7042F009542238C910A
:104EA0008023842B8C93AE0DB11DE7FCBA958C91B9
:104EB0000823402B4C93DF91CF911F910F91FF90CE
:104EC000EF9008956F927F928F929F92AF92BF92D0
:104ED000CF92DF92EF92FF920F93CF93DF93DC019B
:104EE0007A01C22F44E06402B0011124262F61111F
:104EF00004C0202F4C2FB70147C0862F062E000C70
:104F0000990B6D01C80ED91E5D01A81AB90A80E877
:104F1000C816D10428F4D0E8AD16B10408F443C093
:104F2000202F4C2FB701C5010E940A26202F4C2F9D
:104F3000B701C50101960E940A26202F4C2FB70108
:104F4000C50102960E940A26202F4C2FB701C501E9
:104F500003960E940A26202F4C2FB701C6010E94FB
:104F60000A26202F4C2FB701C60101970E940A265E
:104F7000202F4C2FB701C60102970E940A26202F2E
:104F80004C2FB701C6010397DF91CF910F91FF908E
:104F9000EF90DF90CF90BF90AF909F908F907F90D9
:104FA0006F900C940A26E0E4EE16F1040CF038C180
:104FB00067FF02C0262F2195022E000C330BA21B87
:104FC000B30B220F331FF7FE08C0C7018C0F911DD2
:104FD00097FD26C1CE0DE12CF12CC7018C0F911D40
:104FE0008134910514F0C0E4CE19013041F4909160
:104FF000D0099A0F90FD05C09AEA05E504C0902FEC
:1050000002C095E50AEAA701487F5527F4E0440F5E
:10501000551FFA95E1F7A40FB51FA753BA4F8E2D70
:10502000877009F466C04C2F50E0682F70E0E8E00C
:10503000F0E0E61BF70B4E175F0744F4460F571FCF
:10504000FA01E859F34F4491C0E003C08850C80FFB
:105050004FEFFB01E15AF34FE491E4234E2F4095CB
:105060005E2F50238C918423852B8C93DE2FD923A4
:1050700011968C91119784238D2B11968C931197F7
:1050800012968C9112978423852B12968C931297EB
:1050900013968C91139784238D2B13968C931397CF
:1050A000B90177276A0F7B1FFB0180818423852B41
:1050B00080838FEF820FBD01680F711DFB0180811E
:1050C00084238D2B80838EEF820FBD01680F711DAD
:1050D000FB0180818423852B80838DEF820FBD01AE
:1050E000680F711DFB01808148234D2B4083A05820
:1050F000BF4FAD014D5F5F4F3D018C2F490199249A
:105100006FEF620F70E0EEEFEE2EE20EF12CDDEFAE
:10511000D20FCD2ED12C883058F15A01F1E0AF1AC0
:10512000B108F5010083F3010083FA0190835A016D
:10513000F2E0AF1AB108F50190835301A80CB91C35
:10514000F50100835301A60EB71EF50190835301AC
:10515000AE0CBF1CF50100835301AC0CBD1CF50166
:105160009083F0E86F0E711C885040585F4FD3CF8A
:105170008C2F86958695869540E8849FA00DB11D5D
:105180001124C77009F44CC068E070E06C1B710911
:105190004FEF50E002C0559547956A95E2F7542FBE
:1051A000509504238C918523802B8C934923119651
:1051B0008C9111978523842B11968C9311971296BD
:1051C0008C9112978523802B12968C9312971396AD
:1051D0008C9113978523842B13968C931397F90145
:1051E000FF27EA0FFB1F80818523802B80838FEFB1
:1051F000820FFD01E80FF11D80818523842B8083C0
:105200008EEF820FFD01E80FF11D80818523082BB1
:1052100000832350A20FB11D9C919523942B9C9346
:10522000DF91CF910F91FF90EF90DF90CF90BF90E3
:10523000AF909F908F907F906F9008958091C90557
:105240008EBDEAECF5E081910DB407FEFDCF8EBD79
:1052500089E0E93CF807B9F70DB407FEFDCF0895E2
:105260004091D0092091F3093091F409C9010196C8
:105270009093F4098093F3095FE4529FC001539F18
:10528000900D11242DE0429F800D11249091C705AF
:10529000899F802D11240E947F0E2DEE3CE5AC01EC
:1052A000429FC001439F900D529F900D112499275A
:1052B00068EC70E00E94BD2C84560895009769F058
:1052C000FC0101900020E9F73197AF01481B590B11
:1052D000BC0189EC99E00C94871380E090E008957C
:1052E0008F929F92AF92BF920F931F93CF93DF93B2
:1052F000CDB7DEB7A1970FB6F894DEBF0FBECDBF16
:1053000019A2423008F44AE08E010F5D1F4F842E2F
:10531000912CA12CB12CA50194010E947C2CE62F8C
:10532000B901CA0101501109EA3014F4E05D01C06D
:10533000E95CD801EC93232B242B252B61F7C801C2
:105340000E945E29A1960FB6F894DEBF0FBECDBFB6
:10535000DF91CF911F910F91BF90AF909F908F9051
:1053600008950F931F93CF93DF938C01C0E0D0E09B
:10537000F801EC0FFD1F6491662371F0E091C909FB
:10538000F091CA090190F081E02D89EC99E009952E
:10539000892B11F02196ECCFCE01DF91CF911F9197
:1053A0000F910895CF93DF93BC0180E090E04AE035
:1053B0000E947029EC0185E491E00E945E298C0F27
:1053C0009D1FDF91CF910895FC018091C605811149
:1053D00003C08FEF9FEF08959FB7F89482E080930A
:1053E000E9002091F20030E01216130614F421E0D7
:1053F00030E02115310559F0289884E68093C505E1
:105400008091F10080838091F200882319F09FBF82
:10541000C90108958BE68093E800F9CF2FB7F8947F
:1054200083E08093E9009091E800892F807295FFD6
:1054300004C09091F20080E4891B2FBF08958091F1
:10544000EB0981110DC082E08093E70984E080932D
:10545000E8091092EA091092E90981E08093EB09CA
:1054600087EE99E00895789484B5826084BD84B510
:10547000816084BD85B5826085BD85B5816085BD4F
:1054800080916E00816080936E0010928100809107
:10549000810082608093810080918100816080938F
:1054A00081008091800081608093800080919100D4
:1054B000826080939100809191008160809391003F
:1054C000809190008160809390008091C100846001
:1054D0008093C1008091C10082608093C10080915F
:1054E000C10081608093C1008091C300816080937E
:1054F000C3008091C00082608093C0008091C20090
:1055000081608093C20080917A00846080937A00E9
:1055100080917A00826080937A0080917A00816025
:1055200080937A0080917A00806880937A0010924C
:10553000C6051092C2051092C3058091D700816004
:105540008093D70080EA8093D80089B5806189BDB7
:1055500089B5826089BD09B400FEFDCF61E070E0CD
:1055600080E090E00E944B158091D8008F7C806194
:105570008093D8008091E000807F8093E00080914C
:10558000E1008E7E8093E1008DE08093E200559AE9
:10559000209AEEEFFFE7859194918B3F9C4D19F493
:1055A00081E08093C10581EC80937C0085B1806FA0
:1055B00085B9249884B1866E84B95E9A5F988AB161
:1055C000806D8AB9769A6E9881B3806F81BB899815
:1055D00080B38D7080BB80E58CBD81E08DBD85E0A2
:1055E00090E00E9485155F9A85E090E00E94851505
:1055F0005E985C98E1ECFBE08DE08E0F94919EBD8F
:1056000000000DB407FEFDCF31968E13F7CF5C9AE4
:1056100081E88093640081E0809365000E94D71345
:1056200087FF13C05C9885EA8EBD00000DB407FEAD
:10563000FDCF5C9A2E982F982D98809164008062FF
:10564000809364000E94F413FDCF80E18093D4091D
:10565000C9ECD5E000E010E0FF24F3942FB7F894F4
:105660008091DA019091DB01A091DC01B091DD0124
:105670002FBF4091D9095091DA096091DB097091EF
:10568000DC092091DD09222341F02091D509821BFC
:105690008093DE091092DD0985C084179507A6075F
:1056A000B70738F4481B423008F47CC00E94F4135A
:1056B00079C0F092DD098093D5099093D609A09323
:1056C000D709B093D8092091D409820F911DA11D4B
:1056D000B11D8093D9099093DA09A093DB09B093A7
:1056E000DC098091D0099091D10901969093D1095C
:1056F0008093D009E090D101E092DE010E94D7139F
:105700008093D101E0948E218093D001E091D30168
:10571000F091D40180910A0190910B01E817F907EB
:10572000A9F01092DF01FF27EE0FFF1FE452F44FA4
:1057300085919491009711F0FC0109958091D30116
:105740009091D40190930B0180930A01E091D301D1
:10575000F091D401FF27EE0FFF1FE253F44F859124
:105760009491009711F0FC0109950E941E298091E7
:10577000D2018823B9F0823851F48091D00980FF9A
:1057800002C085E501C08AEA982F909503C0817018
:105790008195982FFE010024819391938193919399
:1057A0000394D1F70115110509F458CF0E940000A8
:1057B00055CF0F931F93CF93DF938C0181E090E03F
:1057C0000E945B2C80FF31C08AE090E00E945B2C3D
:1057D0009FEF980F9E3F48F522E330E0D80157969F
:1057E0003C932E93569728E330E059963C932E93A2
:1057F0005897CBE0D0E0D801ED91FC910190F08179
:10580000E02D682FC8010995CE010E945B2C2196DE
:10581000C131D10581F70E941E2988EE93E0DF9106
:10582000CF911F910F910C948515DF91CF911F910E
:105830000F91089504970C94D92BE5EFF9E01382AA
:10584000128288EE93E0A0E0B0E084839583A68383
:10585000B78383E291E0918380838FEF9FEF9587F9
:105860008487E9ECF9E0138212821186128620E126
:10587000238790878783108A118A128A138A148A51
:10588000178A168A118E108E81E0828F138E848F74
:10589000158E85E391E09183808383E491E0958385
:1058A00084830895FC0105900020E9F78095909588
:1058B0008E0F9F1F0895F999FECF92BD81BDF89A72
:1058C000992780B50895262FF999FECF1FBA92BD6A
:1058D00081BD20BD0FB6F894FA9AF99A0FBE0196D1
:1058E00008950E949E2CA59F900DB49F900DA49F9B
:1058F000800D911D11240895A1E21A2EAA1BBB1B35
:10590000FD010DC0AA1FBB1FEE1FFF1FA217B3078B
:10591000E407F50720F0A21BB30BE40BF50B661FA1
:10592000771F881F991F1A9469F760957095809565
:1059300090959B01AC01BD01CF010895A29FB001DC
:10594000B39FC001A39F700D811D1124911DB29FB3
:10595000700D811D1124911D0895DB018F939F937C
:105960000E94712CBF91AF91A29F800D911DA39FAA
:10597000900DB29F900D1124089597FB072E16F4F9
:10598000009407D077FD09D00E94322E07FC05D085
:105990003EF4909581959F4F0895709561957F4F46
:1059A00008950E949E2CB7FF0895821B930B0895C3
:1059B00097FB57FF0C94E82C9F938F930E94E82C41
:1059C0006E1B7F0BAF91BF918A0B9B0B0895E894E0
:1059D000DF93CF93FC01DB010E949E2C7F936F939A
:1059E000E9019A01AC01BF93AF933F932F93DF017D
:1059F0000E949E2C26F46C1B7D0B820B930B9E0148
:105A0000EB01FC010E944C2EAF91BF912F913F9171
:105A10000E944C2EBE01CF01F9012F913F91CF91F1
:105A2000DF910895689401C0E894F92FF12B12F0EA
:105A30000C94462DA0E0B0E0E0E2FDE20C94B82D1D
:105A4000092E059422F40E94A22D112392F4F0E86D
:105A50000F26FFEFE094F09400951095B094C09459
:105A6000D094A194BF0ACF0ADF0AEF0AFF0A0F0BF6
:105A70001F0B0E94512D07FC0E94A22DCDB7DEB74F
:105A8000ECE00C94D42D689401C0E8948F929F921E
:105A9000CF93DF930E94512DDF91CF919F908F90F4
:105AA000089588249924F401E401B0E49F93AA277F
:105AB0009A158B049C04ED05FE05CF05D007A107C0
:105AC00098F4AD2FDC2FCF2FFE2FE92D982C892EA7
:105AD000982F872F762F652F542F432F322F222771
