:100000000C9456060C947E060C947E060C947E0688
:100010000C947E060C947E060C947E060C947E0650
:100020000C947E060C947E060C94ED200C945F21BB
:100030000C947E060C947E060C947E060C947E0630
:100040000C947E060C947E060C947E060C947E0620
:100050000C947E060C947E060C947E060C9414166A
:100060000C947E060C947E060C947E060C947E0600
:100070000C947E060C947E060C947E060C947E06F0
:100080000C947E060C947E060C947E060C947E06E0
:100090000C947E060C947E060C947E060C947E06D0
:1000A0000C947E060C948C140C947E063C205265B5
:1000B0007061697220426F74203E003C2053686971
:1000C000656C64203E003C2047656E657261746F0C
:1000D00072203E003C20436170616369746F72203E
:1000E0003E003C204A756D706A6574203E003C20DD
:1000F000456E67696E65203E003C20526163652055
:100100003E0000060C12191F252B31383E444A5080
:10011000565C61676D73787E83888E93989DA2A7E5
:10012000ABB0B5B9BDC1C5C9CDD1D4D8DBDEE1E432
:10013000E7EAECEEF1F3F4F6F8F9FBFCFDFEFEFF66
:10014000FFFF0480AF5FAB7F8A00AA01AA44AA0028
:10015000AA44AA55AADDAA75AAFDAAFFEEFFBAFF16
:10016000FEFFFFFFAF7FAF7F8A018A01AA00AA00CE
:10017000AA50AA50AAD5AAD5AAFFAAFFFAFFFAFF49
:10018000FFFFFFFF7F3F199DCB67D38E4CB94AE637
:10019000159793F9A4235B76AEB3932957C9BC8214
:1001A000CC94AB645E715FEE721559DAB9F894AB1A
:1001B000645E713997AE6CC595762EB82B9D0E6333
:1001C000CE5DB2B2913BD7A95C5BA65CCAE1D2A678
:1001D000D3E9743A9DCE6EB7DBED967EBB5452499F
:1001E000259554524925955452D9EDEC4B259554FB
:1001F000524965B74B25955452492515DB5249257F
:100200009554524965B74B259554524965B74B25CE
:10021000955452492595DD4EAAA4924A2AA9A49242
:100220008A54492595545249251521DAD8B74B25CA
:1002300095545249259554524925955D8757FC257B
:10024000955452492599F1C687373E9C39259554D6
:10025000524925958C0E6F7C88D378E3C31B1FDE33
:10026000F8F0C6B694DB746CE9981CDEF0AAA473AF
:10027000CE39E79C73CE29B5DD6EB7DBED76ABA446
:100280007352492595DD6EB7DBED5249E5E4369DA5
:100290004E4BE79C73CE39E75098764E6EB7DBED48
:1002A000F6EDD66EB7DBED76E9D25249259D73CED9
:1002B00039A748D34A2A65B7DBED524965B7DBED6C
:1002C00076BB54DBADDD6EB75B259573F9F456490B
:1002D000259D73CE392595DC3AE79C73CE39E7E04E
:1002E00024F82DBD55925C6DB74163E9AD9252F192
:1002F000C363E9AD92CED9E13728483A87664238E0
:10030000C829E91CDE79512E95C4B792F01A1CE475
:100310009C73CE39E79C73CE3925955472BB8D5EA4
:10032000493BBEB74A8EF31D37BE9554B84E427155
:100330005249259554524925955452492595545270
:10034000492595849AD2E9AD924A3AE79C7352497D
:10035000259554524925955452492595545249E5BD
:100360009C73CE39A7E436B4492595545249259556
:10037000545249259554524925955452492595542E
:100380005239E79C734A2AB90D5A02000000000056
:100390000000000000000001030003000000000056
:1003A0000000000000010700000000000000000045
:1003B0000700000105000000000000000000000030
:1003C00000010A000000000007000000000000011A
:1003D0000700000000000C00000000000001050202
:1003E00001010101010102020101010101020101FA
:1003F00001020101010301020301010202010103E3
:1004000001020104010102010104020101030108CA
:1004100004010501010404020605010004000000B6
:100420000A000000E5FFFF010A00FCFFFF000A00D0
:100430000000E5FFFF010A00000000000A000000C4
:10044000E2FFFF010C00100000000000000023008C
:1004500000011800F0FFFF00000000002300000171
:100460001800100000000000000014000001180037
:10047000F0FFFF0000000000140000011800100051
:10048000000000000000090000FF0F00F0FFFF0067
:1004900000000000090000FF0F0000000000020043
:1004A00000001C0000FF0A4D4F4E45593A200053F2
:1004B000656C6C3A200055703A20004C6F73657380
:1004C0003A200057696E733A2000F900EE00E2000E
:1004D000D400C600BB00AC0000040000000800000F
:1004E00000D1FFFFFF0A000000000008000000D359
:1004F000FFFFFF0B00FCFFFF0008000000D1FFFF23
:10050000FF0A00000000000B000000CBFFFFFF0A05
:10051000000500000008000000E4FFFF010400FBEC
:10052000FFFF0008000000E4FFFF010400080000D6
:100530000004000000EEFFFF010400F8FFFF0004CC
:10054000000000EEFFFF0104000B000000020000AD
:1005500000F8FFFF010400F5FFFF0002000000F8B3
:10056000FFFF010400100000000800000028000048
:10057000AA080018000000FCFFFF00280000AA08DD
:100580000008000000FCFFFF00280000AA0800F09F
:10059000FFFF0008000000280000AA0800E8FFFF95
:1005A00000FCFFFF00280000AA0800F8FFFF00FC85
:1005B000FFFF00280000AA08001000000000000053
:1005C00000210000FF1200F0FFFF000000000021EA
:1005D0000000FF120010000000000000001B0000DF
:1005E000FF1200F0FFFF00000000001B0000FF12E0
:1005F000001000000000000000140000FF1200F0D6
:10060000FFFF0000000000140000FF1200100000B7
:100610000000000000090000010A00F0FFFF0000D8
:10062000000000090000010A0005000000020000AF
:10063000001C000001040000000000020000001C7B
:100640000000010600FBFFFF00020000001C00008C
:10065000010400050000000A000000DBFFFF000E9F
:1006600000FBFFFF0008000000DBFFFF000E0000A2
:100670000000000A000000D1FFFF000E0010000083
:100680000000000000230000001800F0FFFF000041
:10069000000000230000001800100000000000000F
:1006A00000140000001800F0FFFF0000000000141C
:1006B0000000001800100000000000000009000009
:1006C000010F00F0FFFF0000000000090000010F13
:1006D0000000000000020000001C0000010C594F47
:1006E00055204C4F53542100594F5520574F4E2100
:1006F00000010204081020408000000000003E5B62
:100700004F5B3E3E6B4F6B3E1C3E7C3E1C183C7E5E
:100710003C181C577D571C1C5E7F5E1C00183C1843
:1007200000FFE7C3E7FF0018241800FFE7DBE7FF3F
:1007300030483A060E2629792926407F05050740CC
:100740007F05253F5A3CE73C5A7F3E1C1C08081C8D
:100750001C3E7F14227F22145F5F005F5F06097FCB
:10076000017F006689956A606060606094A2FFA264
:100770009408047E040810207E201008082A1C0813
:10078000081C2A08081E101010100C1E0C1E0C301D
:10079000383E3830060E3E0E060000000000000015
:1007A0005F00000007000700147F147F14242A7FD5
:1007B0002A122313086462364956205000080703A2
:1007C00000001C2241000041221C002A1C7F1C2A20
:1007D00008083E0808008070300008080808080073
:1007E0000060600020100804023E5149453E00426E
:1007F0007F400072494949462141494D331814123E
:100800007F1027454545393C4A4949314121110965
:10081000073649494936464949291E000014000057
:100820000040340000000814224114141414140071
:100830004122140802015909063E415D594E7C12BD
:1008400011127C7F494949363E414141227F414155
:10085000413E7F494949417F090909013E414151D2
:10086000737F0808087F00417F41002040413F011D
:100870007F081422417F404040407F021C027F7F5E
:100880000408107F3E4141413E7F090909063E416F
:1008900051215E7F09192946264949493203017FC2
:1008A00001033F4040403F1F2040201F3F40384051
:1008B0003F631408146303047804036159494D43EA
:1008C000007F4141410204081020004141417F0462
:1008D0000201020440404040400003070800205449
:1008E0005478407F284444383844444428384444A9
:1008F000287F385454541800087E090218A4A49C78
:10090000787F0804047800447D40002040403D008A
:100910007F1028440000417F40007C047804787CEC
:10092000080404783844444438FC18242418182453
:100930002418FC7C08040408485454542404043F3C
:1009400044243C4040207C1C2040201C3C40304043
:100950003C44281028444C9090907C4464544C446F
:100960000008364100000077000000413608000210
:10097000010204023C2623263C1EA1A161123A403A
:1009800040207A38545455592155557941215454B1
:100990007841215554784020545579400C1E5272AC
:1009A0001239555555593954545459395554545888
:1009B0000000457C410002457D420001457C40F03D
:1009C000292429F0F0282528F07C5455450020548E
:1009D000547C547C0A097F4932494949323248489B
:1009E0004832324A4848303A4141217A3A4240201E
:1009F00078009DA0A07D39444444393D4040403DAD
:100A00003C24FF2424487E4943662B2FFC2F2BFFD8
:100A10000929F620C0887E0903205454794100003A
:100A2000447D413048484A32384040227A007A0AB0
:100A30000A727D0D19317D2629292F282629292979
:100A40002630484D402038080808080808080838AB
:100A50002F10C8ACBA2F102834FA00007B00000811
:100A6000142A142222142A14089500220095AA00A0
:100A70005500AAAA55AA55AA000000FF00101010A0
:100A8000FF00141414FF001010FF00FF1010F010EE
:100A9000F0141414FC001414F700FF0000FF00FF12
:100AA0001414F404FC141417101F10101F101F143A
:100AB00014141F00101010F0000000001F10101080
:100AC000101F10101010F010000000FF1010101078
:100AD0001010101010FF10000000FF140000FF00A5
:100AE000FF00001F10170000FC04F4141417101767
:100AF0001414F404F40000FF00F714141414141474
:100B000014F700F7141414171410101F101F1414E6
:100B100014F4141010F010F000001F101F0000005B
:100B20001F14000000FC140000F010F01010FF1063
:100B3000FF141414FF141010101F00000000F01018
:100B4000FFFFFFFFFFF0F0F0F0F0FFFFFF000000FD
:100B50000000FFFF0F0F0F0F0F38444438447C2A6A
:100B60002A3E147E02020606027E027E0263554978
:100B700041633844443C04407E201E2006027E022D
:100B80000299A5E7A5991C2A492A1C4C7201724CAE
:100B9000304A4D4D303048784830BC625A463D3E70
:100BA000494949007E0101017E2A2A2A2A2A444411
:100BB0005F444440514A444040444A51400000FF91
:100BC0000103E080FF000008086B6B083612362432
:100BD00036060F090F06000018180000001010005C
:100BE0003040FF0101001F01011E00191D171200F6
:100BF0003C3C3C3C0000000000D5F08D14A1C881B5
:100C0000CFD9F1AF20009B0ACE06E408C3087309D0
:100C100017090000F0137707BD0E6A13700EDB1181
:100C20000000080B0002020201000904000001029A
:100C30000200000524001001052401010104240222
:100C40000605240600010705810310004009040180
:100C500000020A00000007050202400000070583A9
:100C6000024000000403090412010002EF020140E7
:100C70004123368000010102030141726475696EEF
:100C80006F204C4C430041726475696E6F204C6557
:100C90006F6E6172646F00FFFEFCF8F0E0C08000D0
:100CA000000103070F1F3F7FFF00F82811241FBE1C
:100CB000CFEFDAE0DEBFCDBF11E0A0E0B1E0ECE5C0
:100CC000F6E502C005900D92A834B107D9F729E0E6
:100CD000A8E4B1E001C01D92AF31B207E1F716E020
:100CE000C6E5D6E004C02197FE010E94182BC53549
:100CF000D107C9F70E9452270C942C2B0C940000AA
:100D0000FC01E155FD4F108231961082FC018C5997
:100D10009F4F2FEF20833296E817F907D9F70895F0
:100D2000AC0126E0569547952A95E1F79C0165E0D0
:100D3000369527956A95E1F7242B352B969587955F
:100D4000822B932B0895AC0126E0569547952A9562
:100D5000E1F79C0165E0369527956A95E1F7242B2C
:100D6000352BAC0156954795242B352B2095309586
:100D7000892F9927822393230895492F55279C0172
:100D800065E0369527956A95E1F7242B352B9695E6
:100D9000879596958795822B932B08952091D7015F
:100DA0003091D8018091D9019091DA012817390743
:100DB00068F08091D5019091D6019093980480932A
:100DC00097048091DB018093960408959091D4015B
:100DD00087E0E091D701F091D8019F012F5F3F4F4D
:100DE0003093D8012093D7019083E091D901F091FD
:100DF000DA013197F093DA01E093D90190838150C1
:100E000041F708958295817090E00895AC0126E045
:100E1000569547952A95E1F79C0165E0369527950B
:100E20006A95E1F7242B352B96958795822B932B8A
:100E30000895CF92DF92EF92FF922091AC0820FFAD
:100E400003C084E691E002C084E491E0DC01909666
:100E500021FF1AC025EA34E0FC01C590D590E59049
:100E6000F490B701A601AB01B601F90120583F4F3C
:100E70004193519361937193E217F307C9F7049675
:100E80008A179B0749F715C025EA34E0FC01459114
:100E9000559165917491F90120583F4F41935193B9
:100EA00061937193E217F307C9F704968A179B07BA
:100EB00069F7FF90EF90DF90CF90089590934D01E8
:100EC00080934C0110924A01109249013E9A10926F
:100ED000C00084E08093C1009FEF9093D10090E820
:100EE0009093CF008093720010924B010895E7ED2C
:100EF000F1E08091960484831092960485EA94E050
:100F00009183808385EA98E093838283E3E5F1E02F
:100F10001182108213821282158214821782168225
:100F20001186108682E097E00C945E07E82FF0E0CF
:100F3000803428F4EE5FFE4FE4918E2F09C087FDC8
:100F400009C081E891E09C012E1B3F0BF9018491BF
:100F500090E00895803C18F4EE57FF4F06C081E002
:100F600092E09C012E1B3F0BF901849190E091953A
:100F70008195910908951F93CF93DF931F92CDB769
:100F8000DEB7182F4091AC0880914E0190914F012F
:100F90009C012F5F3F4F30934F0120934E015FE440
:100FA000589F9001599F300D11248DE0489F200DCE
:100FB000112480915001289F802D112469830E9463
:100FC00096074DEE5CE59C01249FC001259F900D86
:100FD000349F900D112499276981062E000C770B00
:100FE000611B710917FD73950E949829810F0F905D
:100FF000DF91CF911F910895CF93DF93EC01488546
:1010000059856A857B85DB01CA019550A109B10923
:10101000811520EB92072FEFA207B2072CF08887EB
:101020009987AA87BB8718C059546D4F7F4F48874F
:1010300059876A877B8764E68CE90E94BB07082E84
:10104000000C990BAA0BBB0BBA2FA92F982F88273E
:1010500088839983AA83BB83DF91CF910895CF932F
:10106000DF93EC01488559856A857B85DB01CA01E0
:101070009A50A109B109811520EB92072FEFA20721
:10108000B2072CF088879987AA87BB8730C05E5447
:101090006D4F7F4F488759876A877B8764E68CE965
:1010A0000E94BB07082E000C990BAA0BBB0B222732
:1010B000382F492F5A2FA5E0B0E00E944C296883B1
:1010C00079838A839B836FE780E80E94BB07898BC3
:1010D00064E18AE00E94BB07A82F880FBB0B24E6BF
:1010E00030E00E94AC296C877D878E879F87DF91D7
:1010F000CF9108951F93CF93DF93DC0120E030E080
:1011000040E050E011E0C1E0D0E02617370791F150
:1011100014968C911497811115C014961C931497F2
:1011200012968D919C911397ED91FC911197E80F78
:10113000F91FE4911596EC931597019613969C93DD
:101140008E93129714969C91149715968C911597DF
:10115000892349F0FE01022E02C0EE0FFF1F0A9400
:10116000E2F74E2B5F2B990F14969C9314972F5FE9
:101170003F4FCBCFCA01DF91CF911F9108950895C2
:1011800080E090E008950E9419078091940483FF05
:1011900006C084E090E09093980480939704809137
:1011A000AC080E94960723E030E0DC010E94AC29E5
:1011B00060933F02709340028093410290934202F9
:1011C00087ED91E00C94891980918A04823088F42B
:1011D00085E090E09093D6018093D50181E090E086
:1011E0009093980480939704109296048FEF8093C5
:1011F000D40180918804811103C08BE0809388041E
:1012000080918804815080938804809189048111A1
:1012100003C08CE38093890480918904815080937A
:1012200089040E94190787ED91E00C948919EF92C7
:10123000FF920F931F93CF93DF931F92CDB7DEB72B
:1012400088E290E09093BC088093BB081092BE089F
:101250001092BD088091890490918A040E94C7264B
:101260008091940483FF11C083E090E09093D601B5
:101270008093D50181E090E0909398048093970447
:10128000109296048AEA8093D4010FE312E040E0C2
:10129000E12CF12C8091880490E0E816F906C4F462
:1012A0008091AC08840F49830E9496072AE030E0C1
:1012B000DC010E94AC29F8016083718382839383EF
:1012C000FFEFEF1AFF0A035B1F4F4981455EE2CF34
:1012D00087ED91E00F90DF91CF911F910F91FF90DB
:1012E000EF900C9489198F929F92AF92BF92EF92D8
:1012F000FF920F931F93CF93DF939091940492FFEB
:1013000006C023E030E03093980420939704809146
:10131000880495FF06C0811102C086E007C0815095
:1013200005C096FF08C08F5F873019F0809388044E
:1013300002C010928804E0918804F0E0EE0FFF1FD5
:10134000E653FB4FC591D491CE010E942D299C01FB
:10135000220F331F820F931F20E430E0281B390B2C
:101360003093BC082093BB081092BE081092BD08B1
:10137000CE010E94C72685E491E00E947426C091A8
:101380008804C1111FC083EC94E00E94C72680919D
:10139000D2019091D3010E94E8268BEB94E00E9449
:1013A000C72680916201909163010E94E826809196
:1013B000940483FF77C082E090E090939804809338
:1013C000970470C0D0E0C150DF4F9881999F900181
:1013D00011248AE0829F7001839FF00C112448E25F
:1013E000E40EF11C292F30E021503109229FA00189
:1013F000239F500D500D112487E0849F8001859F0D
:10140000100D1124025E1F4F8091940487FF1EC0AF
:101410004091060150910701609108017091090106
:101420004701A12CB12C481559056A057B0570F0C0
:10143000481959096A097B0940930601509307012D
:1014400060930801709309019F5F17C084FF17C064
:1014500040910601509107016091080170910901C6
:10146000400F511F611D711D4093060150930701EC
:1014700060930801709309019150988313C09F3FB6
:1014800039F086EB94E00E94C726C7010E94E82647
:101490008881823038F08FEA94E00E94C726C80124
:1014A0000E94E8261092BC081092BB0889E390E0E5
:1014B0009093BE088093BD0887EA94E00E94C726F7
:1014C00060910601709107018091080190910901D6
:1014D0004AE00E9486268091AC080E94960723E08D
:1014E00030E0DC010E94AC2960933F02709340021F
:1014F000809341029093420230914C0220918804E3
:101500004BED4203C0011124830F911D95958795E2
:1015100095958795381B30934C0287ED91E0DF91CC
:10152000CF911F910F91FF90EF90BF90AF909F9040
:101530008F900C9489194F925F926F927F928F9245
:101540009F92AF92BF92CF92DF92EF92FF920F9352
:101550001F93CF93DF93CDB7DEB727970FB6F894DD
:10156000DEBF0FBECDBF82E090E0909398048093E1
:1015700097048091940483FF11C023E030E03093FE
:10158000D6012093D50121E030E0309398042093D8
:101590009704109296049AEA9093D40182FF1CC09B
:1015A00080915201882329F0109252013E983F9871
:1015B00005C03E9A3F9A81E08093520160915201AA
:1015C00082E090E06F830E9436296F81681721F0D6
:1015D00082E090E00E943E290BE312E0F801808552
:1015E0009185A285B385985EAF4FBF4F8087918765
:1015F000A287B3870197A440B105BCF0F80110861B
:1016000011861286138664E68CE90E94BB07082EB9
:10161000000C990BAA0BBB0BBA2FA92F982F882768
:10162000F80180839183A283B383035B1F4FF3E0B0
:1016300002321F0799F687ED91E00E94891984E82C
:1016400091E09A8389831C821B821D821E8268E03E
:1016500070E0CE0101960E947A0801966C0168E064
:1016600070E0CE0101960E947A088C0161E070E082
:10167000CE0101960E947A08D7FC68C098012F5FBE
:101680003F4F37FD63C05901E3E0B594A794EA9555
:10169000E1F727703327232B19F02FEFA21AB20A94
:1016A000982E66246394812C00E010E0E12CF12C4C
:1016B00077247394EA14FB040CF048C04424439448
:1016C000512C61E070E0CE0101960E947A08892BCE
:1016D00021F482E0480E511CF4CFB201CE010196F4
:1016E0000E947A08019620E030E02817390760F55B
:1016F00091108628660C29F5A7014F5F5F4F49308E
:10170000510580F4003811056CF4F701F695FE2FB1
:10171000EE27F795E795E00FF11FEB55FB4F608142
:10172000862A80820F5F1F4F0C151D053CF07A0141
:1017300066246394812C00E010E003C06624639467
:10174000812C2F5F3F4FD1CF9724B4CF27960FB670
:10175000F894DEBF0FBECDBFDF91CF911F910F91E7
:10176000FF90EF90DF90CF90BF90AF909F908F90C1
:101770007F906F905F904F9008950F931F93FC019F
:101780000081118122813381BB2737FDBA95A32FB8
:10179000922F812FAF77BB2737FD04C040E050E088
:1017A000BA0104C040E050E060E87FEF8A019B018D
:1017B000082B192B2A2B3B2BC901B8011F910F9124
:1017C00008952F923F924F925F926F927F928F92E5
:1017D0009F92AF92BF92CF92DF92EF92FF920F93C0
:1017E0001F93CF93DF93CDB7DEB72C970FB6F89446
:1017F000DEBF0FBECDBF4C01FC01E85BFF4F208078
:10180000312C8091950485FD08C086FF0DC0A0E8AD
:101810004A2E512C612C712C0AC0F0E84F2E552411
:101820005A94652C752C03C0412C512C3201F401C3
:1018300080819181A281B3818115F2E99F07FFEF39
:10184000AF07BF0764F081309E46A105B10564F083
:10185000E0E84E2E55245A94652C752C05C070E88E
:10186000472E512C612C712C84E2829DD001839DE6
:10187000B00D1124FD01EE58FE4FAA59BE4F1C9623
:101880002D913D914D915C911F972D833E834F8308
:101890005887550F220B322FA90129873A874B878A
:1018A0005C872D813E814F8158856985762F862FF3
:1018B000962F06E00E94C42AAD80BE80CF80D884D7
:1018C000E984FE2C0E2D1E2D0E94FB2A01E00E94B1
:1018D000C42A0E2D0E94FB2A01E00E94C42A08E0BF
:1018E0000E94DD2A59016A01B301A2014A0D5B1D64
:1018F0006C1D7D1D1C964D935D936D937C931F977E
:101900004115564F6F4F7F4F74F080819181A281B6
:10191000B38181309A40A105B1056CF080E09AE076
:10192000A0E0B0E004C080E096EFAFEFBFEF8083AF
:101930009183A283B38394E2F92EF29C8001F39CFD
:10194000100D11240A591E4FF4014081518162810A
:101950007381F80184859585A685B785840F951FC9
:10196000A61FB71FF40180839183A283B383809164
:10197000AC08982F990F890F0E94960727E030E056
:10198000DC010E94AC29F40164837583868397830C
:10199000F8012485358546855785A3E0B0E00E948F
:1019A0004C2969837A838B839C83CE0101960E94A4
:1019B000BD0BF401628BE85BFF4FA081B0E080912A
:1019C000880481114CC0FA9EF001FB9EF00D112499
:1019D000EA59FE4F448D558D808991892489358936
:1019E000840F951F2817390708F4C901918B808B44
:1019F00084E28A9FF0018B9FF00D1124EA59FE4F7B
:101A00004084518462847384A3019201550F220B98
:101A1000322FA9012D833E834F8358879201A30162
:101A20006D81762F862F962F06E00E94C42A5201E0
:101A30006301ED80FE2C0E2D1E2D0E94FB2A01E07D
:101A40000E94C42A0E2D0E94FB2A01E00E94C42A93
:101A500008E00E94DD2A20873187428753878091E2
:101A60008904811116C084E28A9FF0018B9FF00DDA
:101A70001124EA59FE4F468D578D82899389268914
:101A80003789840F951F2817390708F4C901938BEC
:101A9000828B2C960FB6F894DEBF0FBECDBFDF91C0
:101AA000CF911F910F91FF90EF90DF90CF90BF905B
:101AB000AF909F908F907F906F905F904F903F90EE
:101AC0002F900895CF93DF9300D000D0CDB7DEB72D
:101AD00069837A838B839C83CE0101960E94BD0B20
:101AE000862F0E949607BC01990F880B990B0F90C7
:101AF0000F900F900F90DF91CF910895CF93DF93C8
:101B000000D000D0CDB7DEB769837A838B839C8306
:101B1000CE0101960E94BD0B80E4860F0E949607BD
:101B2000BC01990F880B990B0F900F900F900F909D
:101B3000DF91CF910895CF93DF93CDB7DEB728978C
:101B40000FB6F894DEBF0FBECDBFFC0120813181FE
:101B500042815381FB0160817181828193812115D2
:101B600031054105510529F0611571058105910582
:101B700021F460E070E0CB0111C00E9488296983E4
:101B80007A838B839C83DC01CB01BB0F880B982F5E
:101B9000DC018D836A817B818C819D8128960FB6C3
:101BA000F894DEBF0FBECDBFDF91CF9108954F9265
:101BB0005F926F927F928F929F92AF92BF92CF92DD
:101BC000DF92EF92FF920F931F93CF93DF93EC017D
:101BD0008B015A014901B90148960E949B0D6B0186
:101BE0007C01B501CE010C960E949B0D2B013C019E
:101BF000B801CE010E949B0D460E571E681E791E2D
:101C0000C40CD51CE61CF71C8CA19DA1AEA1BFA1E4
:101C1000C80ED91EEA1EFB1ECCA2DDA2EEA2FFA2B8
:101C2000B401CE014C960E949B0D6B017C01B50165
:101C3000CE0140960E949B0D2B013C01B801CE01C4
:101C400004960E949B0D460E571E681E791EC40CFA
:101C5000D51CE61CF71C88A599A5AAA5BBA5C80E8E
:101C6000D91EEA1EFB1EC8A6D9A6EAA6FBA6B40189
:101C7000CE0180960E949B0D6B017C01B501CE01C7
:101C800044960E949B0D4B015C01B801CE01089661
:101C90000E949B0D860E971EA81EB91EC80CD91C4B
:101CA000EA1CFB1C8CA59DA5AEA5BFA5C80ED91E20
:101CB000EA1EFB1ECCA6DDA6EEA6FFA6CE01DF9196
:101CC000CF911F910F91FF90EF90DF90CF90BF9039
:101CD000AF909F908F907F906F905F904F900895FE
:101CE000CF93DF93CDB7DEB760970FB6F894DEBF22
:101CF0000FBECDBF1092880487ED91E00E94800650
:101D000080E092E3A0E0B0E08D879E87AF87B88B3C
:101D100080E091EFAFEFBFEF89879A87AB87BC87F1
:101D20001D821E821F82188619821A821B821C82C3
:101D3000BE016F5F7F4F86E594E00E942A199E01E5
:101D4000235F3F4FAE01475F5F4FBE016B5F7F4F29
:101D50000E94D70D4BE168ED74E087ED91E00E94A1
:101D60007C1F80E88093960460960FB6F894DEBFDF
:101D70000FBECDBFDF91CF9108952F923F924F922A
:101D80005F926F927F928F929F92AF92BF92CF920B
:101D9000DF92EF92FF920F931F93CF93DF93CDB714
:101DA000DEB762970FB6F894DEBF0FBECDBF87EDEA
:101DB00091E00E94800680E092E3A0E0B0E08F878F
:101DC000988BA98BBA8B80E09AEBAFEFBFEF8B8734
:101DD0009C87AD87BE871F82188619861A8680E089
:101DE0009CEEAFEFBFEF89839A83AB83BC83BE01C8
:101DF0006F5F7F4F86E594E00E942A199E01215F64
:101E00003F4FAE01455F5F4FBE01695F7F4F0E944C
:101E1000D70D10928804109289048091D2018170AC
:101E200093E0F92EF81AF0928A04A9E8CA2EA1E0EC
:101E3000DA2E06E611E0412C512C32016BE174E000
:101E4000BCEF8B2EB7E09B2E81EE282E8BE0382E38
:101E5000E42C4AE087ED91E00E947C1F5C01FC01CC
:101E6000E85BFF4F408232974114510461047104D2
:101E700029F431822082E0E0F1E026C09182808264
:101E80002091640130916501240D351D2930310503
:101E900010F028E030E0A6E0A29FC001A39F900DC3
:101EA000112481529C4FFC0145915591659174918B
:101EB00049835A836B837C83FC013496859194918A
:101EC0009E838D83FE013196D6011C92208130E0E5
:101ED000ACE2B1E00E947929D80158966D937D93C8
:101EE0008D939C935B9718961D921D921D921C9248
:101EF0001B971C961D921D921D921C921F97519626
:101F00001C921E9250978281B4E18B9FC0011124D4
:101F1000D80155969C938E935497838190E05D965B
:101F20009C938E935C978481B5E08B9FC0011124B4
:101F3000D80157969C938E93569753969C938E9365
:101F40005297858190E05F969C938E935E97D60121
:101F500013971C928181F60132978083319610820B
:101F6000B62DA52D942D8827F80180839183A28317
:101F7000B38384839583A683B783A0EAB0E0A301EB
:101F800092010E944C29B82FA72F962F8827F50180
:101F900080879187A287B38764E68CE90E94BB079C
:101FA000082E000C990BAA0BBB0BBA2FA92F982F48
:101FB0008827F50180839183A283B38381E08E0D0E
:101FC0008F1568F424E2C20ED11C0C5D1F4F4FEF39
:101FD000441A540A640A740A62E576E039CF4FE283
:101FE000A42E48E0B42ECF2CD12C59E8E52E43E0A6
:101FF000F0FE0DC065EB73E087ED91E00E947C1F61
:102000008C01FC01E75BFF4F808181600CC06BE8B5
:1020100073E087ED91E00E947C1F8C01FC01E75B7F
:10202000FF4F808184608083F801EA5BFF4FB182BB
:10203000A0822F2D30E02C193D09E29EC001E39EC5
:10204000900D1124092E000CAA0BBB0BBA2FA92F3F
:10205000982F8827F80180879187A287B38764E645
:102060008CE90E94BB07082E000C990BAA0BBB0B36
:102070002227382F492F5A2FA5E0B0E00E944C2983
:10208000D8016D937D938D939C93139764E68CE9AF
:102090000E94BB07F801818BF394F6E0FF1508F06E
:1020A000A6CF109296048DEB96E00E945E07629692
:1020B0000FB6F894DEBF0FBECDBFDF91CF911F9159
:1020C0000F91FF90EF90DF90CF90BF90AF909F90D7
:1020D0008F907F906F905F904F903F902F900895DA
:1020E000AF92BF92CF92DF92EF92FF920F931F9326
:1020F000CF93DF93CDB7DEB7A4970FB6F894DEBFCA
:102100000FBECDBF8C015B016A017901FB016081CB
:102110007181828193810E947E0D6D8F7E8F8F8F62
:1021200098A3F50160817181828193810E94620D83
:10213000698F7A8F8B8F9C8FF6016081718182818C
:1021400093810E947E0D6D8B7E8B8F8B988FF60115
:1021500060817181828193810E94620D698B7A8B8B
:102160008B8B9C8BF70160817181828193810E94AE
:102170007E0D6D877E878F87988BF70160817181D7
:10218000828193810E94620D69877A878B879C8701
:10219000BE016F5E7F4FCE014D960E949B0D6D83F9
:1021A0007E838F839887BE016F5E7F4FCE014996F5
:1021B0000E949B0D69837A838B839C83BE01635F3E
:1021C0007F4FCE0145960E949B0DF801608371837D
:1021D000828393838D899E89AF89B88DB095A095B0
:1021E000909581959F4FAF4FBF4F89A39AA3ABA303
:1021F000BCA3BE01675F7F4FCE0181960E949B0DFD
:10220000F801648375838683978389899A89AB896A
:10221000BC89B095A095909581959F4FAF4FBF4FCA
:1022200080879187A287B387BE01675F7F4FCE010A
:102230004D960E949B0D6B017C0189819A81AB8137
:10224000BC81B095A095909581959F4FAF4FBF4FA2
:1022500089A39AA3ABA3BCA3BE01635F7F4FCE014A
:1022600081960E949B0DC60ED71EE81EF91EF8012E
:10227000C486D586E686F786BE01635F7F4FCE01B2
:102280004D960E949B0D6B017C01BE01675F7F4FE5
:10229000CE0101960E949B0DC60ED71EE81EF91EA8
:1022A000F801C08AD18AE28AF38A898D9A8DAB8D32
:1022B000BC8DB095A095909581959F4FAF4FBF4F26
:1022C00089A39AA3ABA3BCA3BE016B5E7F4FCE01D3
:1022D00081960E949B0DF801648B758B868B978B82
:1022E000BE01675F7F4FCE0149960E949B0D6B0137
:1022F0007C01BE01635F7F4FCE0105960E949B0D5E
:10230000C60ED71EE81EF91EF801C08ED18EE28ED1
:10231000F38EBE01635F7F4FCE0149960E949B0DF5
:102320006B017C018D819E81AF81B885B095A095B0
:10233000909581959F4FAF4FBF4F89A39AA3ABA3B1
:10234000BCA3BE01675F7F4FCE0181960E949B0DAB
:10235000C60ED71EE81EF91EF801C48ED58EE68E75
:10236000F78EBE016B5E7F4FCE014D960E949B0D96
:10237000F80160A371A382A393A314A615A616A6C1
:1023800017A610A611A612A613A614A215A216A28D
:1023900017A2C801A4960FB6F894DEBF0FBECDBF3A
:1023A000DF91CF911F910F91FF90EF90DF90CF9031
:1023B000BF90AF9008952F923F924F925F926F928D
:1023C0007F928F929F92AF92BF92CF92DF92EF92C5
:1023D000FF920F931F93CF93DF93CDB7DEB76C9728
:1023E0000FB6F894DEBF0FBECDBF80E996E00E9425
:1023F0005E0780E88093960487ED91E00E94800656
:1024000080E092E8A0E0B0E08D8B9E8BAF8BB88F20
:1024100080E090EBAFEFBFEF898B9A8BAB8BBC8BDF
:1024200080E09CE3A0E0B0E08D879E87AF87B88B0B
:1024300019861A861B861C8680E09AE0A0E0B0E030
:102440008D839E83AF83B88780E098E1A0E0B0E001
:1024500089839A83AB83BC839E01275F3F4FAE0184
:102460004B5F5F4FBE016F5F7F4F86E594E00E9438
:1024700070109E012B5E3F4FAE014F5E5F4FBE015D
:10248000635F7F4F0E94D70D9091D201917083E0DE
:10249000891B8093880426E631E03A8F298FF0EB80
:1024A000CF2EDD24DA94ED2CFD2C00E010E0812C01
:1024B00099249A94A92CB92C80918804482F50E033
:1024C0005C8F4B8F041715070CF0EBC0E98DFA8D6C
:1024D00080819181A281B381448155816681778118
:1024E000841B950BA60BB70B23A1211108C0B09537
:1024F000A095909581959F4FAF4FBF4F08C0240185
:102500003501481A590A6A0A7B0AD301C201E6E674
:10251000F1E020E030E0212C312C2017310739F197
:1025200040815181628173814480558066807780CB
:10253000441955096609770973A0711008C0709590
:102540006095509541955F4F6F4F7F4F08C02401B4
:102550003501441A550A660A770AB301A2018417A5
:102560009507A607B7071CF44FEF241A340A2F5F0C
:102570003F4FB4964B8C5C8C2415350574F20115D5
:10258000110509F057C08091640190916501019691
:1025900090936501809364018091D2019091D30161
:1025A0004091060150910701609108017091090165
:1025B00021143104E1F438EE632E36E0732E70926C
:1025C0008A046092890401969093D3018093D2018A
:1025D000889F9001899F300D300D1124E7E07E2EF9
:1025E000729EC001739E900D1124459613C02EED6E
:1025F00036E030938A04209389042091620130915F
:1026000063012F5F3F4F3093630120936201880F76
:10261000991F0396480F591F611D711D40930601B4
:102620005093070160930801709309014BE168ED35
:1026300074E003C04AE062E576E087ED91E00E9435
:102640007C1FFC011482158216821782BE2DAD2DCF
:102650009C2D882780879187A287B3876CE9910199
:102660006203A001639F500D1124052E000C660B20
:10267000770B762F652F542F442740835183628335
:10268000738380E4818B0F5F1F4F90E5C90ED11CCF
:10269000E11CF11C298D3A8D2C5D3F4F3A8F298F1B
:1026A0000BCF6C960FB6F894DEBF0FBECDBFDF9197
:1026B000CF911F910F91FF90EF90DF90CF90BF903F
:1026C000AF909F908F907F906F905F904F903F90D2
:1026D0002F9008950F931F93CF93DF93CDB7DEB75D
:1026E000CC54D1090FB6F894DEBF0FBECDBF87ED35
:1026F00091E00E94800680E098EDAFEFBFEF2D964D
:102700008CAF9DAFAEAFBFAF2D9740E052EE6FEFF5
:102710007FEF29964CAF5DAF6EAF7FAF29972596BF
:102720008CAF9DAFAEAFBFAF259721961CAE1DAE4F
:102730001EAE1FAE219780E094E6A0E0B0E089AF26
:102740009AAFABAFBCAF1DAA1EAA1FAA18AE80E0FD
:1027500091EFAFEFBFEF89AB9AABABABBCABBE01B8
:102760006F5C7F4F86E594E00E942A198C019E01E0
:10277000235C3F4FAE01475C5F4FBE016B5C7F4FF8
:10278000CE0101960E947010AE014F5F5F4FB801FD
:10279000C8010E948B169E01275B3F4FAE014B5B29
:1027A0005F4FBE016F5B7F4FC8010E94D70D4BE1A9
:1027B00068ED74E087ED91E00E947C1F1092960412
:1027C00083EA96E00E945E07C45BDF4F0FB6F89481
:1027D000DEBF0FBECDBFDF91CF911F910F91089546
:1027E000CF92DF92EF92FF920F931F93CF93DF93DD
:1027F000CDB7DEB768970FB6F894DEBF0FBECDBF7A
:1028000086E097E00E945E0781EA9DE09093510187
:102810008093500180E88093960487ED91E00E94B8
:10282000800680E09EECAFEFBFEF8D8B9E8BAF8B71
:10283000B88F898B9A8BAB8BBC8B1D861E861F86AF
:10284000188A80E096EFAFEFBFEF89879A87AB8752
:10285000BC871D821E821F82188680E09CE0A0E05B
:10286000B0E089839A83AB83BC839E01275F3F4F8F
:10287000AE014B5F5F4FBE016F5F7F4F86E594E017
:102880000E9470109E012B5E3F4FAE014F5E5F4F66
:10289000BE01635F7F4F0E94D70DC12CD12C760102
:1028A0004AE06BE174E087ED91E00E947C1F8C01AF
:1028B000BE2DAD2D9C2D8827F80180879187A2879A
:1028C000B38764E68CE90E94BB07482F880F550B3D
:1028D000660B770B762F652F542F4427F801408322
:1028E000518362837383FFEFDF1AEF0AFF0AC1147B
:1028F00083E0D806E104F10499F668960FB6F894DF
:10290000DEBF0FBECDBFDF91CF911F910F91FF9022
:10291000EF90DF90CF9008951F920F920FB60F9215
:1029200011242F933F934F935F936F937F938F93D4
:102930009F93AF93BF93EF93FF93E0914C01F0917E
:102940004D01309761F180915201882341F18091CE
:102950004B01811111C08091490190914A019C0164
:102960002F5F3F4F30934A0120934901099580938F
:10297000480188E080934B018091480180FF02C0AC
:10298000469A01C046988091480190E095958795B8
:102990008093480180914B01815080934B01FF91BE
:1029A000EF91BF91AF919F918F917F916F915F91C7
:1029B0004F913F912F910F900FBE0F901F90189540
:1029C0002F923F924F925F926F927F928F929F923F
:1029D000AF92BF92CF92DF92EF92FF920F931F932D
:1029E000CF93DF93CDB7DEB727970FB6F894DEBF4E
:1029F0000FBECDBF9B838A836A30A1F4DC015C9655
:102A00002C915C9758968D919C915997B8E02B9F8B
:102A1000800D911D1124EA81FB81918F808F178A8F
:102A2000168AC1C06D3009F4BEC0AA81BB815C9614
:102A30004C915C975B966C905B976E825A967C90FB
:102A40005A977F825896CD90DC90599756968D91E3
:102A50009C91579780389105C4F0AA81BB815C9600
:102A60002C915C97422F50E056968D919C915797F0
:102A7000B6E02B9F800D911D1124EA81FB81978B7D
:102A8000868B258D21117AC08EC0F0E4CF16D1043B
:102A900024F79C0155E0459F200D311D112412168D
:102AA0001306DCF6242E312C9601A8E04A9F200D57
:102AB000311D11241216130684F6B5E06B9FB00188
:102AC0001124FB01E750F94F2F0150E0F201B490BF
:102AD000553009F4B12C7601B8E09B2EB0FC02C051
:102AE0008E8001C08F8081100BC06E807F80671048
:102AF00007C0B6949A94E20CF31C9110EFCF33C048
:102B00009C012983622F681B641798F7B701E62F91
:102B1000EE19E41728F520383105F8F46034710512
:102B2000E0F48B01E1EFF6E0A0E16A2E7980609E8F
:102B3000D001A0781124A70D0770E00FF11DA4901B
:102B4000BD83AC83AB55BB4F882019F0EC91AE2A06
:102B500003C0A094EC91AE22AC926F5F7F4FD7CFB1
:102B60002F5F3F4FCECF5F5F820D931D92012F5F8E
:102B70003F4F2901563009F0A9CF6FCF6AEF6403A8
:102B80009001659F300D112420583F4F28173907B9
:102B900054F48A819B81DC01ED91FC910190F081DC
:102BA000E02D6AE0099581E090E027960FB6F89451
:102BB000DEBF0FBECDBFDF91CF911F910F91FF9070
:102BC000EF90DF90CF90BF90AF909F908F907F90CD
:102BD0006F905F904F903F902F90089508953FB76A
:102BE000F89480918C0490918D04A0918E04B09102
:102BF0008F0426B5A89B05C02F3F19F00196A11D93
:102C0000B11D3FBFBA2FA92F982F8827820F911D82
:102C1000A11DB11DBC01CD0142E0660F771F881FC9
:102C2000991F4A95D1F708951F920F920FB60F92F0
:102C300011242F933F938F939F93AF93BF938091D2
:102C4000900490919104A0919204B09193043091DA
:102C50008B0423E0230F2D3720F40196A11DB11D15
:102C600005C026E8230F0296A11DB11D20938B04F9
:102C70008093900490939104A0939204B093930452
:102C800080918C0490918D04A0918E04B0918F045A
:102C90000196A11DB11D80938C0490938D04A09387
:102CA0008E04B0938F04BF91AF919F918F913F910C
:102CB0002F910F900FBE0F901F901895BC0180E0D0
:102CC00090E00C948F238FB12CB193B130E020951C
:102CD000309520743327A90123E0559547952A950F
:102CE000E1F7292F30E02095309520713327359575
:102CF000279535952795242B8095807F822B0895E5
:102D000083B7817F83BF83B7816083BF889583B793
:102D10008E7F83BF08952F923F924F925F926F9262
:102D20007F928F929F92AF92BF92CF92DF92EF925B
:102D3000FF920F931F93CF93DF93CDB7DEB7C254AB
:102D4000D1090FB6F894DEBF0FBECDBF7C01FB01E9
:102D50008A0180819181A281B38189A39AA3ABA3C7
:102D6000BCA384859585A685B7858D8F9E8FAF8FF3
:102D7000B8A3808D918DA28DB38D898F9A8FAB8FE3
:102D8000BC8F84A095A0A6A0B7A084819581A681C0
:102D9000B7818D8B9E8BAF8BB88F80899189A289EB
:102DA000B389898B9A8BAB8BBC8B848D958DA68DCB
:102DB000B78D8D879E87AF87B88B20A531A542A59B
:102DC00053A523962CAF3DAF4EAF5FAF23978085C1
:102DD0009185A285B38589879A87AB87BC878489CB
:102DE0009589A689B7898D839E83AF83B88780A193
:102DF00091A1A2A1B3A189839A83AB83BC8324A5AB
:102E000035A546A557A52BAF3CAF4DAF5EAFA8018A
:102E1000445F5F4F5AA749A79801285E3F4F3CA7E0
:102E20002BA7485E5F4F5EA74DA7180154E0250E03
:102E3000311C2850310938AB2FA7A801445E5F4FE1
:102E40005AAB49AB285E3F4F3CAB2BAB680138E037
:102E5000C30ED11C485051095EAB4DAB9801205EAA
:102E60003F4F38AF2FAB485E5F4F5AAF49AFB60107
:102E7000CE0149960E949B0D2B013C01B101CE0170
:102E80004D960E949B0D6DA37EA38FA398A7B801BA
:102E9000CE0181960E949B0D2DA13EA14FA158A568
:102EA000260F371F481F591F420E531E641E751EE2
:102EB000D7014D925D926D927C9213976DA97EA978
:102EC000CE0149960E949B0D2B013C016FA578A96C
:102ED000CE014D960E949B0D6DA37EA38FA398A754
:102EE00069A57AA5CE0181960E949B0D2DA13EA1D8
:102EF0004FA158A5260F371F481F591F420E531EBA
:102F0000641E751ED7011C964D925D926D927C9247
:102F10001F976FA978ADCE0149960E949B0D2B019A
:102F20003C0169A97AA9CE014D960E949B0D6DA323
:102F30007EA38FA398A76BA57CA5CE0181960E9446
:102F40009B0D2DA13EA14FA158A5260F371F481F4D
:102F5000591F420E531E641E751ED70158964D927E
:102F60005D926D927C925B9769AD7AADCE01499688
:102F70000E949B0D2B013C016BA97CA9CE014D96B3
:102F80000E949B0D6DA37EA38FA398A76DA57EA520
:102F9000CE0181960E949B0D2DA13EA14FA158A567
:102FA000260F371F481F591F420E531E641E751EE1
:102FB000840C951CA61CB71CD70194968D929D92EB
:102FC000AD92BC929797B601CE010D960E949B0DD3
:102FD0004B015C01B101CE0141960E949B0D2B017A
:102FE0003C01B801CE0145960E949B0D460E571E2E
:102FF000681E791E840C951CA61CB71CF7018482E0
:103000009582A682B7826DA97EA9CE010D960E94F7
:103010009B0D4B015C016FA578A9CE0141960E94E2
:103020009B0D2B013C0169A57AA5CE0145960E9416
:103030009B0D460E571E681E791E840C951CA61CFF
:10304000B71CD70150968D929D92AD92BC9253972A
:103050006FA978ADCE010D960E949B0D4B015C01CE
:1030600069A97AA9CE0141960E949B0D2B013C01D2
:103070006BA57CA5CE0145960E949B0D460E571E62
:10308000681E791E840C951CA61CB71CF701848E43
:10309000958EA68EB78E69AD7AADCE010D960E9443
:1030A0009B0D4B015C016BA97CA9CE0141960E944E
:1030B0009B0D2B013C016DA57EA5CE0145960E947E
:1030C0009B0D460E571E681E791E840C951CA61C6F
:1030D000B71C23962CAD3DAD4EAD5FAD2397820E50
:1030E000931EA41EB51ED70198968D929D92AD9207
:1030F000BC929B97B601CE0101960E949B0D4B019D
:103100005C01B101CE0105960E949B0D2B013C0193
:10311000B801CE0109960E949B0D460E571E681EEF
:10312000791E840C951CA61CB71CF701808691861D
:10313000A286B3866DA97EA9CE0101960E949B0D41
:103140004B015C016FA578A9CE0105960E949B0DED
:103150002B013C0169A57AA5CE0109960E949B0D21
:10316000460E571E681E791E840C951CA61CB71CA3
:10317000D70154968D929D92AD92BC9257976FA9AC
:1031800078ADCE0101960E949B0D4B015C0169A9AF
:103190007AA9CE0105960E949B0D2B013C016BA5DF
:1031A0007CA5CE0109960E949B0D460E571E681EF7
:1031B000791E840C951CA61CB71CF70180A291A255
:1031C000A2A2B3A269AD7AADCE0101960E949B0D79
:1031D0004B015C016BA97CA9CE0105960E949B0D59
:1031E0002B013C016DA57EA5CE0109960E949B0D89
:1031F000DC01CB01840D951DA61DB71D880D991D01
:10320000AA1DBB1D2BAD3CAD4DAD5EAD820F931F16
:10321000A41FB51FF70184A795A7A6A7B7A7C70145
:10322000CE5BDF4F0FB6F894DEBF0FBECDBFDF9190
:10323000CF911F910F91FF90EF90DF90CF90BF90B3
:10324000AF909F908F907F906F905F904F903F9046
:103250002F900895CF92DF92EF92FF920F931F93DA
:10326000CF93DF93EC018B01FB016081718182813F
:1032700093810E947E0D6B017C01F8016081718158
:10328000828193810E94620D00E011E020E030E035
:10329000088319832A833B831C861D861E861F860E
:1032A000188E198E1A8E1B8E1C821D821E821F8202
:1032B000C88AD98AEA8AFB8A002711279801061B47
:1032C000170B280B390B0C8F1D8F2E8F3F8F1886F5
:1032D00019861A861B866C8B7D8B8E8B9F8BC8A262
:1032E000D9A2EAA2FBA21CA61DA61EA61FA618A66E
:1032F00019A61AA61BA61CA21DA21EA21FA2CE01C1
:10330000DF91CF911F910F91FF90EF90DF90CF90C1
:1033100008952F923F924F925F926F927F928F9279
:103320009F92AF92BF92CF92DF92EF92FF920F9354
:103330001F93CF93DF93CDB7DEB7CE56D1090FB62B
:10334000F894DEBF0FBECDBF1C01F12C9C012055AF
:103350003D4FA9963FAF2EAFA9977DE4E72E6C01B4
:1033600031E8C31A3DEFD30AA996EEADFFADA99798
:103370008081F81608F024C20F2D10E0E09EC001F5
:10338000E19E900D11244C0144E6840E911C820CA8
:10339000931C820D931DFC01E655FF4F0190F081B7
:1033A000E02D309711F0C4010995E09EA001E19E47
:1033B000500D11245101A40EB51EF501E355FF4F28
:1033C000808181FDFBC18A0106581F4F020D131D2C
:1033D000F601D501A658BF4F80E301900D928A9562
:1033E000E1F79A0124593F4F220D331D48595F4F91
:1033F000420D531DB401C8010E94D70DF501EB58D1
:10340000FF4F8080882009F4A3C1912CA12CB12CFE
:10341000BA2CA92C982C8824C501B4010E947E0DD9
:1034200061966CAF7DAF8EAF9FAF6197C501B40160
:103430000E94620D2D966CAF7DAF8EAF9FAF2D9722
:10344000D8018D909D90AD90BC90139729968CAE2D
:103450009DAEAEAEBFAE29971C964D905D906D901F
:103460007C901F9758968D909D90AD90BC905B97E7
:1034700025968CAE9DAEAEAEBFAE259794968D9040
:103480009D90AD90BC90979714962D913D914D9144
:103490005C91179721962CAF3DAF4EAF5FAF219750
:1034A00050962D913D914D915C91539769962CAF1B
:1034B0003DAF4EAF5FAF69975C962D913D914D91B9
:1034C0005C915F9729AF3AAF4BAF5CAF98962D9167
:1034D0003D914D915C919B97A1962CAF3DAF4EAF26
:1034E0005FAFA19718962D913D914D915C911B97DF
:1034F0002DAB3EAB4FAB58AF54962D913D914D91B6
:103500005C91579765962CAF3DAF4EAF5FAF659717
:1035100090962D913D914D915C91939729AB3AAB4B
:103520004BAB5CAB9C962D913D914D915C919F97DF
:10353000A5962CAF3DAF4EAF5FAFA5979B01AC01F9
:1035400088279927DC01821B930BA40BB50B898379
:103550009A83AB83BC83BE016F5F7F4FCE018F5BCD
:103560009F4F0E949B0D6D966CAF7DAF8EAF9FAF4E
:103570006D97BE01635B7F4FCE018B5B9F4F0E94B7
:103580009B0D6D962CAD3DAD4EAD5FAD6D97260F8D
:10359000371F481F591FF80120833183428353830B
:1035A0004486558666867786BE01635B7F4FCE0173
:1035B0008F5B9F4F0E949B0D2B013C01BE01675BFF
:1035C0007F4FCE018B5B9F4F0E949B0D460E571E77
:1035D000681E791EF801408E518E628E738E84A211
:1035E00095A2A6A2B7A22D968CAD9DADAEADBFADF6
:1035F0002D97B095A095909581959F4FAF4FBF4F58
:1036000089839A83AB83BC83BE016F5F7F4FCE01FA
:10361000C9960E949B0D4B015C01BE01635B7F4F0D
:10362000CE01CD960E949B0D860E971EA81EB91E38
:10363000F80184829582A682B78269962CAD3DAD51
:103640004EAD5FAD6997208B318B428B538BBE01A2
:10365000635B7F4FCE01C9960E949B0D4B015C01BD
:10366000BE01675B7F4FCE01CD960E949B0DDC01B2
:10367000CB01880D991DAA1DBB1DF801848F958F64
:10368000A68FB78FA1962CAD3DAD4EAD5FADA19786
:1036900020A731A742A753A72D968CAD9DADAEAD07
:1036A000BFAD2D97B095A095909581959F4FAF4F49
:1036B000BF4F89839A83AB83BC83BE016F5F7F4F0B
:1036C000CE01C1960E949B0D4B015C01BE01635B64
:1036D0007F4FCE01C5960E949B0DDC01CB01880D6A
:1036E000991DAA1DBB1DF80180879187A287B3870A
:1036F00065962CAD3DAD4EAD5FAD6597248B358B9A
:10370000468B578BBE01635B7F4FCE01C1960E94F3
:103710009B0D4B015C01BE01675B7F4FCE01C596DF
:103720000E949B0DDC01CB01880D991DAA1DBB1DBC
:10373000F80180A391A3A2A3B3A3A5962CAD3DADA0
:103740004EAD5FADA59724A735A746A757A736C0AE
:10375000F501EA58FF4F8081882381F190E0A0E0D5
:10376000B0E0BA2FA92F982F882789AF9AAFABAFB7
:10377000BCAF1DAA1EAA1FAA18AE3297808190E086
:10378000A0E0B0E0BA2FA92F982F882789AB9AAB79
:10379000ABABBCAB9E01275C3F4FAE014B5C5F4FB8
:1037A000BE016F5C7F4FCE0101960E947010AE018A
:1037B0004F5F5F4FB801C8010E948B16F394D4CDC0
:1037C0006A961FAE6A97910121553D4FAF963FAF64
:1037D0002EAFAF97AF96AEADBFADAF978C916A9657
:1037E000BFAD6A97B81708F06DC3A1016A968FAD97
:1037F0006A97480F511D480F511D67965FAF4EAF36
:103800006797DA01BC916296BFAF6297BF3F09F438
:103810006FC2FA01F181A896FFAFA8972B2F30E075
:10382000A3963FAF2EAFA397A1018DE48B9F400DD0
:10383000511D11246F965FAF4EAF6F97FA01E85894
:10384000FF4F808191819C01A896BFADA897AEE003
:10385000BA9F200D311D1124F90165917591859153
:10386000949169837A838B839C83F9013496459084
:103870005590659074904D825E826F827886F901D2
:10388000389685909590A590B49089869A86AB8657
:10389000BC86F9013C96E491ED87F9013D961491BF
:1038A0001E87FA01E059FF4FC080D180E280F3808B
:1038B000C114E1E0DE06E104F104D9F1A7019601AB
:1038C0000E94B32908E00E94DD2A29833A834B83B2
:1038D0005C83C301B201A70196010E94B3290E9433
:1038E000DD2A2D833E834F835887C501B401A7018C
:1038F00096010E94B3290E94DD2A29873A874B87C7
:103900005C876F96EEADFFAD6F97E355FF4F8081FB
:1039100083FD0FC0A12FB0E0A70196010E944C29A2
:1039200069AB7AAB8BAB9CABCE01C1960E94BD0B51
:103930006E874DE4A3962EAD3FADA397429F6001E5
:10394000439FD00C112476015AE7E50EF11C81014A
:103950000E0D1F1D89819A81AB81BC8189AF9AAF01
:10396000ABAFBCAF8D819E81AF81B8858DAB9EAB77
:10397000AFABB8AF89859A85AB85BC8589AB9AAB6F
:10398000ABABBCABBE016F5C7F4FC80148960E94D9
:103990009B0D2B013C01BE016B5C7F4FC8010C9657
:1039A0000E949B0D4B015C01BE01675C7F4FC8010B
:1039B0000E949B0DDC01CB01880D991DAA1DBB1D2A
:1039C000480E591E6A1E7B1EF80184A195A1A6A16E
:1039D000B7A1480E591E6A1E7B1E49825A826B820D
:1039E0007C82BE016F5C7F4FC8014C960E949B0D8C
:1039F0002B013C01BE016B5C7F4FC80140960E94C9
:103A00009B0D4B015C01BE01675C7F4FC8010496B2
:103A10000E949B0DDC01CB01880D991DAA1DBB1DC9
:103A2000480E591E6A1E7B1EF80180A591A5A2A50D
:103A3000B3A5480E591E6A1E7B1E4D825E826F82A0
:103A40007886BE016F5C7F4FC80180960E949B0DF7
:103A50002B013C01BE016B5C7F4FC80144960E9464
:103A60009B0D4B015C01BE01675C7F4FC80108964E
:103A70000E949B0D860E971EA81EB91E840C951CD5
:103A8000A61CB71CF80184A595A5A6A5B7A5A501F8
:103A90009401280F391F4A1F5B1FA1962CAF3DAF21
:103AA0004EAF5FAFA19729873A874B875C87CE01DE
:103AB00001960E94BD0BC20CD31CF601E155FF4FCD
:103AC0006083CE0105960E94BD0BF601E055FF4FC5
:103AD0006083A1968CAD9DADAEADBFADA19718161C
:103AE00019061A061B060CF003C16A969FAD6A9769
:103AF000992391F0AD962CAD3DAD4EAD5FADAD9738
:103B0000A1968CAD9DADAEADBFADA197281739077D
:103B10004A075B070CF4F4C02DE4A396AEADBFAD2D
:103B2000A3972A9FF0012B9FF00D1124E20DF31DA6
:103B3000E355FF4F3081A2963FAFA297A1968CAD7F
:103B40009DADAEADBFADA197905CAF4FBF4FAC0187
:103B5000BD01770F440B542FBA015C016D01E42EB7
:103B6000F42E042F142F20E030E040E450E060E019
:103B700070E080E090E00E94EF292DAB3EAB4FABB0
:103B800058AFBE016B5C7F4FCE0101960E949B0D2A
:103B9000DC01CB01905CAF4FBF4F89AB9AABABABB5
:103BA000BCABCE01C1960E94BD0B2B013C016796B8
:103BB0007FAF6EAF6797BE016B5C7F4FCE010596FE
:103BC0000E949B0D20E030E240E050E0261B370BC6
:103BD000480B590B29AB3AAB4BAB5CABCE01C19652
:103BE0000E94BD0B65966CAF7DAF8EAF9FAF6597A2
:103BF000AE852DA93EA94FA958ADB0E00E944C2931
:103C000069AB7AAB8BAB9CABCE01C1960E94BD0B6E
:103C1000AB01BC016A017B01F594E794D794C7948A
:103C2000C201052C000CAA0BBB0B8C199D09AE0917
:103C3000BF098C019D01040F151F261F371FB7FFF9
:103C400003C080E090E0DC01013811052105310559
:103C500024F000E810E020E030E080179107A20790
:103C6000B307A4F563968EAD9FAD6397A7969FAFFC
:103C70008EAFA797092E000CAA0BBB0B8C199D09C0
:103C8000AE09BF094C015D01B7FF03C0812C912C27
:103C90005401840F951FA61FB71F81349105A105FC
:103CA000B10524F080E490E0A0E0B0E08816990629
:103CB000AA06BB065CF44530510561057105CCF1DF
:103CC000A296FFADA297F0FD34C05AC0A1962CADCC
:103CD0003DAD4EAD5FADA197AD962CAF3DAF4EAFB4
:103CE0005FAFAD976A963FAD6A97A6963FAFA6972E
:103CF0006A964FAD6A974F5F6A964FAF6A976ACDE3
:103D0000F101A6962FADA697E20FF11DE20FF11D6E
:103D1000808191816796AEADBFAD67978D939C937F
:103D20006296BFAD6297B083A8962FADA897218306
:103D3000F3CE9C01AD01281939094A095B09659642
:103D40002CAF3DAF4EAF5FAF6597412C512C320188
:103D5000C414D504E604F70484F1642D61950D853F
:103D600062962FAD6297A40167968EAD9FAD67975F
:103D70000E9495252FEF421A520A620A720AE8CF72
:103D80001D858C2D90E0A2963FADA29732FF55C0C5
:103D900041E04C0D63966EAD7FAD6397681B790B68
:103DA000212FC2010E940A25BB24B394BC18AC2C5D
:103DB000A194AA0CF12CFC149CF0A1968CAD9DADA5
:103DC000AEADBFADA197AD968CAF9DAFAEAFBFAF5F
:103DD000AD976A969FAD6A97A6969FAFA69788CF34
:103DE000B7FC04C0CA94A394A394BA0CF3948F2D87
:103DF000880F8F5FB80E012F21E02C0DA7964EADD6
:103E00005FADA7974C195109C7FC53956F2D679665
:103E10008EAD9FAD67970E94952521E02F0DA79647
:103E20004EAD5FADA7974F1951096C2D67968EADBA
:103E30009FAD67970E949525BECF4C2D440F4F5FD5
:103E400063966EAD7FAD6397681B790B212FC2011E
:103E50000E940A25BB24B394BC18AC2CA194AA0CD4
:103E600083E0E82EF12CFC140CF0A7CFB7FC04C0C3
:103E7000CA94A394A394BA0CF394BE0C2C2D220FD5
:103E80002F5F012FA7964EAD5FADA7974C19510933
:103E9000C7FC53956F2D67968EAD9FAD67970E94B7
:103EA0009525A7964EAD5FADA7974F1951092E2DB9
:103EB0006C2D67968EAD9FAD67970E949525E39414
:103EC000E394D1CFC259DF4F0FB6F894DEBF0FBED7
:103ED000CDBFDF91CF911F910F91FF90EF90DF90B9
:103EE000CF90BF90AF909F908F907F906F905F909A
:103EF0004F903F902F900895CF92DF92EF92FF92D4
:103F00000F931F93CF93DF93EC018C0100551D4F4E
:103F1000F8012081FDE42F9F90011124D901AC59B3
:103F2000BF4FA80FB91F1D921D921D921C9213978F
:103F300014961D921D921D921C92179718961D9211
:103F40001D921D921C921B97C12CD12C7601D394EB
:103F50001C96CD92DD92ED92FC921F972C0F3D1F87
:103F600079018DEAE80EF11CF7011082F9971082B1
:103F70003196108231961082F49611821082F39756
:103F80004083319671836083F8019081F901E25595
:103F9000FF4F908332971082F701108220E0BE011C
:103FA00061557D4F241771F0FB01808131E0380F9E
:103FB0003083FE01E80FF11DE80FF11D908321838E
:103FC0002F5FF0CF9F5FF8019083CD01DF91CF91FC
:103FD0001F910F91FF90EF90DF90CF900895409147
:103FE0009D0450919E0420919B0430919C044217A3
:103FF0005307B4F49091E8009570E1F39091E800D4
:1040000092FD19C08093F10080919D0490919E04CF
:1040100001968F739927892B19F48EEF8093E8000E
:1040200080919D0490919E04019690939E048093AC
:104030009D0481E0089580E00895CF92DF92EF9291
:10404000FF920F931F93CF93DF931F92CDB7DEB7ED
:10405000182F062FE42E862F880F8E5F99830E94DB
:10406000EF1F83E00E94EF1FF12EC12E9981D92E00
:104070008C2D8F19801798F4F601E7FE02C0849109
:1040800001C080810E94EF1F182F80E00E94EF1F67
:104090008123FFEFCF1ADF0A8111EACF01C081E04F
:1040A0000F90DF91CF911F910F91FF90EF90DF90D4
:1040B000CF900895DF92EF92FF920F931F93CF93CB
:1040C000DF93D82E8A017B01E40EF51EEB01CE159D
:1040D000DF0571F0D7FE03C0FE01849101C0888125
:1040E0000E94EF1F21968111F2CF8FEF9FEF01C049
:1040F000C801DF91CF911F910F91FF90EF90DF905A
:104100000895615030F02091F100FC012083019668
:10411000F8CF289884E68093A3040895CF92DF9285
:10412000EF92FF920F931F93CF93DF936C017A016D
:104130008B01C0E0D0E0CE15DF0589F0D8016D918C
:104140008D01D601ED91FC910190F081E02DC60129
:104150000995892B11F47E0102C02196ECCFC7018D
:10416000DF91CF911F910F91FF90EF90DF90CF9053
:1041700008950F931F93CF93DF931F92CDB7DEB7B0
:1041800082E0898342E450E062E27CE080E80E94C1
:104190005A200E94FA26DC0112960D911C91139769
:1041A0000115110569F0D801ED91FC910280F381B0
:1041B000E02DBE016F5F7F4FC801099597FF07C0D3
:1041C00089810F90DF91CF911F910F910895F80190
:1041D00000851185E5CF0E94272B1F920F920FB605
:1041E0000F9211248F939F938091E1009091E100B1
:1041F000937F9093E10083FF0FC01092E90091E05C
:104200009093EB001092EC0092E39093ED001092EB
:10421000A40498E09093F00082FF20C093E0909374
:10422000E9009091F200992319F09AE39093E80045
:104230009091A104992339F09091A1049150909309
:10424000A104992389F19091A304992339F09091C5
:10425000A30491509093A304992341F184FF10C0CB
:104260008091E2008E7E81608093E2008091E10087
:104270008F7E8093E1008091A2048E7E806111C0C8
:1042800080FF16C08091E2008E7E80618093E20004
:104290008091E1008E7E8093E1008091A2048E7E69
:1042A00081608093A20404C05D9ACDCF289AD6CFB6
:1042B0009F918F910F900FBE0F901F9018951F9296
:1042C0000F920FB60F921124CF92DF92EF92FF92CE
:1042D0000F931F932F933F934F935F936F937F930E
:1042E0008F939F93AF93BF93EF93FF93CF93DF93FE
:1042F000CDB7DEB76C97DEBFCDBF1092E9008091DD
:10430000E80083FFEDC168E0CE0145960E94812060
:1043100082EF8093E8008D8987FF05C09091E800C7
:1043200090FFFCCF03C09EEF9093E800982F90760B
:1043300009F0C6C09E892F89188D91110CC0803854
:1043400029F48091A0048093F10002C01092F10042
:104350001092F10048C1422F50E0512B913051F49E
:10436000811141C14130510509F03DC18091A00446
:104370008D7F0BC0933061F4811135C141305105FF
:1043800009F031C18091A00482608093A0042BC108
:10439000953041F48091E80080FFFCCF20682093A5
:1043A000E30021C1963009F05FC0EB8CFC8C1092C9
:1043B000E90010929E0410929D04123091F5109223
:1043C0009C0410929B040E94B92099E0BE016F5F8B
:1043D0007F4FDB01E92F1D92EA95E9F799831A8354
:1043E00091E09E8390EA98879AEF998720919D04A7
:1043F00030919E04275F3F4F3C832B838D83109227
:10440000E90010929E0410929D04F0929C04E092A8
:104410009B0449E050E080E00E945A200E94B920AD
:10442000E2C0F0929C04E0929B040E94FA26DC0118
:104430001296ED90FC901397E114F10409F4C0C0BA
:10444000D701ED91FC910480F581E02DBE016B5EFA
:104450007F4FC7010995009719F00CF0C4C0C7C081
:10446000F701E084F184E8CF973009F4C0C09830B8
:1044700021F481E08093F100B6C0993009F0B3C017
:10448000837009F0B4C0E9E1F1E081E021E036E3B6
:104490009081992361F08093E9002093EB00919142
:1044A0009093EC003093ED008F5F873089F78EE7B3
:1044B0008093EA001092EA008F898093A40493C04D
:1044C0008B8D9C8D1092E90010929E0410929D0499
:1044D00090939C0480939B04898D811156C08E8992
:1044E0009D89913A59F4813209F081C047E050E04A
:1044F00060E171E080E00E945A2075C0913209F0BD
:1045000076C0833289F4888D90E0982F88272F8990
:10451000822BA0E0B0E080930C0190930D01A0935A
:104520000E01B0930F015FC0803269F48091E80002
:1045300082FFFCCF67E080E191E00E9481208BEF59
:104540008093E80006C0823209F04DC08F898093C5
:10455000170180919F04882319F0EEEFFAE002C062
:10456000E0E0F8E08091100190911101A09112011A
:10457000B0911301803B9440A105B10509F07BC0C7
:104580008091170180FF93C076C00E94FA26DC015B
:1045900012960D911C9113970115110541F1D80147
:1045A000ED91FC910190F081E02DBE016B5E7F4F9B
:1045B000C8010995811117C0F80100851185ECCF5C
:1045C000113009F44EC0133091F48F89882309F417
:1045D00045C0823081F440E860E186E89CE00E94BA
:1045E0001D20882321F08EEF8093E80079C081E2BE
:1045F0008093EB0075C0813029F440E86BE08AE7D6
:104600009CE0EDCF833099F70E94FA26DC011296E8
:10461000ED90FC9013978E010F5F1F4F6801E1141E
:10462000F10479F0D701ED91FC910680F781E02D3E
:10463000B801C7010995080F111DF701E084F18445
:10464000EECFD8011C92F60101900020E9F73197D6
:10465000BF016C197D0940E0C601C1CF64E67CE072
:1046600002C068E67CE06115710509F2FB01449126
:1046700050E080E840CF0FB6F894A8958091600094
:10468000886180936000109260000FBEA895EE3F95
:104690002AE0F20739F08091FE0A9091FF0A918397
:1046A0008083A1CF1092FF0A1092FE0A9CCFEE3FAA
:1046B0008AE0F80731F0808191819093FF0A80931E
:1046C000FE0A87E797E7918380839BE088E10FB636
:1046D000F894A895809360000FBE9093600083CFFC
:1046E0006C960FB6F894DEBF0FBECDBFDF91CF91B1
:1046F000FF91EF91BF91AF919F918F917F916F91BA
:104700005F914F913F912F911F910F91FF90EF90EB
:10471000DF90CF900F900FBE0F901F9018958F9243
:104720009F92AF92BF92CF92DF92EF92FF926B0176
:104730007C010E94EF154B015C01C114D104E1041E
:10474000F104F1F00E94EF15DC01CB018819990901
:10475000AA09BB09883E9340A105B10570F321E089
:10476000C21AD108E108F10888EE880E83E0981E8D
:10477000A11CB11CC114D104E104F10419F7DDCF6F
:10478000FF90EF90DF90CF90BF90AF909F908F9071
:104790000895FC018091A404811103C08FEF9FEF65
:1047A00008959FB7F89482E08093E9002091F20089
:1047B00030E01216130614F421E030E02115310523
:1047C00059F0289884E68093A3048091F1008083B7
:1047D0008091F200882319F09FBFC90108958BE6EC
:1047E0008093E800F9CF2FB7F89483E08093E90035
:1047F0009091E800892F807295FF04C09091F2009B
:1048000080E4891B2FBF0895CF93DF931F92CDB70C
:10481000DEB76983DC01ED91FC910280F381E02D2C
:1048200041E050E0BE016F5F7F4F09950F90DF912F
:10483000CF91089583E08093E9008091F20088236E
:1048400019F08AE38093E80008950E94F32390E032
:104850000895CF93DF931F92CDB7DEB7FC01848517
:10486000958597FD05C02FEF3FEF358724870BC057
:10487000CE0101960E94C923019719F4898190E025
:1048800002C08FEF9FEF0F90DF91CF9108950F93AC
:104890001F93CF93DF931F92CDB7DEB78C01FC013E
:1048A0008485958597FF0EC0CE0101960E94C9238D
:1048B000019719F4298130E002C02FEF3FEFF80192
:1048C00035872487F801848595850F90DF91CF91F6
:1048D0001F910F910895FC018485958597FD0BC06C
:1048E0009FB7F89482E08093E9008091F2009FBF27
:1048F00090E0019608959FB7F89482E08093E900D4
:104900008091F2009FBF90E008958F929F92AF92A6
:10491000BF92CF92DF92EF92FF920F931F93CF93AC
:10492000DF935C016B017A0180911701882309F400
:104930005BC08091A404882309F456C08091A2042E
:1049400080FF05C08091E00082608093E000E70175
:1049500010E00AEF83E0882E9AE3992E2097D9F190
:104960000E94F32381110AC0015009F43DC061E0A7
:1049700070E080E090E00E948F23F0CF282F30E09D
:10498000C217D3070CF48C2F4FB7F8948092E9002C
:104990009091E80095FF1DC0282F30E0C21BD30B7B
:1049A000F601982F915020F081918093F100FACF79
:1049B000C20ED31E112319F09092E80009C0809115
:1049C000E80085FD06C09092E80011E0209709F00C
:1049D00010E04FBFC3CF1111C3CF5D9884E6809321
:1049E000A1041E141F0444F081E090E0F5019383BC
:1049F000828380E090E001C0C701DF91CF911F91D9
:104A00000F91FF90EF90DF90CF90BF90AF909F906D
:104A10008F900895CF93DF938038910508F082C07E
:104A2000603471050CF07EC077FF08C0FB01E40F15
:104A3000F11DF7FD77C0460F60E070E0FB01E40F69
:104A4000F11DE134F10514F040E4461BA1E0B0E0B3
:104A50002F3F11F4A0E0B0E0E22FF0E0EA23FB23C7
:104A6000EF2B41F02091AC08280F20FD02C025E576
:104A700001C02AEA362F36953695369550E8359F8F
:104A8000800D911D1124EC01CB55DB4F677021F196
:104A9000A42FB0E0862F90E0E8E0F0E0E81BF90BEF
:104AA000AE17BF0744F4A80FB91FFD01E056F34F3E
:104AB000A49140E003C06850460FAFEFFC01E956F7
:104AC000F34FE491EA23AE2FA0958881A823E22337
:104AD000EA2BE883C058DF4FFE01842F883028F08E
:104AE0002083E058FF4F8850F9CF842F8695869514
:104AF000869560E8869FC00DD11D1124477091F006
:104B000088E090E0BC01641B71098FEF90E002C067
:104B1000959587956A95E2F7282380959881892352
:104B2000282B2883DF91CF910895EF92FF920F9366
:104B30001F93CF93DF93DC01C62FBA01422F202FA2
:104B4000EC2F0C2E000CFF0B8E0F9F1F8D010E1BE8
:104B50001F0BF8018038910510F4C11102C0CF017C
:104B600003C00038110540F0DF91CF911F910F91E4
:104B7000FF90EF900C940A25603471050CF09BC0F7
:104B8000C7FDC1950C2E000CDD0BFD01EC1BFD0BD0
:104B90007E01EE0CFF1C3E2D77FF08C0CB01840F79
:104BA000911D97FD88C0460F60E070E0CB01840F37
:104BB000911D8134910514F040E4461B213041F4ED
:104BC0009091AC089E0F90FD02C025E501C02AEA35
:104BD000DB01A87FBB2784E0AA0FBB1F8A95E1F702
:104BE000AE0FBF1FAB55BB4F677079F1842F90E0BC
:104BF000062F10E0E8E0F0E0E01BF10B8E179F07B6
:104C000044F4800F911FFC01E056F34F849140E083
:104C100003C06850460F8FEFF801E956F34FE49157
:104C2000E8235E2F5095CE2FC2239C9195239C2B79
:104C30009C93BD016E0D711DE7FC7A95FB0180818F
:104C400085238C2B8083A058BF4FFD01842F632FB9
:104C5000330F770B883050F08F01060F171FE801D4
:104C600028832083E058FF4F8850F4CF842F869507
:104C700086958695D0E88D9FA00DB11D11244770B3
:104C8000D1F088E090E0841B91094FEF50E002C022
:104C9000559547958A95E2F7042F009542238C910C
:104CA0008023842B8C93AE0DB11DE7FCBA958C91BB
:104CB0000823402B4C93DF91CF911F910F91FF90D0
:104CC000EF9008958091A5048EBDE6EAF4E081910D
:104CD0000DB407FEFDCF8EBD88E0E53AF807B9F7C1
:104CE0000DB407FEFDCF0895009769F0FC01019017
:104CF0000020E9F73197AF01481B590BBC0185EA49
:104D000098E00C948E2080E090E008958F929F921E
:104D1000AF92BF920F931F93CF93DF93CDB7DEB7C0
:104D2000A1970FB6F894DEBF0FBECDBF19A24230D7
:104D300008F44AE08E010F5D1F4F842E912CA12CA8
:104D4000B12CA50194010E945729E62FB901CA018F
:104D500001501109EA3014F4E05D01C0E95CD801AA
:104D6000EC93232B242B252B61F7C8010E9474267A
:104D7000A1960FB6F894DEBF0FBECDBFDF91CF91E5
:104D80001F910F91BF90AF909F908F9008950F93B8
:104D90001F93CF93DF938C01C0E0D0E0F801EC0FBC
:104DA000FD1F6491662371F0E091A508F091A608BB
:104DB0000190F081E02D85EA98E00995892B11F0AA
:104DC0002196ECCFCE01DF91CF911F910F910895E5
:104DD000CF93DF93BC0180E090E04AE00E948626FA
:104DE000EC0185E491E00E9474268C0F9D1FDF91F9
:104DF000CF9108958091C70881110DC082E0809302
:104E0000C30884E08093C4081092C6081092C508B5
:104E100081E08093C70883EC98E008950F931F9377
:104E2000CF93DF938C0181E090E00E94362980FFD0
:104E300031C08AE090E00E9436299FEF980F9E3F94
:104E400048F522E330E0D80157963C932E935697CD
:104E500028E330E059963C932E935897CBE0D0E06E
:104E6000D801ED91FC910190F081E02D682FC801EF
:104E70000995CE010E9436292196C131D10581F7CD
:104E80000E94622688EE93E0DF91CF911F910F91EF
:104E90000C945E16DF91CF911F910F9108950497A6
:104EA0000C940E27789484B5826084BD84B58160AB
:104EB00084BD85B5826085BD85B5816085BD8091E5
:104EC0006E00816080936E0010928100809181005D
:104ED0008260809381008091810081608093810055
:104EE0008091800081608093800080919100826039
:104EF00080939100809191008160809391008091D6
:104F000090008160809390008091C10084608093C4
:104F1000C1008091C10082608093C1008091C10076
:104F200081608093C1008091C30081608093C30041
:104F30008091C00082608093C0008091C200816037
:104F40008093C20080917A00846080937A0080917F
:104F50007A00826080937A0080917A0081608093E9
:104F60007A0080917A00806880937A001092A4047D
:104F70001092A0041092A2048091D70081608093C7
:104F8000D70080EA8093D80089B5806189BD89B552
:104F9000826089BD09B400FEFDCF61E070E080E071
:104FA00090E00E948F238091D8008F7C8061809355
:104FB000D8008091E000807F8093E0008091E10044
:104FC0008E7E8093E1008DE08093E200559A209AD6
:104FD000EEEFFFE7859194918B3F9C4D19F481E0B2
:104FE00080939F0481EC80937C0085B1806F85B9AC
:104FF000249884B1866E84B95E9A5F988AB1806D78
:105000008AB9769A6E9881B3806F81BB899880B394
:105010008D7080BB80E58CBD81E08DBD85E090E02A
:105020000E945E165F9A85E090E00E945E165E9890
:105030005C98E9EFFBE08DE08E0F94919EBD00003F
:105040000DB407FEFDCF31968E13F7CF5C9A81E841
:105050008093640081E0809365000E94631687FF5F
:1050600013C05C9885EA8EBD00000DB407FEFDCF2D
:105070005C9A2E982F982D9880916400806280937E
:1050800064000E948016FDCF80E18093B008C5EADD
:10509000D4E000E010E0FF24F3942FB7F89480915F
:1050A000900490919104A0919204B09193042FBF29
:1050B0004091B5085091B6086091B7087091B80852
:1050C0002091B908222341F02091B108821B8093DE
:1050D000BA081092B90885C084179507A607B707C4
:1050E00038F4481B423008F47CC00E94801679C016
:1050F000F092B9088093B1089093B208A093B308D6
:10510000B093B4082091B008820F911DA11DB11D6C
:105110008093B5089093B608A093B708B093B808E9
:105120008091AC089091AD0801969093AD08809362
:10513000AC08E0909504E09299040E946316809375
:105140009504E0948E2180939404E0919704F0916B
:10515000980480910A0190910B01E817F907A9F0D2
:1051600010929A04FF27EE0FFF1FEC5EF34F85911C
:105170009491009711F0FC0109958091970490910A
:10518000980490930B0180930A01E0919704F091A9
:105190009804FF27EE0FFF1FEA5FF34F859194916C
:1051A000009711F0FC0109950E94622680919604F7
:1051B0008823B9F0823851F48091AC0880FF02C096
:1051C00085E501C08AEA982F909503C0817081958A
:1051D000982FFE01002481939193819391930394DE
:1051E000D1F70115110509F458CF0E94000055CFE1
:1051F000EFECF8E01382128288EE93E0A0E0B0E0DA
:1052000084839583A683B78383E291E0918380832F
:105210008FEF9FEF95878487E5EAF8E0138212828B
:105220001186128620E1238790878783108A118A4E
:10523000128A138A148A178A168A118E108E81E0B8
:10524000828F138E848F158E85E391E09183808306
:1052500083E491E0958384830895FC010590002008
:10526000E9F7809590958E0F9F1F0895F999FECFCD
:1052700092BD81BDF89A992780B50895262FF99996
:10528000FECF1FBA92BD81BD20BD0FB6F894FA9A29
:10529000F99A0FBE019608950E947929A59F900D55
:1052A000B49F900DA49F800D911D11240895A1E23B
:1052B0001A2EAA1BBB1BFD010DC0AA1FBB1FEE1F90
:1052C000FF1FA217B307E407F50720F0A21BB30BDB
:1052D000E40BF50B661F771F881F991F1A9469F757
:1052E00060957095809590959B01AC01BD01CF01B3
:1052F0000895A29FB001B39FC001A39F700D811DAF
:105300001124911DB29F700D811D1124911D0895CE
:10531000DB018F939F930E944C29BF91AF91A29F75
:10532000800D911DA39F900DB29F900D11240895A3
:1053300097FB072E16F4009407D077FD09D00E9442
:10534000042B07FC05D03EF4909581959F4F08955E
:10535000709561957F4F08950E947929B7FF089550
:10536000821B930B089597FB57FF0C94C3299F93BF
:105370008F930E94C3296E1B7F0BAF91BF918A0B45
:105380009B0B0895E894DF93CF93FC01DB010E940F
:1053900079297F936F93E9019A01AC01BF93AF9391
:1053A0003F932F93DF010E94792926F46C1B7D0B1C
:1053B000820B930B9E01EB01FC010E941E2BAF910F
:1053C000BF912F913F910E941E2BBE01CF01F90189
:1053D0002F913F91CF91DF910895689401C0E89497
:1053E000F92FF12B12F00C94212AA0E0B0E0EBEFA2
:1053F000F9E20C94932A092E059422F40E947D2A46
:10540000112392F4F0E80F26FFEFE094F09400955A
:105410001095B094C094D094A194BF0ACF0ADF0A2B
:10542000EF0AFF0A0F0B1F0B0E942C2A07FC0E9499
:105430007D2ACDB7DEB7ECE00C94AF2A689401C0AA
:10544000E8948F929F92CF93DF930E942C2ADF9152
:10545000CF919F908F90089588249924F401E401BE
:10546000B0E49F93AA279A158B049C04ED05FE05D2
:10547000CF05D007A10798F4AD2FDC2FCF2FFE2F3B
:10548000E92D982C892E982F872F762F652F542F52
:10549000432F322F2227B85031F7BF9127C01B2E40
:1054A000BF91BB27220F331F441F551F661F771F55
:1054B000881F991F881C991CEE1FFF1FCC1FDD1F22
:1054C000AA1FBB1F8A149B04EC05FD05CE05DF0552
:1054D000A007B10748F08A189B08EC09FD09CE091E
:1054E000DF09A00BB10B21601A94E1F62EF49401B0
:1054F000AF01BE01CD01000C0895609570958095B7
:10550000909530954095509521953F4F4F4F5F4F67
:105510006F4F7F4F8F4F9F4F08952F923F924F9223
:105520005F926F927F928F929F92AF92BF92CF9233
:10553000DF92EF92FF920F931F93CF93DF93CDB73C
:10554000DEB7CA1BDB0B0FB6F894DEBF0FBECDBFB4
:1055500009942A88398848885F846E847D848C8485
:105560009B84AA84B984C884DF80EE80FD800C818E
:105570001B81AA81B981CE0FD11D0FB6F894DEBF71
:105580000FBECDBFED0108950F93083090F0982F16
:10559000872F762F652F542F432F322F2227085025
:1055A000F4CF220F331F441F551F661F771F881F1C
:1055B000991F0A95B2F70F91089597FB10F816946A
:1055C00000080F93083098F00850232F342F452FF0
:1055D000562F672F782F892F902DF4CF059497950C
:1055E00087957795679557954795379527950A95A8
:1055F000AAF70F9108952A193B094C095D096E0914
:105600007F09800B910B0895AA1BBB1B51E107C0BA
:10561000AA1FBB1FA617B70710F0A61BB70B881F42
:10562000991F5A95A9F780959095BC01CD010895D1
:10563000EE0FFF1F0590F491E02D09940E94792947
:10564000460F571FC81FD91F08F43196089581E0EF
:0C56500090E0F8940C942C2BF894FFCF01
:10565C00010101010101640000000600FFFFFFFFD2
:10566C0000E100000000000000C18081000000008B
:10567C000000000424852425241A246B24292447A3
:10568C002400000000E0148E20C008BF080E27FC88
:08569C00FF00004F270D0A007A
:00000001FF
